:020000040800F2
:1000000050BE0224190500085B9B00087396000887
:10001000599B00083D310008C1C3000800000000E2
:10002000000000000000000000000000590400086B
:100030000936000800000000B5040008F1A500081A
:1000400033050008330500083305000833050008B0
:1000500033050008330500083305000833050008A0
:10006000330500083305000833050008CD310008CA
:100070003305000833050008330500083305000880
:100080003305000833050008913000082D360008BC
:100090004536000839360008513600083305000897
:1000A0003305000833050008330500083305000850
:1000B0003305000833050008330500083305000840
:1000C00033050008330500083305000835A0000893
:1000D0003305000833050008330500083305000820
:1000E0003305000833050008000000003305000850
:1000F0003305000833050008330500083305000800
:1001000033050008330500083305000833050008EF
:1001100033050008330500083305000833050008DF
:1001200033050008330500083305000833050008CF
:1001300033050008330500083305000833050008BF
:1001400000000000000000000000000000000000AF
:10015000330500083305000833050008330500089F
:10016000330500083305000833050008330500088F
:1001700033050008F99B0008330500080000000063
:10018000330500083305000833050008330500086F
:10019000330500083305000833050008330500085F
:1001A000330500083305000833050008000000008F
:1001B000330500083305000833050008330500083F
:1001C00033050008330500080000000000000000AF
:1001D00000000000000000003305000800000000DF
:1001E000000000000000000000000000000000000F
:1001F000000000000000000033050008330500087F
:10020000330500083305000800000000330500082E
:1002100033050008330500083305000833050008DE
:10022000330500080000000033050008000000004E
:1002300033050008330500080000000033050008FE
:1002400033050008330500083305000833050008AE
:10025000330500083305000833050008330500089E
:10026000330500083305000833050008330500088E
:1002700033050008330500083305000800000000BE
:10028000330500083305000833050008330500086E
:1002900000000000330500083305000800000000DE
:1002A000000000003305000833050008330500088E
:1002B0003305000833050008330500085D360008E3
:1002C0006936000879A700083305000800F002F835
:1002D00000F0B2F80AA090E8000C82448344AAF12E
:1002E0000107DA4501D100F0A7F8AFF2090EBAE82C
:1002F0000F0013F0010F18BFFB1A43F0010318475A
:1003000004B2040044B204000A444FF0000C10F898
:10031000013B13F0070408BF10F8014B1D1108BF83
:1003200010F8015B641E05D010F8016B641E01F823
:10033000016BF9D113F0080F1EBF10F8014BAD1C73
:100340000C1B09D16D1E58BF01F801CBFAD505E091
:1003500014F8016B01F8016B6D1EF9D59142D6D3EB
:10036000704700000023002400250026103A28BF13
:1003700078C1FBD8520728BF30C148BF0B60704717
:100380006E2900F09385702900F0638266292DF0B4
:10039000018565292DF0FE8467292DF0FB846129F4
:1003A0002DF0FA8403681B0A28BF41F080016929F7
:1003B00000F0D481642900F0D181752900F0CE814C
:1003C0006F2901F08E80782900F02F82E92901F051
:1003D0002980E42901F02680F52901F02380EF2906
:1003E00001F08B80F82900F02E820368DB0928BF1A
:1003F00041F08001632900F0AA87732900F0AF87DC
:10040000E32901F0F982F32901F0FE820020704710
:100410001FB52DF050FC01F0D5F80400002000219C
:100420002DF032FB401C6060002000212DF016FBF7
:10043000E0601FBD10B510BD01F0B6FB1146FFF71F
:10044000E7FF23F07FFB01F02FFE03B4FFF7F2FF7D
:1004500003BC00F0ABFC00002C4B19680868B0E846
:10046000F04F80F30988BFF36F8F4FF0000080F3E7
:10047000118870470000000008480068006880F399
:1004800008884FF0000080F3148862B661B6BFF3AD
:100490004F8FBFF36F8F00DF00BF00BF08ED00E09C
:1004A000DFF80C00016841F470010160704700BF83
:1004B00088ED00E0EFF30980BFF36F8F134B1A68EC
:1004C0001EF0100F08BF20ED108A20E9F04F1060D9
:1004D00009B44FF0500080F31188BFF34F8FBFF382
:1004E0006F8F2CF0B7FF4FF0000080F3118809BC2C
:1004F00019680868B0E8F04F1EF0100F08BFB0ECA4
:10050000108A80F30988BFF36F8F7047DC000124E5
:10051000EFF305807047000009488047094800470D
:10052000FEE7FEE7FEE7FEE7FEE7FEE7FEE7FEE7A3
:10053000FEE7FEE704480549054A064B7047000000
:10054000B9A60008CD02000850B8022450BE02240B
:1005500050BA022450BA022400487047F0B702246F
:1005600053EA020C00F069802DE9F04B4FF00006D1
:10057000002B1FBFB3FA83F503FA05F424FA05F63E
:100580005E4012BF1643B2FA82F502FA05F4C5F1D5
:1005900020051EBF22FA05FC44EA0C04203556EA69
:1005A000044C4FEA144418BF641C4FF000084FF08D
:1005B0000009904271EB030C39D3002919BFB1FA3D
:1005C00081F701FA07F6B0FA80F700FA07F6C7F1EB
:1005D00020071EBF20FA07FC46EA0C062037B6FBB0
:1005E000F4FCA7EB0507103F07F01F0BCBF120062B
:1005F0000CFA0BFB2CFA06F644BFB3460026202F5C
:10060000A4BF5E464FF0000B5BEA060C08BF4FF03C
:10061000010B19EB0B09ABFB027C48EB0608C01B76
:1006200006FB02CC0BFB03CC71EB0C01C1E70B46C4
:10063000024641464846BDE8F08B13B54FF0000036
:100640004FF00001AFF30080BDE81C407047000090
:100650007CB51D4616460C00009001D02044401E7B
:10066000074B7B442A4669460190304600F045FE20
:1006700005461CB10020694600F052FE28467CBDAC
:10068000C50C00000FB47CB50C0009AA009001D085
:100690002044401E084B7B4469460190089800F0B6
:1006A0002CFE05461CB10020694600F039FE2846A4
:1006B0007CBC5DF814FB0000910C000070B5044692
:1006C00085690068C10601D5302600E02026C007F4
:1006D00007D070BDD4E9012130469047206A401C04
:1006E00020626D1EF6D570BD70B504468569007830
:1006F000C00707D170BDD4E9012120209047206AAE
:10070000401C20626D1EF6D570BD70B50C460546C6
:10071000012A05D02878800600D5EA69002302E086
:10072000012305E05B1C934202D2E05C0028F9D172
:10073000A869E618C01AA861286A184428622846E1
:10074000FFF7BCFF04E0D5E9012114F8010B904745
:10075000B442F8D32846FFF7C7FF70BD2DE9F0413A
:100760000646002410687529314616A510D000F001
:1007700032FB002802DA404213A507E031688A07FD
:1007800001D512A502E0490704D511A5012401E015
:1007900000F02AFB00210A2206F1240709E0B0FB41
:1007A000F2FCB0FBF2F302FB1C0030307854184628
:1007B000491C0028F3D123462A463046BDE8F041C3
:1007C00000F01BBB000000002D0000002B0000000B
:1007D00020000000F0B40D460188090502D5214C27
:1007E0007C4402E01F4C7C440E34002100F12406BE
:1007F00008E002F00F071209E75D42EA03721B09E5
:100800007754491C52EA0307F3D1027800231207F8
:1008100004D5702D06D009B1022311342246F0BC54
:1008200000F0EBBA01231034F8E770B504460D462A
:100830002146106800F0D8FA024629462046BDE855
:1008400070400023C6E7D21D22F00703D3E900233E
:10085000C0E70368126843F0200303600823C36104
:100860000023B7E7E8A204002DE9F05F89460446BB
:100870004FF0000ADFF874B1FB44C0F820A0204616
:10088000E1688847002874D0252806D0D4E90121E2
:100890009047206A401C2062F1E700265F46204610
:1008A000E16888472028054607DB312D05D27819F5
:1008B00010F8200C08B10643F1E7B00701D526F087
:1008C0000406C4F81CA00027C4F818A02A2D09D0DB
:1008D00028460BF0ADFF38B304EB8708303DC8F86D
:1008E000185019E059F8041B204604EB8702916167
:1008F000E1688847012F054618D1E069002820DA11
:1009000026F020061DE0D8F8180000EB800005EB6B
:1009100040003038C8F818002046E168884705468E
:100920000BF086FF0028EED1012F0AD02E2D08D122
:100930002046E16888477F1C0546022F46F02006C6
:10094000C4DBA069002803DA404246F00106A0613A
:10095000F00701D026F010066C2D0BD0682D09D0C1
:100960004C2D39D06A2D35D0742D35D07A2D33D019
:1009700016E038E0E1682F4620468847B842054631
:1009800009D16C2F26D04FF48060E16806432046E1
:100990008847054604E06C2F1AD04FF48070064358
:1009A0000DB3A5F14100192802D8203546F40066A0
:1009B0004A462946204626604E46FFF7E1FC80B1B4
:1009C00001280BD0F61D26F0070000F1080956E7B4
:1009D0004020E4E78020D8E70020D6E706F10409AC
:1009E0004DE7284652E7206ABDE8F09F78A2040050
:1009F00010B5002000F0DEFDFFF71CFDBDE8104043
:100A0000012000F0D3B9401ECAB210F8011F8A427B
:100A100002D00029F9D10020704740EA01030246C4
:100A200030B59B0710D14FF0013400E008C208C96F
:100A30001D1B9D4315EAC41FF8D013F0FF0102F8F7
:100A4000011B0DD01B0AF8E711F8013B002B02F83F
:100A5000013B05D011F8013B002B02F8013BF3D11B
:100A600030BD10B5431C02E010F8011B71B18107C5
:100A7000FAD14FF0013202C88C1A8C4314EAC21129
:100A8000F9D0C01A0A0603D0C01E10BDC01A10BD8E
:100A90000A0401D0801E10BD0902FCD0401E10BD0A
:100AA000CBB22AB101788B4203D0401C521EF9D13F
:100AB0000020704740EA010370B59B072ED14FF02C
:100AC0000136042A2AD308C810C99D1B9D43121F52
:100AD00015EAC61517D0D8B2E1B2401A50EA05613E
:100AE00010D198B2A1B2401A50EA05410AD123F0C0
:100AF0007F4024F07F41401A50EA052102D1180EB0
:100B0000A0EB146070BDA342DBD018BA21BA8842B2
:100B100001D9012070BD4FF0FF3070BD0AB900202F
:100B200070BD10F8013B11F8014B63B1A3420AD12B
:100B3000521E08D010F8013B11F8014B1BB1A34223
:100B400001D1521EEDD1181B70BD032A40F2308036
:100B500010F0030C00F0158011F8013BBCF1020FFE
:100B6000624498BF11F801CB00F8013B38BF11F87F
:100B7000013BA2F1040298BF00F801CB38BF00F896
:100B8000013B11F0030300F02580083AC0F0088013
:100B900051F8043B083A51F804CBA0E80810F5E7F7
:100BA000121D5CBF51F8043B40F8043BAFF30080DA
:100BB000D20724BF11F8013B11F801CB48BF11F84F
:100BC000012B24BF00F8013B00F801CB48BF00F81F
:100BD000012B704710B5203AC0F00B80B1E81850D7
:100BE000203AA0E81850B1E81850A0E81850BFF417
:100BF000F5AF5FEA027C24BFB1E81850A0E81850B6
:100C000044BF18C918C0BDE810405FEA827C24BF09
:100C100051F8043B40F8043B08BF7047D20728BF97
:100C200031F8023B48BF11F8012B28BF20F8023BE6
:100C300048BF00F8012B704702F0FF0343EA03228C
:100C400042EA024200F002B84FF000020429C0F06C
:100C5000128010F0030C00F01B80CCF1040CBCF1EE
:100C6000020F18BF00F8012BA8BF20F8022BA1EB40
:100C70000C0100F00DB85FEAC17C24BF00F8012B25
:100C800000F8012B48BF00F8012B70474FF000021D
:100C900000B5134694469646203922BFA0E80C5072
:100CA000A0E80C50B1F12001BFF4F7AF090728BF4D
:100CB000A0E80C5048BF0CC05DF804EB890028BFC9
:100CC00040F8042B08BF704748BF20F8022B11F0F2
:100CD000804F18BF00F8012B704700004FF0013C17
:100CE00050F8042B51F8043B9A4215D1A2EB0C03A7
:100CF000934313EACC130BD150F8042B51F8043B67
:100D00009A4209D1A2EB0C03934313EACC13E7D028
:100D10004FF00000704700BFD01A01BAB1FA81F15C
:100D200001F0180122FA01F0CB40C1F12001DBB241
:100D3000C0B2C01A2CFA01F3D11A914311EAC311BF
:100D4000E6D17047704770477047A0E8004FF0C089
:100D500040F804DB01B5AFF30080BDE8024001C1FB
:100D60000020A1EC068BA1EC02BBA1EC06CBA1EC10
:100D700002FB704700F12C080C46B8EC068BB8EC6F
:100D800002BBB8EC06CBB8EC02FB00F12C0858F81B
:100D9000040DAFF3008058F8040D8546200008BF0D
:100DA000012038E9F00018E9004F70470149182088
:100DB000ABBEFEE72600020000487047F0B70224F1
:100DC00010B5FFF7C9FB006810BD10B50446FFF76A
:100DD000C3FB046010BD09684A0501D540B27047E5
:100DE000C905FCD500B2704709684A0501D5C0B2F3
:100DF0007047C905FCD580B270472DE9F0470D4614
:100E000099469246044600F124080168880604D5F4
:100E1000E06921F01001216000E00120A84201DD1D
:100E2000471B00E00027A1697A1902EB0900081AA4
:100E3000A0612078C00602D42046FFF73FFC0026C0
:100E400008E0D4E901211AF806009047206A401C06
:100E5000761C20624E45F4DB2078C0060AD5204679
:100E6000FFF72CFC06E0D4E9012130209047206AEE
:100E7000401C2062381EA7F10107F4DC07E0D4E92A
:100E8000012118F805009047206A401C2062281EA6
:100E9000A5F10105F3DC2046FFF726FC20780006CB
:100EA00002D50220BDE8F0870120FBE71168026847
:100EB000006A530501D508700AE0D30501D5088002
:100EC00006E0130603D5C217C1E9000200E008607E
:100ED0000120704770472DE9FF4F0C461E464FF02A
:100EE000FF378BB0D2E90001DDF860800A908A46B6
:100EF000C1F30A5505B93D46002108464FF00000F0
:100F0000BAF1000F00F4400005DA00EB80004FF466
:100F1000400101EA50004FEA9059B9F1010F00DD9C
:100F2000B9460A9850EA4A000ED044F61050A5F28D
:100F3000FF3545432F14B8F1000F1ED07542291E0E
:100F40001EDDC9F100021CE0B8F1010F4FF00000F6
:100F500001D0302103E0F24305E02154401CB042AF
:100F6000FBDB30460022002121540B99C1F8088098
:100F7000C1E900200FB0BDE8F08FBD1B6D1CDEE79E
:100F80004A4600DA694206A800F062FD06AB93E823
:100F9000070003AB83E8070050460A9901F0F9FA0D
:100FA0008DE80700A0F500501F3800900398002D31
:100FB00009DD42F21F014A46084403A9039068462E
:100FC00001F083FD08E0A0F500504A461F3803A950
:100FD0000390684601F0A1FD8DE807000004000CB5
:100FE00003D04FF0FF30410800E01046B8F1000F89
:100FF00003D00022009215461EE0751E05D400F0B5
:10100000E5FA303262556D1EF9D5B3460122084328
:1010100002D000227F1C04E02078302801D1002279
:101020007F1E002A099786D01DE0112D07DA00F0F7
:10103000CDFA303262556D1C50EA0102F5D10843F9
:1010400002D00098C8B10EE00021681E05E0235CC4
:10105000625C63542254401E491C8142F7DBAB465C
:10106000A81B401E0990002004F80B000B98099A59
:10107000C0F80880C0E9002B7CE711264FF000087B
:1010800059E72DE9F04F88460446D21D22F00701AA
:1010900091B0D1E90001CDE90A010BF092F90246C5
:1010A0000B98C00F01D02D2007E02068810701D5E3
:1010B0002B2002E0202101EAC000032A099001D080
:1010C000072A05DB03464146204600F04BFC0BE1B6
:1010D0002078800601D5E06900E00620B8F1650FB0
:1010E000814606D0B8F1660F18D0B8F1670F70D1FD
:1010F00031E00020B9F1110F009001DB112301E074
:1011000009F101030AAA01A90CA8FFF7E4FEDDE931
:101110000C70002609F10105834647E001204B468B
:1011200000904FF000470AAA01A90CA8FFF7D3FED0
:10113000DDE90DB00C995D46002610B909F10100FA
:101140000D18B9EB050003D4C0F1FF3609F1010514
:10115000A5EB09002BE0B9F1010F01DA4FF001090D
:101160000020B9F1110F0090484601DD112300E085
:1011700003460AAA01A90CA8FFF7ADFEDDE90C7031
:101180004D4600268346207800070AD4AB4500DA96
:101190005D4601A8012D04DD411911F8011C30291B
:1011A00007D04F4502DA17F1040F04DA0120824616
:1011B0000FE06D1EEEE7002F02DCED1B3E4403E066
:1011C000781CA84200DD7D1CB81B00F1010A4FF01D
:1011D00000472078000703D4AA4501DB4FF0FF3A0F
:1011E0000021B7F1004F0DF143088DF8431024D0D2
:1011F00002202B23002F01DA7F422D230A21021E19
:10120000A0F1010000DC5FB197FBF1FC97FBF1F26C
:1012100001FB1C7C17460CF1300C08F801CDEEE701
:10122000A8F1010003702188090501D5452100E0DE
:101230006521A0F1010800F8011C09980FA9A1EB94
:101240000807FF1D00B10120411901EBEA70A169F7
:101250003844081A401EA0612078C00602D42046F7
:10126000FFF72CFA099828B1D4E901219047206AA8
:10127000401C20622078C00622D52046FFF71EFAC7
:101280001EE0002E04DBB34502DD01A8805D00E016
:101290003020D4E901219047206A401C2062761C4E
:1012A000AAF101005FEA000A0AD100F08BF9C068D8
:1012B0000168405CD4E901219047206A401C20620B
:1012C000281EA5F10105DCDC07E0D4E9012118F8AE
:1012D000010B9047206A401C2062381EA7F10107CD
:1012E000F3DC2046FFF700FA032011B043E60000CC
:1012F00001694A1C02610878704700B58FB0CDE9DA
:1013000001310021059105497944CDE903101146C9
:101310006846FFF7A9FA0FB000BD0000E5FFFFFF28
:101320000A6802F8010B0A607047D1E900239A426B
:1013300002D2531C0B601070704710B5436913B193
:10134000AFF3008001E0FFF7E0F9012010BD127853
:1013500000F124010A7000224A700122EDE71168B1
:101360004FF0FF32E9E700002DE9FF5F15468A469E
:101370000446DFF8AC80F8440027D8E900103E4668
:10138000CDE9001010E03AF816106A4602A800F005
:10139000CDFB411C07D02178890603D5E2693918B5
:1013A00091420DD80744761C2078800602D5E0696A
:1013B000B84205DDAE42E6DB3AF816000028E2D17D
:1013C000A069C01BA0612046FFF778F9D8E900109A
:1013D000CDE90010002017E03AF818106A4602A87C
:1013E00000F0A4FBB0F1FF3F81460BD000250DF1CA
:1013F000080B05E0D4E901211BF8050090476D1C9E
:101400004D45F7D308F10100B0428046E4DB206A85
:10141000384420622046FFF767F9BDE8FF9F0000CF
:101420008E9704002DE9F0418046D21D22F007027C
:101430000025D2E90002F52915A614D0011E72F18B
:10144000000106DA0023D0EB030063EB020211A6D1
:1014500008E0D8F800108B0701D50FA602E0490775
:1014600001D50EA601251146002408F1240704E049
:1014700000F0ACF830323A55641C50EA0102F7D162
:101480002B46324621464046BDE8F041FFF7B5BC49
:10149000000000002D0000002B00000020000000D4
:1014A00030B4002100F1240408E002F00705D2085E
:1014B000303542EA4372DB086554491C52EA0305A1
:1014C000F3D10468002310A2250707D5A40600D491
:1014D00021B1C46901230DA2641EC46130BCFFF7B1
:1014E0008CBC10B5044621461068FFF77DFC02460F
:1014F0002046BDE810400023D2E7D21D22F00701AC
:10150000D1E90023CCE7000000000000300000001B
:101510000FB4002300B589B00CA900910B99CB60E2
:10152000214B7B440693214B7B44079304236FF0AC
:101530000042CDE901321E4A7A446B4608920246C7
:1015400000202CF08BFC09B05DF814FB70B506464A
:101550004FF0FF3015460C46324686B00091CDE97B
:10156000010169460020049004A8FFF7D1FF02465C
:101570000498211825B108B1084600E020462860EB
:10158000049800280DD0002A02DD0098884208D077
:101590003246081B69460094CDE9010404A8FFF710
:1015A000B7FF06B070BD0000EB04000003050000AB
:1015B0001B01000010B500F0DFFABDE8104000F09C
:1015C000D5BA70470048704710B8022430B5B0F162
:1015D0000A024FEA900E71F100034EEA817EB0EBF1
:1015E0000E0061EB91014FEA101E4EEA017E10EBF6
:1015F0000E0041EB11114FEA102E4EEA016E10EB76
:101600000E0041EB11214FEA104E4EEA014E10EB55
:101610000E0041EB1141401841F100014FEAD000AA
:1016200040EA41704FEAD10110EB80054FEA810496
:1016300044EA907444EB01046D1944EB0404521B1A
:10164000A3414FF0000348BF0A3200D530BD401C13
:1016500041F1000130BD10B5044600F0CBFA00683E
:10166000005D00F0010010BD2DE9F04F04460D466D
:10167000D21D22F0070089B0D0E9009748463946CC
:101680000AF09FFE0246F80F01D02D2307E02068E4
:10169000810701D52B2302E0202101EAC0038DF848
:1016A00020300BB1012000E00020032A824601D047
:1016B000072A04DB2946204600F054F93FE1207850
:1016C000800601D40D2500E0E569C7F30A560D2D0B
:1016D00049DA00214FEA175B08464FF00000002F5F
:1016E00000F4400007DA00EB80004FF4400100EB0B
:1016F000D07001EA60008115012901DD4FF0FF3152
:1017000000224FEA850CBCF1180F06D31346ACF14A
:1017100018004FF08052C24003E04FF4801323FAC8
:101720000CF30CF10C0CBCF1200F04D3ACF1200C29
:1017300009FA0CF001E007FA0CF000294FF000481C
:1017400001DD18B90FE00ED140450CD319EB0209A9
:101750005F4121B9404502D19F4329EA0209BBEB11
:10176000175F00D0761C2088000502D57B4878449E
:1017700002E07A487844193808AA302302F80A307F
:10178000037C0AF10101002E0AF1020A53546A4651
:1017900002DC4FF0300101E04FF031014FF0010861
:1017A0008DF8001002D0A6F2FF3603E059EA470197
:1017B00000D06B4E002D02DC2178090704D54FF0D4
:1017C00002082E218DF80110C44600210BE0C7F35A
:1017D00003433F01C35C491C6D1E02F80830052914
:1017E00008F1010801DA002DF1DC00210CE000EB2A
:1017F0001973491C1B786D1E082902F808304FEA3E
:10180000091908F1010801DA002DF0DC21688B06C6
:1018100002D516E0A8F10108E04505DD02EB08035A
:1018200013F8013C302BF5D0B8F1000F09DD02EBC5
:10183000080313F8013C2E2B03D1090701D4A8F1AA
:101840000108002D05DD3E2102F808106D1E08F18B
:101850000108407C002E02F8080008F1010804DAB3
:101860002D20764202F8080002E02B2002F8080042
:101870000A214FF47A70864208F101080BDB96FBCF
:10188000F0F3303302F8083096FBF0F308F101086A
:1018900000FB136601E0642E0CDB642096FBF0F382
:1018A000303302F8083096FBF0F308F1010800FB32
:1018B000136601E00A2E06DB96FBF1F0303002F8E9
:1018C000080008F1010896FBF1F001FB10603030D0
:1018D00002F80800A16908F1010808EB050202EB13
:1018E0000A00081AA0612078C00602D42046FEF73C
:1018F000E5FE216A08AE01EB0A00206204E0D4E9AB
:10190000012116F8010B9047BAF1010AF7D22078AD
:10191000C00602D52046FEF7D1FE6E4609E016F855
:10192000010B3E280FD0D4E901219047206A401CCA
:101930002062B8F10108F2D22046FEF7D5FE09B0C8
:101940000320BDE8F08F206A2844206203E0D4E938
:101950000121302090476D1EEBD3F8E7B1930400CE
:1019600002FCFFFF2DE9F0411F46044603260168F3
:10197000072A01F4006004DB08B116A505E016A5EE
:1019800003E008B115A500E015A521F010002060C6
:10199000A069C01EA0610FB1401EA0612046FEF7E5
:1019A0008DFE4FB1D4E9012138469047206A401C92
:1019B0002062C01C206206E0206AFAE7D4E9012117
:1019C00015F8010B9047761EF8D22046FEF78CFEE4
:1019D000BDE8F0814E414E006E616E00494E4600FA
:1019E000696E660010B5436913B1AFF3008001E082
:1019F000FFF7BAFC012010BD128800F12401828497
:101A00000022C2840122EDE711684FF0FF32E9E7BE
:101A1000426842B1016811F8013B23B1521EC0E98E
:101A20000012184670470121C160881E7047426845
:101A30005AB1C368016843B983688B4205D0491E17
:101A4000521CC0E90012002070474FF0FF30704771
:101A50002DE9F047814616468AB0334878440DC8D0
:101A60008DE80D0030487844801C03AC0DC884E834
:101A70000D0041F69B300844372190FBF1F290FBBA
:101A8000F1F5A5F1800501FB12041B3C02D564426F
:101A9000012000E00020DFF890A080460027FA44F3
:101AA000AAF1BE0A0DE0E00709D03246684607EB0E
:101AB00047010AEB810101F030F88DE8070064105E
:101AC0007F1C002CEFD1184F7F44AC3F18E0E80793
:101AD00014D007EB04100DF1180A90E80E008AE804
:101AE0000E00C068F04201D198190890324606A94C
:101AF00003A801F012F803AB83E807006D10641C23
:101B0000002DE4D132466946B8F1000F03A802D097
:101B100000F0DBFF01E001F000F8C9E90001C9F8BD
:101B200008200AB0BDE8F0875491040070B516464D
:101B30000C46054600F05EF8036893F801010128A1
:101B400006D0FF2C0FD8185D68B101202C7070BD35
:101B5000D3F807013246214603F20713034428460F
:101B6000BDE8704018474FF0FF3070BD002801D02D
:101B7000FFF71CB97047000010B5002102A000F06B
:101B80009CFA012010BD0000534947414252543A8B
:101B90002041626E6F726D616C207465726D696E4A
:101BA0006174696F6E0000007546FFF705F9AE4677
:101BB00005006946534620F00700854618B020B559
:101BC000FEF7B8FCBDE820404FF000064FF00007DC
:101BD0004FF000084FF0000B21F00701AC46ACE8D5
:101BE000C009ACE8C009ACE8C009ACE8C0098D4642
:101BF0007047000010B5FFF7E5FC001D10BD00BFE9
:101C000089BE02002DE9FF4F064689B00878FF28FB
:101C100006D0491C2D2805D000244FF0000908E00B
:101C200000200CE00124F8E709EB8903491C00EBD4
:101C300043090878FF28F7D114B1C9F100008146A3
:101C4000107800252C46AA4629462D2801D02B289D
:101C500004D1521C2D2813D0002082468B461078C8
:101C6000FF280FD04FF0000C0A21521CA5FB017871
:101C700004FB018105FB0C11C5194BEB0104EEE7D8
:101C80000120EAE7002108464FF00000BAF1000FFA
:101C900002D000EB80004008C0F38158B8F1010F7A
:101CA00001DD4FF0FF380C9809EB000755EA0400FE
:101CB00009D04FF0020917F5FA7F0BDA4FEACA7024
:101CC000C6E900B012E04FEACA70C6E900B00DB034
:101CD000BDE8F08FB7F5FA7F0DDDF0487844D0E924
:101CE0000010C6E9001040EACA707060FEF734FCCC
:101CF000C0F80090EBE7391E02DAC8F1000200E0FC
:101D0000424600DA794206A8FFF7A2FE06AB93E846
:101D1000070003AB83E8070044F23E005BEA0401DE
:101D20000090584604D144F21E012C465D460091B5
:101D3000210C0904014306D10099240444EA154406
:101D40002D041039009104F07F41014306D1009920
:101D5000240244EA15642D020839009104F0704110
:101D6000014306D10099240144EA15742D01091F8D
:101D7000009104F04041014306D10099A40044EAD7
:101D80009574AD00891E009104F00041084304D110
:101D900000986D196441401E009042466846002F2D
:101DA000CDE9014503A902DD00F0CBFE01E000F022
:101DB000A0FEBAF1000F04460D4601D084F00044A5
:101DC00040F2FF7724F00040284303D0C4F30A50C8
:101DD000B84212D1FEF7C0FBC0F80090C4F30A501D
:101DE000B8420AD1AE487844D0E90010C6E90010E4
:101DF00004F000410843706069E7C6E9005466E7F3
:101E00002DE9FF4F1F464FF0000A4FF0FF384546BF
:101E100091B0D7E90146CDF83CA0FFF7D3FBC068ED
:101E20000168405C1090B96912986D1C8847396A46
:101E3000814688470028F6D1B9F1FF3F0AD0002E2D
:101E400024F4D06411DDB9F12B0F08D0B9F12D0FB6
:101E50000BD102E0404615B03AE744F48064B9691A
:101E600012986D1C8847761E8146600504A901D52D
:101E70002D2000E02B20002E01F1010B0DF1300888
:101E80008DF810003FDDB9F1690F08D0B9F1490FA5
:101E900005D0B9F16E0F02D0B9F14E0F1CD13B46FF
:101EA00001A8009580E85002DDE912126FF00200EF
:101EB0002BF0D8FFC11CCED10EE0B96912986D1C71
:101EC000884781461398761E44F4007405600F9885
:101ED000401C002E0F9016DDB9F1300FEDD0B9F196
:101EE000780F02D0B9F1580F0DD10F9801280AD1FF
:101EF0003B46CDE90054DDE91212001F02962BF09B
:101F0000AFFFC11CA7D1109989453ED144F0800490
:101F100006E01399681CAAF1010A44F400740860F1
:101F2000B9696D1C1298761E884730288146F0D01A
:101F30002BE01099894505D1200603D4761E44F084
:101F4000800418E048460AF073FC08B3761E0DF1D1
:101F500023018B4544F4007408D2A9F130000BF83A
:101F6000010B200607D5AAF1010003E0200602D4E8
:101F70000AF101008246A00502D51399681C086089
:101F8000B96912986D1C88478146002ED1DC53E058
:101F9000002E51DDB9F1650F02D0B9F1450F4BD1DB
:101FA000A00549D5B9696D1C1298761E24F44074B9
:101FB0008847002E81460CDD2B2804D0B9F12D0F67
:101FC00007D144F48074B96912986D1C8847761E55
:101FD0008146E00501D52D2100E02B2108F8011BE9
:101FE000CDF8008021E0761E0DF13901884544F4DA
:101FF00000740CD2A9F1300010F0FF0088F8000046
:1020000002D10099884509D908F1010806E0E005E8
:1020100001D5244801E042F20F708246B969129856
:102020006D1C8847814613980560002E04DD4846E4
:102030000AF0FEFB0028D6D1F96912988847FF20E4
:1020400053468BF8000088F8000000200A900B909F
:1020500004AA0CA90AA8FFF7D5FDA00502D46FF0C9
:102060000100F8E614F0240F0AD0E00714D1386814
:10207000DDE90A12031D3B600068C0E900120BE0B5
:102080000AA968460AF024FBE00705D13868009ADF
:10209000011D3960006802602846DCE6649804008F
:1020A0005A970400F1D8FFFF10B50446AFF3008043
:1020B0002046BDE81040FEF7C8B970B505460C468D
:1020C0000A2000E06D1C00F011F835B128780028D6
:1020D000F8D102E0641C00F009F814B1207800285F
:1020E000F8D1BDE870400A20AFF3008008B569461A
:1020F0008DF800000320ABBE08BD00002DE9FF4FA6
:102100001F464FF03C0987B04FF00042DDE9141044
:1021100001F10108DDF858A002EA405003900020C8
:1021200005908346054604460490B969461E089802
:102130008847AAF1010A0290BAF1000F3BDD02982C
:102140002E2815D0102100F016FA00282EDB4FF0B3
:10215000010B0599014317D0B9F1000F0BDB4A467B
:10216000C11700F0F5F905430C43A9F1040905E096
:10217000012004900BE008B145F001050120059015
:10218000049820B9361D02E0049800B1361FB969E1
:10219000089808F101088847BBF1000FAAF1010A6D
:1021A0000290C9D00999C1F80080C5E7029870284B
:1021B00008D0502806D0F96908988847BBF1000F6D
:1021C00014D04FE0002002900120BBF1000F0490DA
:1021D00009D0B969089808F101088847AAF10109EE
:1021E000B9F1000F07DCF969089888476FF0010022
:1021F0000BB0BDE8F08F2B2804D02D280CD14FF068
:10220000FF300490B969089808F101088847A9F1DE
:102210000109B9F1000FE6DD411CE4D00A2100F00C
:10222000AAF90028DFDB029908F1010801EB81011E
:1022300000EB41000290B969089888470A2100F034
:102240009AF9099AA9F10109B9F1000FC2F80080C1
:1022500001DD0028E7DAF9690898884704990298AF
:1022600000FB016655EA040004D004F04041090077
:1022700002D006E0039898E0A40044EA9574AD000B
:10228000B61E04F00041080002D16D196441761EAB
:10229000159810F0240F03D04FF00B095C4803E0B1
:1022A0004FF028096FF07D008246564507DAAAEB09
:1022B00006018944B9F1410F01DD4FF041090120C8
:1022C0000021A9F1010200F043F9024628400B4623
:1022D0002140084301D0012100E00021501E02915D
:1022E00043F1FF3128402140084301D0012000E0A4
:1022F00000200299834651EA0B014FD00021084685
:102300004FF00000039900F4400039B100EB800069
:102310004FF4400100EBD07001EA60008015012805
:1023200002DD4FF0FF3000E013D0401C36D00298A1
:1023300060B3BBF1000F0CD14A460120002100F030
:1023400007F928402140084301D0012000E0002087
:10235000E0B101204A46002100F0FAF80346401996
:102360000A4661412D1A8C4111D3B9F1400F09DDA4
:10237000159810F0240F02D0AAF1340603E0AAF158
:10238000170600E0761C00254FF0004406E05B1EB7
:1023900042F1FF3220EA030521EA0204CAF10100FA
:1023A000B04206DA1B4903980843019000200090D0
:1023B0000EE0039AC4F3D321E80A0A43164940EA1F
:1023C00044500A433146CDE9000268460AF0D4F988
:1023D000159810F0240F0BD01598C00715D1386848
:1023E000DDE90012031D3B600068C0E900120CE04B
:1023F00002A869460AF06CF91598C00705D138683B
:10240000029A011D3960006802604046F0E6000053
:1024100002FCFFFF0000F07F0000F03F2DE9FF4FBE
:1024200092461D4685B04FF00041DDE9124BDDE9D3
:1024300014727F1E01EA4B50414940F0FF4940EAC7
:102440000108002122F020004928049102D04E28E2
:1024500028D04CE03BA0012607C88DE80700A969F9
:102460000698641C88477F1E014606D41DF80600A6
:1024700018B121F0200181420BD0E9690698884704
:10248000032E34D0082E32D06FF0010009B0BDE821
:10249000F08F761C032E01D0082EE0D1601CCAF804
:1024A0000000DCE7A9690698641C88477F1E2AD4CF
:1024B00020F02000412826D1A9690698641C88478D
:1024C0007F1E20D420F020004E281CD1A969069838
:1024D000641C88477F1E48F4002849F48009CAF824
:1024E000004001D4282806D0E969069888475FEAA9
:1024F000CB7012D022E0A9690698641C88477F1E21
:1025000001D4002803DAE96906988847BCE729283E
:10251000F1D1641CCAF80040E9E71BF0240F07D092
:1025200028680499031D2B600068C0E9001805E0C5
:102530002868021D2A600068C0F800902046A5E7C0
:102540000000F07F494E46494E49545900000000B2
:10255000B2F120030AD5C2F1200301FA02F120FAF8
:1025600003F300FA02F041EA0301704700FA03F1B5
:102570004FF0000070473A2800D2303820F0200297
:10258000412A01D3A2F13700884201D34FF0FF3036
:1025900070475FEA400C08BF91F0000F4FEA8C23B0
:1025A0004FEAC12243EA51514FEA1C5018BF00F5CF
:1025B000F0404FEA300018BF41F000415FEA6C5C28
:1025C00000F02980BCF1FF3F08BF40F08040704719
:1025D000130C06BF12044FF0100C4FF0000C130E3A
:1025E00004BF12020CF1080C130F04BF12010CF10E
:1025F000040C930F04BF92000CF1020CD30F04BF24
:1026000052000CF1010C11464FF00002A0F11F0026
:10261000A0EB0C00704711F0004F08BF704731F07D
:1026200000413FF4D5AF0B0C06BF09044FF0100C6E
:102630004FF0000C0B0E04BF09020CF1080C0B0F3D
:1026400004BF09010CF1040C8B0F04BF89000CF1CD
:10265000020CCB0F04BF49000CF1010CCCF120039C
:10266000A0EB0C0022FA03F302FA0CF241EA030198
:1026700000F10100704720F07F4C80EA030023F056
:102680007F47ACEB070303F57C5300F0004003F1F8
:10269000FF032DE980494FEA154B09B44FEA144373
:1026A00025EA0B4E24EA03480FF2042606EB132713
:1026B00049083E785FEA320203FB0667C7F5000768
:1026C00007FB06F64FEA54374FEAD64606F10206F4
:1026D00007FB066CCCF1005C4FEA1C472CEA074C68
:1026E00007FB06F40CFB06F504EB15464FEA9616BD
:1026F00034BF00204FF000404FEAD13706FB07FC03
:102700004FEA1C4C0CFB0BF7D21B03FB0CF761EBE5
:1027100007010CFB0EF7B0EB074072EB17420CFB06
:1027200008F734BFA2EB0742B2EB074261EB174157
:102730004FEA0C444FEA910706FB07FC4FEA1C4C9A
:102740000CFB0BF7B0EBC74072EB573203FB0CF7F7
:1027500034BFA2EBC742B2EBC74261EB57310CFB6F
:102760000EF7B0EBC70072EB57720CFB08F734BFE3
:10277000A2EBC702B2EBC70261EB5771039F4FEAAE
:10278000816141EA921104EBCC044FEAD1374FEA60
:10279000826206FB07FC42EA90124FEA80604FEA31
:1027A0001C4C0CFB0BF7D21B03FB0CF761EB070176
:1027B0000CFB0EF7B0EB074072EB17420CFB08F76F
:1027C00034BFA2EB0742B2EB074261EB17414FEA7D
:1027D0008C554FEA910704EB9C2406FB07FC4FEA5B
:1027E0001C4C0CFB0BF7B0EBC74072EB573203FBF2
:1027F0000CF734BFA2EBC742B2EBC74261EB5731D3
:102800000CFB0EF7B0EBC70072EB57720CFB08F72E
:1028100034BFA2EBC702B2EBC70261EB577115EBF5
:102820004C254FEA816141EA92114FEA82624FEAF8
:10283000D13742EA901206FB07FC44F100044FEA4C
:1028400080604FEA1C4C0CFB0BF7D21B03FB0CF710
:1028500061EB07010CFB0EF7B0EB074072EB174280
:102860000CFB08F734BFA2EB0742B2EB074261EB67
:10287000174115EB1C154FEA813141EA92414FEAAD
:10288000823242EA90424FEA80304FEA0C7644F1BD
:10289000000448EA03434EEA0B484FF0000EB2EB47
:1028A000080C71EB030724BF624639464EEB0E0E4F
:1028B0004FF0000B0018524149414BEB0B0BB2EBB0
:1028C000080C71EB03077BF1000B24BF624639460D
:1028D0004EEB0E0E4FF0000B0018524149414BEBEE
:1028E0000B0BB2EB080C71EB03077BF1000B24BF61
:1028F000624639464EEB0E0E51EA020718BF46F00B
:10290000010616EB0E7655F1000254F1000103D5D5
:10291000BDE88901BDE80088BDE88901BDE800483F
:10292000B619524141EB0101A3F1010370478080C8
:102930007F7E7D7C7B7A7978777676757473727119
:1029400071706F6E6E6D6C6C6B6A6A6968686766D1
:1029500066656464636362616160605F5F5E5E5D63
:102960005D5C5C5B5B5A5A595958585757565655D7
:1029700055555454535352525251515050504F4F39
:102980004F4E4E4D4D4D4C4C4C4B4B4B4A4A4A4989
:1029900049494848484747474746464645454544CC
:1029A0004444444343434342424242414141000084
:1029B00046EA0646A3F570534FEA164646EA4256E3
:1029C0004FEAD22242EA415210B54FEAD121A3F197
:1029D000010300F017F820F0004000F1010C00F0B6
:1029E000004701EB00501146BCF5006F40EA0700BC
:1029F00000D210BD02484FF0000140EA070010BDB0
:102A00000000F07F002B26D4770021D01CB54FEAC0
:102A1000370703B44FF010004FF010014FF00000E3
:102A20000FBCBDE810400BF1010BBBF1010F08BF5B
:102A30005FEA170722BF12F1010211F101014FF005
:102A4000004143F1000300F0004043EA00007047FA
:102A5000F9D35708DAE746EA064613F1400F4FEA82
:102A600016461FDD13F1200FDFBF16430A46002173
:102A700020335B42C8D0C3F1200746EA064602FA7B
:102A800007F74FEA164646EA0706C3F1200722FA7F
:102A900003F201FA07F721FA03F14FF0000342EACB
:102AA0000702B1E746EA020646EA06464FEA16463C
:102AB00046EA0106BCBF46EA0646360C4FF0000364
:102AC0004FF000024FF000019EE72DE9C048934609
:102AD00030B491E8380007C831EA400C48BF34EA06
:102AE000430C03D5FFF7C7FDFFF78CFFF0BCBDE833
:102AF00000882DE9C048934630B491E8380007C8F3
:102B000031EA400C48BF34EA430C03D5FFF7B3FD6C
:102B1000FFF74EFFF0BCBDE800882DE9C0489346A2
:102B200030B491E8380007C810F0804F08BF13F0A8
:102B3000804F03D100F019F8FFF764FFF0BCBDE847
:102B400000882DE9C048934630B491E8380007C8A2
:102B500010F0804F08BF13F0804F03D100F005F84C
:102B6000FFF726FFF0BCBDE8008820F07F4780EA31
:102B7000030023F07F4C07EB0C03A3F57C5300F01C
:102B80000040A3F1FE0392F0000F00F0B38095F037
:102B9000000F00F077802DE901494FEA11404FEA1C
:102BA000144621EA004800FB06FC24EA064708FB1D
:102BB00006F607FB08F800FB07F718EB06484CEB96
:102BC000164C4FEA124B18EB07484FEA15464CEBF0
:102BD000174022EA0B4E0BFB06FC25EA06470EFBCC
:102BE00006F607FB0EFE0BFB07F71EEB064E4CEB43
:102BF000164C4FF000061EEB074E4CEB174B18EB34
:102C00000B0840F1000018EB0E0B58EB000840F1E8
:102C100000008F1A4FF000013CBFC943661B14BF70
:102C2000B5EB040C00213CBFC943F61B4FEA174427
:102C30004EEA8E0E27EA04454FEA1C4704FB076262
:102C40002CEA074C05FB07F70CFB05F604FB0CFC14
:102C500016EB074642EB174216EB0C4642EB1C42C2
:102C60001BEB060658EB0202414146EA9E0601D5DF
:102C7000BDE80189B619524141EB0101A3F10103FD
:102C8000BDE801894FEA14454FEA114724EA054699
:102C900021EA074C05FB07F406FB07F70CFB06F1DE
:102CA00005FB0CFC11EB074144EB17444FEA1247BC
:102CB00011EB0C4144EB1C4422EA074C05FB07F2E4
:102CC00006FB07F70CFB06F605FB0CFC16EB0746AC
:102CD00042EB174216EB0C4642EB1C456A1854F1C6
:102CE000000148BF7047B619524141EB0101A3F101
:102CF0000103704795F0000F37D04FEA11424FEAB9
:102D0000144721EA024624EA074C02FB07F106FBBE
:102D100007F70CFB06F402FB0CFC14EB074441EB39
:102D200017414FEA154714EB0C4441EB1C4125EACF
:102D3000074C02FB07F506FB07F70CFB06F602FB48
:102D40000CFC16EB074645EB174516EB0C4645EB1E
:102D50001C42121951F1000148BF7047B619524187
:102D600041EB0101A3F1010370474FEA14454FEA1B
:102D7000114724EA054621EA074C05FB07F106FB4B
:102D800007F70CFB06F24FF0000605FB0CFC12EBFC
:102D9000074241EB174112EB0C4251EB1C4148BF7B
:102DA0007047921841EB0101A3F101037047000045
:102DB00010B5324904460068884202D0304A904239
:102DC00002D1D1F8080302E02E48D0F8080310F42D
:102DD000403F10D005F0B0FB6168B1F5803F06D0F0
:102DE000B1F5003F03D0B1F5403F26D101E0090C19
:102DF00017E0800821E000214FF4002004F054FC8B
:102E000061688A03920B18D18A140C2A15D2DFE864
:102E100002F0140606060606060B0D0F1113890CA8
:102E20004900B0FBF1F008E0000906E0400904E0C9
:102E3000800902E0C00900E0000A13494008884206
:102E400004D82068816821F4407108E00F49884265
:102E500007D82068816821F4407141F48071816055
:102E600010BD0B4988422068816804D821F4407164
:102E700041F40071F3E741F44071F0E700200240B3
:102E80000021024000600258105E5F0020BCBE00BE
:102E900040787D012DE9F0410027044600680D4689
:102EA00006F00EFC0646206806F006FC30435DD0B6
:102EB00020682F4EC168890105D5617E012902D1A4
:102EC000217E01290BD0022D1DD0206806F0F8FBD1
:102ED000B8B120688168C1F3400169B111E02549AA
:102EE000012502E08F4232D27F1C0268D243520693
:102EF000F8D440210160E8E78168314041F01001D9
:102F00008160012D11D0206806F0D6FB48B1206801
:102F10008168C1F3400121B98168314041F020014D
:102F20008160022D08D0032D04D0042503F056FB48
:102F3000064617E00C25F9E70825F7E703F04EFBF6
:102F4000801B05280ED92068806828420AD0206E90
:102F500040F010002066606E40F0010060660120C5
:102F6000BDE8F081206880682842E7D10020F7E7BB
:102F7000C0FFFF7F00DC0C0070B50446006881686C
:102F80008268C1F3400112F0010F28D039BB81687B
:102F900001F00D01012914D18168124A1140891CE8
:102FA000816021680320086003F018FB054612E0E9
:102FB00003F014FB401B02280DD920688068C0076D
:102FC00009D0206E40F010002066606E40F00100D5
:102FD0006066012070BD20688068C007E8D10020CD
:102FE00070BD0000C0FFFF7F70B5044600688168B7
:102FF00011F0010F40D18168204A11422DD1816822
:10300000D5432940491C816003F0E8FA1C49064673
:1030100020681C4B884201D0984201D11A4A00E036
:103020001A4A9268984202F01F0200D0014681427B
:103030001DD0E2B120E0816811F0010F03D1816859
:103040002940491C816003F0C9FA801B02280ED96F
:1030500020680068C043C00709D0206E40F010000F
:103060002066606E40F001006066012070BD20683F
:103070000168C943C907DED1002070BD3F00008050
:103080000020024000210240002302400063025859
:1030900018F030B970B50C4605462AF035F80548E9
:1030A0000DB1816829600CB1C0682060BDE8704036
:1030B0002AF04AB8000001242DE9F0412AF024F852
:1030C000164C03F08BFA217C0022B9B125684FF42D
:1030D0007A73D4E90271461B2060B819514100256A
:1030E000C4E90201A0FB034201FB032100FB05151B
:1030F0002AF02AF820462946BDE8F0812060002108
:10310000C4E902024FF47A7301252574A0FB03453C
:1031100002FB035200FB0125EAE700001003012433
:103120000448C069002804D00023022219462AF06E
:1031300055BB704700000124FFF7BEBFFEE700202B
:10314000704700207047000005490022054810B56F
:1031500007F070FD0449034807F05FFD002010BD33
:10316000D0800124F4730124D078012410B518B163
:1031700011B1096828F0A2FE0449054807F04DFD89
:10318000034807F023FD002010BD0000D078012483
:10319000F473012410B528F0B5FE002010BD000026
:1031A0000A46094910B5D1F8BC1211B1D1F8141270
:1031B00009B1012010BD0146034807F03BFDBDE801
:1031C0001040014807F0ACBDF473012418F06EB94B
:1031D000294A016891423AD0274A1832914236D0A2
:1031E000254A3032914232D0234A483291422ED081
:1031F000214A603291422AD01F4A7832914226D029
:103200001D4A9032914222D01B4AA83291421ED0D0
:103210001A4A91421BD0194A1832914217D0174AC4
:103220003032914213D0154A483291420FD0134A9E
:10323000603291420BD0114A7832914207D00F4A46
:103240009032914203D00D4AA832914211D1CAB2B4
:103250001823103AB2FBF3F26FF30901032A02F0CC
:103260000703074AD25CC26500D9091D816508467B
:10327000704721F0FF01F9E71000024010040240FE
:1032800078DF020830B5224A012301689142CAB2B0
:103290001BD01F4C1434A14217D01D4C2834A1421E
:1032A00013D01B4C3C34A1420FD0194C5034A142D6
:1032B0000BD0174C6434A14207D0154C7834A1428E
:1032C00003D0134C8C34A1420CD11421114C083A78
:1032D000B2FBF1F10F4A803201F01F0504EB8101CE
:1032E000AB4010E00C4D1824103A0D44B2FBF4F141
:1032F000A82D00D80831094A01F01F0402EB810112
:10330000064AA3408032603080E80E0030BD0000E5
:103310000854025800580258F0FBFDBF0008024054
:1033200010B50279531E072B2DD8174C0168A14206
:103330001BD0154C1434A14217D0134C2834A14291
:1033400013D0114C3C34A1420FD00F4C5034A14249
:103350000BD00D4C6434A14207D00B4C7834A14201
:1033600003D0094C8C34A14203D10849074C4431A5
:1033700002E00749064C443104EB8202C0E91B21FC
:1033800001219940416710BD08540258FC58025869
:10339000FC08024010B583694FF0C074826A014690
:1033A000002053B1B3F5005F15D072B1012A0CD0E3
:1033B000022A0AD0032A09D104E01AB1012A06D050
:1033C000022A03D1C96AC90100D5012010BDC96A0A
:1033D000A142FAD010BD002AF7D0012AF2D0022A69
:1033E000F3D0032AF3D010BD2DE9F04F804E804F6B
:1033F000DFF8FC911836DFF8F8A148370468856DCE
:103400000AF1300ADFF8ECB14C45DFF8ECC1DFF827
:10341000ECE16DD0B4426BD0544569D0BC4267D06A
:10342000DFF8D081A8F11808444561D05C455FD031
:1034300064455DD074455BD0DFF8C481444557D006
:10344000DFF8BC8108F11808444551D0DFF8B0819D
:1034500008F1300844454BD0DFF8A48108F1480852
:10346000444545D0DFF8988108F1600844453FD0D5
:10347000DFF88C8108F17808444539D0DFF8808185
:1034800008F19008444533D0DFF8748108F1A808AA
:1034900044452DD0DFF86C81444529D0DFF86481A4
:1034A00008F11408444523D0DFF8588108F12808B2
:1034B00044451DD0DFF84C8108F13C08444517D045
:1034C000DFF8408108F15008444511D0DFF834811D
:1034D00008F1640844450BD0DFF8288108F178082A
:1034E000444505D0DFF81C8108F18C08444509D11A
:1034F000D0E91948C4F80480C46E1CB1D0E91C4856
:10350000C4F8048004684C452ED0B4422CD05445F5
:103510002AD0BC4228D0374E183EB44224D05C4555
:1035200022D0644520D074451ED0354EB4421BD005
:10353000334E1836B44217D0314E3036B44213D021
:103540002F4E4836B4420FD02D4E6036B4420BD0C9
:103550002B4E7836B44207D0294E9036B44203D071
:10356000274EA836B44215D190F85C603F2406F08F
:103570001F06B440AC600468256825F480252560EA
:103580002EE09A600068C160BDE8F08F9960006825
:10359000C260F9E71B4EB4421BD01A4E1436B44237
:1035A00017D0184E2836B44213D0164E3C36B442CB
:1035B0000FD0144E5036B4420BD0124E6436B44283
:1035C00007D0104E7836B44203D00E4E8C36B4423B
:1035D000DAD190F85C60012406F01F06B4406C60FC
:1035E000046863608368402B0368CFD1C9E700009B
:1035F0001000024088000240A0000240B8000240D3
:103600001004024008540258704702F0E7BF10B59A
:1036100027F0C4FFBDE81040012022F0CABB29F00A
:1036200073BD72B6FEE729F08FBD0000014802F0BD
:1036300049BA0000C8710124014802F043BA0000F1
:10364000C8710124014802F03DBA000068720124EB
:10365000014802F037BA000068720124014802F004
:1036600031BA000008730124014802F02BBA0000AF
:1036700008730124F0B503684FF6FC716D4C426B82
:10368000D3F884508D4345EA8205C3F8845003681B
:1036900053F8845F068F25F47F0545EA06451D60D3
:1036A000836B654D9F180268D2F888308B4343EADC
:1036B0008703C2F88830026852F8883F868F23F467
:1036C000FE0343EA06431360066856F8A03FC26B48
:1036D0008B4307EB420243EA82033360076857F8E3
:1036E000A03FB0F8406023F4FE0343EA06433B608A
:1036F000D0E9103603FB06220368D3F8B0608E438E
:1037000046EA8206C3F8B0600368B0F84860D3F8B0
:10371000B07027F4FE0747EA0646C3F8B060D0E968
:103720001267036806FB0722D3F8AC608E4346EAB3
:103730008206C3F8AC60D0E91467036806FB072271
:10374000D3F8F0608E4346EA8206C3F8F06003685F
:10375000B0F85860D3F8F07027F47C1747EA0646B3
:10376000C3F8F0600368876D53F8C06F02EB47023F
:103770008E4346EA820119600168B0F85C20D1F8F6
:10378000C03023F47C1343EA0242C1F8C020016830
:1037900090F86020D1F8C03023F07C5343EA0262F5
:1037A000C1F8C020416B04EB8101C166826B01EB63
:1037B00082020267C36B02EBC3024267D0E9103496
:1037C000634302EB83028267D0E91234634302EB66
:1037D0008302C267D0E91434634302EB8302C0F86A
:1037E0008020836D02EBC303C0F88430C46D826E09
:1037F000544303EB8403C0F88830046E544303EB56
:103800008402C0F89020AA420AD9D0F89C20032153
:1038100042F02002C0F89C2080F898100120F0BDF2
:10382000002200E004C1D0F890308B42FAD800208A
:10383000F0BD000000AC0040FCD30040F0B58E6845
:103840000C69D1E9005744EA0604DFB145F0804530
:103850002C43866ED1E906C54F695E4391F820304E
:1038600045EA0C05B1F80CC0D0F884E0002047EA26
:1038700003630C4F1D430EEB860345EA0C45E3E85A
:1038800002450AE044EA8544E3E71418155C001D8C
:10389000D4F8014045EA042410C3CC683C5D84425E
:1038A000F3D8F0BD80DF020870477047704770475B
:1038B000704700002DE9F0470F4690F85C109CB06F
:1038C000044601294FF0000915D00026DFF8F880E2
:1038D000012084F85C0018961996216841450ED1A4
:1038E0003A4D0095284605F0EFFE8246206805F027
:1038F000EBFE60B10EE002201CB0BDE8F087206E48
:1039000084F85C6040F0200020660120F4E7BAF102
:10391000000F09D0216E4FF0010941F02000206610
:10392000484684F85C60E7E720684146884201D059
:10393000A84201D1264800E0264840F61F72D7F879
:1039400000C0254BBCF1000F23D0D0F808C0D7F839
:1039500004802CF4404C4CEA080CC0F808C0D4F8A1
:1039600000C08C4501D0AC4507D18968AB6801F037
:10397000010103F00103194302E0996801F001011C
:103980000029CDD1BD683968836829439343194321
:1039900017E0876827F44047876027688F4201D087
:1039A000AF4207D18968AB6801F0010103F0010360
:1039B000194302E0996801F001010029B0D1816842
:1039C00091438160ACE700000020024000210240EA
:1039D0000023024000630258006002582DE9F84FAE
:1039E0004FF0000B0446FE4E0D46CDF800B0DA460F
:1039F00090F85C00FB4F012808D04FF0010984F8D3
:103A00005C90206805F05CFE18B154E20220BDE82D
:103A1000F88F286800280FDB2168B1420CD0CA69F2
:103A2000030327D090FAA0F0B0FA80F000F01F0353
:103A300009FA03F00243CA61D5E900124FF00C0CF9
:103A400020681F23C1F384610CEA921C02F01F025C
:103A5000604493409140026B9A430A43026320689A
:103A600005F02EFE8046206805F026FE58EA00008C
:103A700003D048E1C0F38460D8E7AA6829682068C9
:103A800005F02EFE2068B04204D1C2686969C2F315
:103A9000C1020BE0D44A1268B9EB127F02D0C168B0
:103AA000C90605D4C2686969C2F38202520004E003
:103AB000C268696902F01002520891402A69042A1A
:103AC0005AD02B6800EB8202B04202F1600207D1AB
:103AD00003F0F8401368084340F00040106008E02D
:103AE000D2F800C003F0F84008430CF00041014355
:103AF00011602068B0421CD12A69E96900EB82009C
:103B0000026E22F080720A43026695F82010206847
:103B10002A6901290AD00021B042AAD100EB820013
:103B2000026E22F000720A430266ECE04FF0007170
:103B3000F2E795F821202969012A17D05FF00002E9
:103B400000EB8100016E21F0004111430166297EE6
:103B500020682A6901290CD00021036902F01F02A4
:103B6000914023F4F0420A430261CCE04FF000425E
:103B7000E6E74FF40061F0E7B04273D1002105F0B1
:103B800095FD000320684FF000016DD005F08EFD1B
:103B900090FAA0F0B0FA80F12868020369D090FA98
:103BA000A0F0B0FA80F0814204D1002220681146D2
:103BB00005F0A6FD2068012105F078FD00032068CE
:103BC0004FF0010158D005F071FD90FAA0F0B0FA65
:103BD00080F12868020354D090FAA0F0B0FA80F087
:103BE000814204D120680022012105F089FD20686E
:103BF000022105F05BFD000320684FF0020143D075
:103C000005F054FD90FAA0F0B0FA80F128680203A4
:103C10003FD090FAA0F0B0FA80F0814204D1206841
:103C20000022022105F06CFD2068032105F03EFD15
:103C3000000320684FF003012ED005F037FD90FA05
:103C4000A0F0B0FA80F1286802032AD090FAA0F020
:103C5000B0FA80F0814256D120680022032105F09D
:103C60004FFD50E020E0FFE705F020FDC0F3846148
:103C700092E7C0F3846096E705F018FDC0F3846115
:103C8000A7E7C0F38460ABE705F010FDC0F38461E3
:103C9000BCE7C0F38460C0E705F008FDC0F38461B1
:103CA000D1E7C0F38460D5E7016E2A7801F0F841CE
:103CB000B1EB826F03D1016E21F0004101662068F3
:103CC0002978426E02F0F842B2EB816F03D1416E67
:103CD00021F00041416620682978826E02F0F842A6
:103CE000B2EB816F03D1816E21F0004181662068C3
:103CF0002978C26E02F0F842B2EB816F03D1C16E37
:103D000021F00041C1662068816811F0010F71D176
:103D1000364AB042EB6829680FD1D0F8B0C003F042
:103D20001808C1F3130322FA08F20A402CEA030C24
:103D30004CEA020CC0F8B0C00EE0D0F8C0C003F0EE
:103D40001808C1F3130322FA08F20A402CEA030C04
:103D50004CEA020CC0F8C0C02548E96881427DD118
:103D6000286801031BD090FAA0F1B1FA81F1491C37
:103D700001F01F0109294FEA00313CD8002911D078
:103D800090FAA0F1B1FA81F101F1010101F01F01F6
:103D900009FA01F209D100BFC0F3846109E0C0F360
:103DA0008461E4E7C0F38461EEE790FAA0F1B1FA30
:103DB00081F101F1010101F01F0142EA816102D1AB
:103DC000C0F3846003E090FAA0F0B0FA80F000F154
:103DD000010000F01F0000EB400041EA005140E00C
:103DE00000600258002102400010005CFFFF0F003D
:103DF0000000FF4765E000290FD000BF90FAA0F156
:103E0000B1FA81F101F1010101F01F0109FA01F29A
:103E100006D100BFC0F3846106E0C0F38461F1E71E
:103E200090FAA0F1B1FA81F101F1010101F01F0155
:103E300042EA816102D1C0F3846003E090FAA0F00D
:103E4000B0FA80F0434A00F1010000F01F0000EBDF
:103E5000400002EB005041EA000100E005E041F0C3
:103E60000071AA68206805F03BFCD5F800C0BCF1E1
:103E7000000F26DA384B20683849DFF8E490984282
:103E800001D0B84201D10A4600E04A469268984201
:103E900002F0E07201D0B84209D19D68D7F80880DD
:103EA00005F0010508F0010845EA080502E0B568DB
:103EB00005F001054DB1216E4FF0010A41F02000DF
:103EC0002066504684F85CB0A1E5264DAC451CD177
:103ED00015021AD4B042F4D1984202D0B84200D0B0
:103EE00049468B6842F4000023F0E07202438A6086
:103EF0001E491D480968B1FBF0F04000801C00E03D
:103F0000401E00900028FBD1DBE7194DAC450CD1D9
:103F1000D5010AD4B042D4D1984202D0B84200D0E0
:103F200049468B6842F080700EE0124DAC45C8D116
:103F30005502C6D4B042C4D1984202D0B84200D093
:103F400049468B6842F4800023F0E07202438A60A5
:103F5000B7E70000000020FE0020024000230240DE
:103F600000630258000052C7400D0300B000012456
:103F7000000021C3000084CB114970B588421AD1DA
:103F800010490F4D80354A78B2B16A7DA2B1002642
:103F90004E7000F027F8A5F11004C0F30B0020804C
:103FA00002F01CFBA06001216068401C606021736E
:103FB000BFF35F8F6E7570BD2869401C286170BDAE
:103FC000449E0224EC0101240549884206D101F1F6
:103FD0008000C168491CC16015F0F2BC7047000048
:103FE000449E02240068006C704700002DE9F05FD9
:103FF0000446006806684568DFF87082DFF870B232
:10400000DFF87092404501D0484501D1584600E0A4
:104010009948806800F01F07B0070ED5A8070CD597
:10402000206EC00603D4206E40F400602066204657
:10403000FFF73AFC216802200860700701D5680785
:1040400003D4300737D5280735D5206EC00603D4F2
:10405000206E40F400702066206805F039FB20B324
:104060002068484501D1424600E00246824208D01D
:104070003FB1052F05D0092F03D0484503D1414654
:1040800002E0C16801E00146C96889040DD40168F5
:1040900009070AD505F014FB58B3206E40F0100054
:1040A0002066606E40F0010060662046FFF764FF06
:1040B00021680C200860B00601D5A80603D470065C
:1040C00058D5680656D5206EC00603D4206E40F43D
:1040D000005020662068C16C11F4C07F1AD0002106
:1040E0008A4605F0F5FA02462068484514D1434651
:1040F00013E02068416821F00C014160206E20F43B
:1041000080702066206EC004CFD4206E40F0010085
:104110002066CAE70121E3E70346834208D03FB1A6
:10412000062F05D0072F03D0484503D1414602E0B2
:10413000C16801E00146C968BAF1000F14D08B01D3
:1041400002D58AB18A040FD4026852060CD58902BE
:104150000AD405F0B1FAE8B3206E40F010002066F2
:10416000606E40F0010060662046FFF79EFB21680C
:104170006020086030060BD5280609D5206E40F473
:1041800080302066204600F0CDF92168802008604C
:10419000F0050CD5E8050AD5206E40F40030206605
:1041A0002046FFF784FB21684FF480700860B0055B
:1041B0000CD5A8050AD5206E40F480202066204644
:1041C000FFF776FB21684FF400700860F00631D5E8
:1041D000E80600E00AE02DD5E06BE8B12068EFB317
:1041E000404501D0484512D1584611E02068416849
:1041F00021F060014160206E20F480502066206E26
:10420000C005B1D4206E40F001002066ACE71A482A
:10421000806800F4404050B1206E40F48060206619
:10422000606E40F0020060662046FFF7CDFE216818
:1042300010200860700517D5680515D5216E4FF45C
:10424000806041F480412166616E41F00801616641
:10425000216808602046BDE8F05F00E001E0FFF75C
:1042600025BBC0688007D6E7BDE8F09F002002406C
:104270000023024000210240006302582DE9F84368
:104280004FF0000504002E46009502D0206E18B1B4
:1042900008E00120BDE8F883204600F044F9656697
:1042A00084F85C5020688168C1F3407119B181685D
:1042B0008E4A1140816020688168C1F3007181B924
:1042C00081688B4A114041F0805181608A49894858
:1042D0000968B1FBF0F0401C00E0401E009000288F
:1042E000FBD120688168C1F3007141B9216E0126BC
:1042F00041F010012166616E41F00101616605F037
:10430000DFF9216EC90600D420B1206E012640F0ED
:104310001000E0E0206E20F4807040F00200206683
:1043200020688168754D11F0010F1ED1744B754ADC
:10433000984201D0904207D19968976801F0010135
:1043400007F00107394302E0A96801F0010161B9F2
:10435000984201D0904201D16B4800E06B488268DE
:10436000616822F47C120A4382602168A9421FD14D
:10437000637ED4E90207E26B5B033A43082805D069
:104380000C280FD01C280FD018280FD05FF0000089
:1043900000F00C0794F8200043EA47031A4342EA6E
:1043A00000400FE00420F3E70820F1E71C20EFE7CE
:1043B000627E94F82030A768E06B520342EA034221
:1043C0003843104394F82020012A04D1A28C504B8A
:1043D00003EB42421043A26A2AB1E36A02F4787204
:1043E000024343EA0200CA68A9420BD1494B1A4072
:1043F0000243CA602068626B016921F04061114389
:10440000016103E0444B1A400243CA60206805F092
:1044100057F90746206805F04FF907434ED1206849
:10442000A946484506D1217E94F83820890341EAFF
:10443000420103E0227E216B41EA8231C26844F2EC
:1044400003039A430A43C26094F844000128206899
:1044500003D0016921F0010122E048450ED1D4E9E1
:10446000121CD4E9143502692C4F41EA0C012B438C
:104470003A401943114341F0010111E0D4E9131707
:10448000B4F848C0DFF89880636D026908EB0C4C03
:10449000224D394343EA0C036D1E2A401943114350
:1044A00001612068236C026922F070421A430261A4
:1044B0002068484502D02046FEF77AFC2069012892
:1044C00020680BD0016B21F00F010163206E20F0FA
:1044D000020040F0010020663046DBE6E269016B35
:1044E000521E21F00F011143EFE70000C0FFFF5FF4
:1044F000C0FFFF7F400D0300B000012400600258A0
:1045000000200240002102400023024000630258C4
:104510000000FEFF0740F0FF03C0F0FF1FF800FCA3
:104520000100FFFF704770472DE9F0415B4D0446E5
:1045300000685B4FA84201D0B84201D1594900E060
:104540005949896801F01F0605F0BAF818B102222E
:104550001046BDE8F08194F85C0001280CD00120E1
:1045600084F85C002046FEF73FFD02004FF000019A
:1045700004D084F85C10EBE70220EAE7236E40F6F3
:10458000016C206823EA0C03B84243F4807323666D
:1045900001D12B4600E00346834200D01EB9236EB2
:1045A00023F480132366236EDB0404D5636E23F0AB
:1045B0000603636600E061661C23036084F85C10F8
:1045C0002068416821F01C0141606069082820686A
:1045D000416802D041F0040101E041F0080141606E
:1045E000E06B20B92068416841F01001416020680B
:1045F000B84201D1294600E00146814220D0FEB1F7
:10460000052E1DD0092E1BD0216EB84241F4801119
:10461000216600D00546E968890199D5216E636954
:1046200021F40051082B41F48051216641682BD0C0
:1046300021F0400141602068416841F020012AE0FA
:10464000C168890119D5236E616923F400530829D3
:1046500043F480532366416807D021F04001416054
:104660002068416841F0200106E021F0200141600E
:104670002068416841F04001416020680B4B81682F
:104680001940091D816063E721F020014160206825
:10469000416841F0400141605AE7000000200240BB
:1046A000002102400023024000630258C0FFFF7F48
:1046B00010B5044690F85C00012808D0012084F869
:1046C0005C0003212046FEF7E5FB10B110E002205C
:1046D00010BD2068416821F01C0141602046FEF7B2
:1046E0004BFC28B9216E21F4885141F0010121666B
:1046F000002184F85C1010BD2DE9F05F28B190F81E
:104700003510022904D0802141650120BDE8F09FC9
:10471000904C904B0168183C18338E4ADFF83C925D
:10472000A1428D4CDFF838E28E4FDFF83CB2DFF863
:104730003CA28F4D8F4E31D091422FD099422DD037
:10474000A1422BD0494529D0714527D0B94225D067
:10475000DFF810C20CF1180C61451FD0DFF808C259
:10476000ACF1600C614519D0DFF8FCC1ACF1480C2C
:10477000614513D0DFF8F0C1ACF1300C61450DD0CC
:10478000DFF8E4C1ACF1180C614507D0594505D0FC
:10479000514503D0A94201D0B1422CD1DFF8B4C1B8
:1047A0004FF0040880F83580ACF1180C61451DD03D
:1047B00091421BD0994219D0A14217D0494515D03A
:1047C000714513D0B94211D06648183081420DD0DE
:1047D00065486038814209D063484838814205D035
:1047E00061483038814201D05F481838086820F0AD
:1047F00001000860ABE0D1F800C02CF00E08DFF833
:1048000054C1C1F80080ACF1180C0168614527D093
:10481000914225D0994223D0A14221D049451FD0B1
:1048200071451DD0B9421BD0DFF838C10CF1180C0E
:10483000614515D0DFF830C1ACF1600C61450FD097
:10484000DFF824C1ACF1480C614509D0DFF818C18C
:10485000ACF1300C614503D0DFF80CC1ACF1180CA1
:10486000D1F800C02CF0010CC1F800C0DFF8E480E2
:104870004FF0010C0168A8F11808414546D091425B
:1048800044D0994242D0A14240D049453ED07145E2
:104890003CD0B9423AD0334A1832914236D0324AEB
:1048A000603A914232D0304A483A91422ED02E4A54
:1048B000303A91422AD02C4A183A914226D0594592
:1048C00024D0514522D0A94220D0B1421ED02A4A3C
:1048D00091421BD0284A1432914217D0264A2832DE
:1048E000914213D0244A3C3291420FD0224A503296
:1048F00091420BD0204A6432914207D01E4A78324E
:10490000914203D01C4A8C32914218D1016E0A6840
:1049100022F480720A6090F85C20816D02F01F0220
:104920000CFA02F24A60D0E919124A60C16E31B144
:104930000A6822F480720A60D0E91C124A600022E0
:10494000016D80F835C080F8342001B1884700201F
:10495000DCE60000280002405800024070000240DF
:1049600088000240A0000240700402408804024017
:10497000A0040240B804024008540258406D704739
:104980002DE9FC5F0446F74E0020DFF8D883009045
:104990004FF41652F44808F11808A56DDFF8C493D7
:1049A000DFF8C0A3016809F1300920680AF1480A5C
:1049B000B1FBF2F1B04201912F68D5F800C0DFF8E9
:1049C000ACB335D04146884232D0484530D050450E
:1049D0002ED058452CD0E5491831884228D0E349DB
:1049E0003031884224D0E1494831884220D0E04922
:1049F00088421DD0DE491831884219D0DC49303157
:104A0000884215D0DA494831884211D0DFF860E396
:104A10000EF1600E70450BD0D54A7832904207D027
:104A2000D34B9033984203D0D149A83188427DD1ED
:104A300094F85C20082102F01F0201FA02F23A42C7
:104A40004AD0B04232D0404530D048452ED05045B3
:104A50002CD058452AD0C54A1832904226D0C34A95
:104A60003032904222D0C14A483290421ED0C04AD1
:104A700090421BD0BE4A1832904217D0BC4A303206
:104A8000904213D0BA4A483290420FD0B84A6032AE
:104A900090420BD0B64A7832904207D0B44A903256
:104AA000904203D0B24AA832904203D1026802F089
:104AB000040202E0026802F008026AB1026822F011
:104AC0000402026094F85C0000F01F008140A960BD
:104AD000606D40F00100606594F85C00012100F019
:104AE0001F008140394240D02068B04234D0404558
:104AF00032D0484530D050452ED058452CD09B4A16
:104B00001832904228D0994A3032904224D0974AA5
:104B10004832904220D0964A90421DD0944A183292
:104B2000904219D0924A3032904200E0AFE113D067
:104B30008F4A483290420FD08D4A603290420BD05B
:104B40008B4A7832904207D0894A9032904203D003
:104B5000874AA83290427DD1406910F0800F04D07E
:104B6000A960606D40F00200606594F85C0004216B
:104B700000F01F00814039423ED02068B04232D060
:104B8000404530D048452ED050452CD058452AD0ED
:104B9000764A1832904226D0744A3032904222D05F
:104BA000724A483290421ED0714A90421BD0704ADD
:104BB0001832904217D06E4A3032904213D06C4A6D
:104BC000483290420FD06A4A603290420BD0684A15
:104BD0007832904207D0664A9032904203D0644ABD
:104BE000A83290424ED1006810F0020F04D0A960A4
:104BF000606D40F00400606594F85C00102100F0E6
:104C00001F008140394258D02068B04234D040451E
:104C100032D0484530D050452ED058452CD0534A3C
:104C20001832904228D0514A3032904224D04F4A14
:104C30004832904220D04E4A90421DD04C4A183201
:104C4000904219D04A4A3032904215D0484A4832F0
:104C5000904200E014E00FD0454A603290420BD001
:104C6000434A7832904207D0414A9032904203D072
:104C70003F4AA832904207D1006800F0080006E0E1
:104C8000006872E70068B7E7006800F00400A0B1B0
:104C9000A96020680168490304D50068000308D5AD
:104CA000A16C07E00168C90503D4016821F008017F
:104CB0000160216C09B12046884794F85C002021EE
:104CC00000F01F008140394279D02068B04232D0D4
:104CD000404530D048452ED050452CD058452AD09C
:104CE000224A1832904226D0204A3032904222D0B6
:104CF0001E4A483290421ED01D4A90421BD01C4A88
:104D00001832904217D01A4A3032904213D0184AC3
:104D1000483290420FD0164A603290420BD0144A6B
:104D20007832904207D0124A9032904203D0104A13
:104D3000A832904203D1006800F0100002E0006841
:104D400000F00200B0B3A96094F835000428206890
:104D500001680FD049037ED5006800032BD4616C35
:104D60002AE0000010000240B00001247000024060
:104D70001004024021F0160101602068416921F011
:104D800080014161206C08B9A06C20B120680168E5
:104D900021F00801016094F85C303F21012003F00C
:104DA0001F0300229940A96084F8350084F834205C
:104DB000216D65E003E0E16B09B120468847606D35
:104DC00000287DD0606DC00759D02068042184F888
:104DD0003510B0422BD0404529D0484527D050450A
:104DE00025D0584523D09D49884220D09B49183171
:104DF00088421CD099493031884218D0984988425D
:104E000015D097491831884211D0954930318842E0
:104E10000DD093494831884209D091496031884288
:104E200005D08F497831884201D08D499031016891
:104E300021F00101016020680099019A491C00914C
:104E4000914202D80168C907F6D10068C00710D0A6
:104E500003200FE0FFE70168C905ACD40368012116
:104E6000002223F01003036084F8351084F8342006
:104E7000A1E7012084F83500002084F83400E16CBB
:104E800000291DD002B02046BDE8F05F08477549F3
:104E900088421DD073491431884219D07149283194
:104EA000884215D06F493C31884211D06D4950314C
:104EB00088420DD06B496431884209D0694900E0CD
:104EC00084E07831884203D066498C3188427DD1B4
:104ED00094F85C800427016808F01F0807FA08F7B7
:104EE00017EA0C0F009746D04F0744D500980F04DF
:104EF000686003D5C8033CD4A16CC1E7880638D4E8
:104F00002068B0422DD055496039884229D04845A3
:104F100027D0504525D0584523D05049884220D02D
:104F20004E49183188421CD04C493031884218D043
:104F30004B49884215D04A491831884211D0484916
:104F4000303188420DD046494831884209D07045F9
:104F500007D0904205D0984203D04149A8318842F9
:104F600003D1016821F0080102E0016821F0040189
:104F70000160216C84E7022707FA08F717EA0C0F93
:104F800000974ED08F074CD500980F04686003D56A
:104F9000C80344D4616C73E7880640D42068B042EB
:104FA0002FD02E49603988422BD0484529D0504512
:104FB00027D0584525D02949884222D02749183181
:104FC00088421ED025493031884200E044E018D0A4
:104FD0002349884215D022491831884211D02049EE
:104FE000303188420DD01E494831884209D0704581
:104FF00007D0904205D0984203D01949A831884281
:1050000003D1016821F0140102E0016821F00A01D6
:105010000160012184F83510002084F83400E16B30
:105020002EE7082202FA08F212EA0C0F14D0090740
:1050300012D5016821F00E01016094F85C10012086
:10504000002201F01F0100FA01F16960606584F837
:10505000350084F8342012E7BDE8FC9F8800024048
:1050600010040240085402582DE9F05F044601F094
:10507000B5FA002C07467DD0E24E022120684FF0A1
:105080000308DFF884934FF00005DFF880A3B042F7
:10509000DFF87CB334D0DB4A1832904230D0484538
:1050A0002ED050452CD058452AD0D94A183290429B
:1050B00026D0D74A3032904222D0D54A4832904248
:1050C0001ED0D44A90421BD0D24A1832904217D0F8
:1050D000D04A3032904213D0CE4A483290420FD05C
:1050E000CC4A603290420BD0CA4A7832904207D004
:1050F000C84A9032904203D0C64AA83290427DD12D
:1051000084F83510B04284F834502ED0BD4918319F
:1051100088422AD0484528D0504526D0584524D02A
:10512000BB491831884220D0B949303188421CD05F
:10513000B7494831884218D0B649884215D0B54998
:105140001831884211D0B349303188420DD0B1496D
:105150004831884209D0AF496031884205D0AD4915
:105160007831884201D0AB499031016821F00101CA
:10517000016008E025E100BF01F030FAC01B0528FE
:1051800001D920211AE120680068C007F4D1D4E9D0
:1051900002032168103418438E4694E88410D4E941
:1051A000033809683A4310439B4A40EA0C00676998
:1051B00018431140103C40EA0800042F40EA010067
:1051C00003D1D4E90B12114308436168A1F129020C
:1051D000052A0BD9163A032A08D9083A012A05D913
:1051E000083A032A02D97439032901D840F48010FF
:1051F000CEF800002068676A406900E020E0042FD4
:1052000020F0070047EA00070DD1D4E90A0107435F
:1052100049B12046FEF7BEF828B140206065012163
:1052200084F83510CDE0206847612046FDF7D0FFB7
:1052300094F85C203F2102F01F029140816055E00C
:10524000764A90421BD0754B1433984217D0734B5B
:105250002833984213D0714B3C3398420FD06F4B98
:10526000503398420BD06D4B6433984207D06B4B50
:105270007833984203D0694B8C3398427ED184F8BE
:10528000351084F83450664B0168A26801EA030EB9
:10529000402A74D0802A73D05FF00002D4E90378EA
:1052A000D4E9053142EAD70242EAD8085B4AD4E998
:1052B000077C48EAD30848EAD10141EAD7015242C3
:1052C00041EA1C11142341EA0E01016020681044D8
:1052D000B0FBF3F08000E0652046FDF779FF94F81D
:1052E0005C20012102F01F02914041602068B04221
:1052F00057D044491831884253D0484551D0504581
:105300004FD058454DD042491831884249D0404984
:105310003031884245D03E494831884241D03D49EC
:1053200088423ED03B49183188423AD03949303121
:10533000884236D037494831884232D035496031C9
:1053400088422ED03349783188422AD03149903171
:10535000884226D02F49A831884222D02F4988423E
:105360001FD02E49143188421BD02C492831884245
:1053700017D02A493C31884213D002E01DE017E0E3
:1053800018E02649503188420BD0244964318842C4
:1053900007D022497831884203D020498C31884295
:1053A00029D12046FDF76EFFA06880280CD00CE0C4
:1053B000102273E74FF4804270E74021616584F862
:1053C00035800120BDE8F09F6560216E207908607E
:1053D000D4E9190141606068401E072808D82046BA
:1053E000FDF79EFFE06E0560D4E91C01416002E01C
:1053F000E566256765670120656584F8350000204E
:10540000E0E7000010000240400002405800024067
:1054100070000240100402403F8010FE0854025801
:105420000F00FEFF2DE9F84F04008C464FF00000FE
:10543000009014D094F83400012812D094F835501C
:105440000120002184F83400012D0CD0C0026065D9
:105450000120009084F834100098BDE8F88F0120F6
:10546000FBE70220F9E78C4D0226206884F83560BE
:10547000A8428A4D61658A4E8A4FDFF82C82DFF898
:105480002C92DFF82CA2DFF82CB226D0A84224D030
:10549000B04222D0B84220D040451ED048451CD052
:1054A00050451AD0584518D08349884215D08249B2
:1054B0001831884211D08049303188420DD07E4960
:1054C0004831884209D07C496031884205D07A4908
:1054D0007831884201D078499031016821F001018A
:1054E000016061462046FDF77FFF6B4920688842D6
:1054F0002CD0A8422AD0B04228D0B84226D040456D
:1055000024D0484522D0504520D058451ED06A4A64
:1055100090421BD0684A1832904217D0664A303207
:10552000904213D0644A483290420FD0624A6032AF
:1055300090420BD0604A7832904207D05E4A903257
:10554000904203D05C4AA83290420CD1026822F00B
:105550001E0242F016020260206C88B120680268C8
:1055600042F008020BE0026822F00E0242F00A024A
:105570000260206C20B12068026842F004020260E0
:10558000206888424BD0A84249D0B04247D0B842A8
:1055900045D0404543D0484541D050453FD058457F
:1055A0003DD0454A90423AD0434A1832904236D0D4
:1055B000414A3032904232D03F4A483290422ED057
:1055C0003D4A603290422AD03B4A7832904226D0FF
:1055D000394A9032904222D0374AA83290421ED0A7
:1055E000364A90421BD0354A1432904217D0334A83
:1055F0002832904213D0314A3C3290420FD02F4A89
:10560000503290420BD02D4A6432904207D02B4A40
:105610007832904203D0294A8C3290420DD1206ECC
:105620000268D20303D5026842F480720260E06E21
:1056300018B1026842F4807202602068884226D065
:10564000A84224D0B04222D0B84220D040451ED03B
:1056500048451CD050451AD0584518D016498842A4
:1056600015D015491831884211D01349303188427C
:105670000DD011494831884209D00F496031884224
:1056800005D00D497831884201D00B49903101682D
:1056900041F001010160DFE61000024028000240F5
:1056A0004000024058000240700002408800024062
:1056B000A0000240B8000240100402400854025802
:1056C00070B5044600F08AFF0546601C02D004480D
:1056D0000078044400F082FF401BA042FAD370BD62
:1056E000A400012410B590F89830012B09D0022BAA
:1056F00007D0D0F89C1041F00201C0F89C100120A6
:1057000010BD03689C6D0C4203D1DC6D44F00104B4
:1057100004E09C6D31EA04041FD00324DC658B0592
:1057200005D50368D3F8E0401443C3F8E0404B05C7
:1057300005D50368D3F8E4401443C3F8E440006897
:10574000084A01EA0203446D074A1C434465106895
:1057500040EA91701060002010BDDC6D44F002043E
:10576000DCE70000FFFFCF3F14A8004070B50446FF
:1057700090F89800022804D0D4F89C0040F008006B
:105780000DE02068D0F8C03013F07C5F0BD0D0F86B
:10579000C4309B020CD5D4F89C0040F40070C4F8CF
:1057A0009C00012070BDD4F89C0040F02000F6E77A
:1057B000D0F8C400C0F3044520462B46FEF73EF85F
:1057C00021680120A840C1F8D000C4F8940000204E
:1057D00070BD704790F89830012B07D0D0F89C101E
:1057E00041F00401C0F89C100120704761B10068CD
:1057F000012913D0D0F8B01021F0FE4141EA026136
:10580000C0F8B010002070470068D0F8F01021F008
:105810007C5141EA0261C0F8F010F3E7D0F8A01023
:1058200021F0FE4141EA0261C0F8A010EAE770B53C
:1058300090F89820012A09D0022A07D0D0F89C10AD
:1058400041F00201C0F89C10012070BD0B68CA68CD
:1058500083B10B69072A43EA427325D00C7A4A695F
:1058600042EA84724968006F00EBC100C0E900326F
:10587000002070BD072A0DD00C7AD6060D8A4B6920
:1058800043EA847246EA0543C06E49681A4340F809
:105890002120EDE70B8A4FF06055D1E9062442EA5A
:1058A000034245EA0423EFE78A69DBE730B590F865
:1058B0009850039C012D07D0D0F89C1041F00401B2
:1058C000C0F89C10012030BD0D01016845EA82003E
:1058D00040EA43002043C1F88000002030BD7047FB
:1058E000084A10B590420BD1880109D506480DF041
:1058F000D4F90648002180F84C104169491C4161E7
:1059000010BD0000C871012498090224785F0224A8
:105910000068402905D0D0F8B40000BF00F07F0037
:105920007047D0F8A400F9E7F0B590F8985000243B
:10593000022D04D0D0F89C1041F0080129E0402944
:1059400005D0412929D0056D8D4219D942E005685D
:10595000D5F8A06016F4FE0F12D0D5F8A460760634
:1059600013D0D5F8A460F60105D5D5F8A06016F0DF
:10597000004F00D50124D5F8A470466F456C24E093
:10598000D0F89C1041F0200103E0D0F89C1041F4C5
:105990008071C0F89C100120F0BD0568D5F8B0609A
:1059A00016F4FE0FECD0D5F8B4607606EDD0D5F83D
:1059B000B460F60105D5D5F8B06016F0004F00D5FB
:1059C0000124D5F8B470866FC56CC7F305273C4435
:1059D000654302E0456DC66F4D4306EB85052E68B5
:1059E00016F0804656602E6836D026F06046166067
:1059F000D5F800C000262E4F0CF0005CC2F808C09D
:105A0000D5F800C00CF0004CC2F810C0B5F804C0C6
:105A10001FFA8CFCC2F81CC0D5F804C0CCF3034CB0
:105A2000C2F80CC0D5F804C00CF4801CC2F814C035
:105A3000D5F804C00CF4001CC2F818C0D5F804C096
:105A4000CCF3066CC2F820C0D5F804C008354FEA84
:105A5000DC7CC2F824C008E0C6F38A46C7E700BF72
:105A600015F806C003F806C0761CD2F80CC017F86B
:105A70000CC0B445F4D840290AD041290CD02029C3
:105A80004FF001020CD200688A40C0F898200DE067
:105A90000068C0F8A84009E00068C0F8B84005E018
:105AA000006801F01F018A40C0F89C200020F0BD72
:105AB00080DF02080068D0F8C40000F03F007047A3
:105AC000704700002DE9FF5FDFF80CB304460BF1CF
:105AD0000401DBF8000025680F68AA468007D5F8A6
