:020000040800F2
:10000000584C012419050008A75900082756000874
:10001000A559000843220008817D00080000000067
:10002000000000000000000000000000590400086B
:10003000D122000800000000B5040008AD5F0008F0
:1000400033050008330500083305000833050008B0
:1000500033050008330500083305000833050008A0
:100060003305000833050008330500083305000890
:100070003305000833050008330500083305000880
:10008000330500083305000833050008D9220008AD
:10009000F1220008E5220008FD22000833050008CF
:1000A0003305000833050008330500083305000850
:1000B0003305000833050008330500083305000840
:1000C0003305000833050008330500083305000830
:1000D0003305000833050008330500083305000820
:1000E0003305000833050008000000003305000850
:1000F0003305000833050008330500083305000800
:1001000033050008330500083305000833050008EF
:1001100033050008330500083305000833050008DF
:1001200033050008330500083305000833050008CF
:1001300033050008330500083305000833050008BF
:1001400000000000000000000000000000000000AF
:10015000330500083305000833050008330500089F
:10016000330500083305000833050008330500088F
:1001700033050008455A0008330500080000000058
:10018000330500083305000833050008330500086F
:10019000330500083305000833050008330500085F
:1001A000330500083305000833050008000000008F
:1001B000330500083305000833050008330500083F
:1001C00033050008330500080000000000000000AF
:1001D00000000000000000003305000800000000DF
:1001E000000000000000000000000000000000000F
:1001F000000000000000000033050008330500087F
:10020000330500083305000800000000330500082E
:1002100033050008330500083305000833050008DE
:10022000330500080000000033050008000000004E
:1002300033050008330500080000000033050008FE
:1002400033050008330500083305000833050008AE
:10025000330500083305000833050008330500089E
:10026000330500083305000833050008330500088E
:1002700033050008330500083305000800000000BE
:10028000330500083305000833050008330500086E
:1002900000000000330500083305000800000000DE
:1002A000000000003305000833050008330500088E
:1002B000330500083305000833050008092300084A
:1002C00015230008356100083305000800F002F826
:1002D00000F0B2F80AA090E8000C82448344AAF12E
:1002E0000107DA4501D100F0A7F8AFF2090EBAE82C
:1002F0000F0013F0010F18BFFB1A43F0010318475A
:10030000B8C40000D8C400000A444FF0000C10F834
:10031000013B13F0070408BF10F8014B1D1108BF83
:1003200010F8015B641E05D010F8016B641E01F823
:10033000016BF9D113F0080F1EBF10F8014BAD1C73
:100340000C1B09D16D1E58BF01F801CBFAD505E091
:1003500014F8016B01F8016B6D1EF9D59142D6D3EB
:10036000704700000023002400250026103A28BF13
:1003700078C1FBD8520728BF30C148BF0B60704717
:100380006E2900F0AD83702900F0F78466290BF028
:10039000568665290BF0538667290BF05086612934
:1003A0000BF04F8603681B0A28BF41F080016929C2
:1003B00000F05A83642900F05783752900F05483B4
:1003C0006F2900F08584782900F0C384E92900F0C2
:1003D0001F84E42900F01C84F52900F01984EF291A
:1003E00000F08284F82900F0C2840368DB0928BF8A
:1003F00041F08001632901F0CB81732901F0D081A4
:10040000E32901F0DB81F32901F0E081002070474E
:100410001FB50BF00FFE01F049FA04000020002187
:100420000BF0F2FD401C6060002000210BF0D6FDB7
:10043000E0601FBD10B510BD01F00AFA1146FFF7CC
:10044000E7FF08F007FD01F0E3FA03B4FFF7F2FF5E
:1004500003BC00F0A1FA00002C4B19680868B0E852
:10046000F04F80F30988BFF36F8F4FF0000080F3E7
:10047000118870470000000008480068006880F399
:1004800008884FF0000080F3148862B661B6BFF3AD
:100490004F8FBFF36F8F00DF00BF00BF08ED00E09C
:1004A000DFF80C00016841F470010160704700BF83
:1004B00088ED00E0EFF30980BFF36F8F134B1A68EC
:1004C0001EF0100F08BF20ED108A20E9F04F1060D9
:1004D00009B44FF0500080F31188BFF34F8FBFF382
:1004E0006F8F0BF03BFB4FF0000080F3118809BCCD
:1004F00019680868B0E8F04F1EF0100F08BFB0ECA4
:10050000108A80F30988BFF36F8F7047D4000024EE
:10051000EFF305807047000009488047094800470D
:10052000FEE7FEE7FEE7FEE7FEE7FEE7FEE7FEE7A3
:10053000FEE7FEE704480549054A064B7047000000
:1005400075600008CD02000858460124584C01246B
:10055000584801245848012453EA020C00F06980ED
:100560002DE9F04B4FF00006002B1FBFB3FA83F5C7
:1005700003FA05F424FA05F65E4012BF1643B2FAF8
:1005800082F502FA05F4C5F120051EBF22FA05FC2A
:1005900044EA0C04203556EA044C4FEA144418BFD0
:1005A000641C4FF000084FF00009904271EB030CFF
:1005B00039D3002919BFB1FA81F701FA07F6B0FA69
:1005C00080F700FA07F6C7F120071EBF20FA07FCE4
:1005D00046EA0C062037B6FBF4FCA7EB0507103FF4
:1005E00007F01F0BCBF120060CFA0BFB2CFA06F6DA
:1005F00044BFB3460026202FA4BF5E464FF0000B39
:100600005BEA060C08BF4FF0010B19EB0B09ABFBC3
:10061000027C48EB0608C01B06FB02CC0BFB03CC9C
:1006200071EB0C01C1E70B46024641464846BDE866
:10063000F08B13B54FF000004FF00001AFF30080D6
:10064000BDE81C40704700007CB51D4616460C00F6
:10065000009001D02044401E074B7B442A46694647
:100660000190304600F055FA05461CB1002069465D
:1006700000F062FA28467CBDE5040000002000F08E
:100680004BFCFFF7D7FE012000F086F940EA01039A
:1006900010B59B070FD1042A0DD310C808C9121F2B
:1006A0009C42F8D020BA19BA884201D9012010BD65
:1006B0004FF0FF3010BD1AB1D30703D0521C07E032
:1006C000002010BD10F8013B11F8014B1B1B07D196
:1006D00010F8013B11F8014B1B1B01D1921EF1D107
:1006E000184610BD40EA0103024630B59B0710D101
:1006F0004FF0013400E008C208C91D1B9D4315EAF4
:10070000C41FF8D013F0FF0102F8011B0DD01B0A23
:10071000F8E711F8013B002B02F8013B05D011F876
:10072000013B002B02F8013BF3D130BD10B5431C57
:1007300002E010F8011B71B18107FAD14FF00132CC
:1007400002C88C1A8C4314EAC211F9D0C01A0A06E6
:1007500003D0C01E10BDC01A10BD0A0401D0801EF7
:1007600010BD0902FCD0401E10BD40EA010370B567
:100770009B072ED14FF00136042A2AD308C810C98E
:100780009D1B9D43121F15EAC61517D0D8B2E1B2C2
:10079000401A50EA056110D198B2A1B2401A50EA4D
:1007A00005410AD123F07F4024F07F41401A50EAEE
:1007B000052102D1180EA0EB146070BDA342DBD05E
:1007C00018BA21BA884201D9012070BD4FF0FF301C
:1007D00070BD0AB9002070BD10F8013B11F8014B43
:1007E00063B1A3420AD1521E08D010F8013B11F8A0
:1007F000014B1BB1A34201D1521EEDD1181B70BD9C
:10080000032A40F2308010F0030C00F0158011F83C
:10081000013BBCF1020F624498BF11F801CB00F814
:10082000013B38BF11F8013BA2F1040298BF00F868
:1008300001CB38BF00F8013B11F0030300F0258025
:10084000083AC0F0088051F8043B083A51F804CB4C
:10085000A0E80810F5E7121D5CBF51F8043B40F812
:10086000043BAFF30080D20724BF11F8013B11F81D
:1008700001CB48BF11F8012B24BF00F8013B00F861
:1008800001CB48BF00F8012B704710B5203AC0F0EB
:100890000B80B1E81850203AA0E81850B1E8185081
:1008A000A0E81850BFF4F5AF5FEA027C24BFB1E8BE
:1008B0001850A0E8185044BF18C918C0BDE810402F
:1008C0005FEA827C24BF51F8043B40F8043B08BF38
:1008D0007047D20728BF31F8023B48BF11F8012BFF
:1008E00028BF20F8023B48BF00F8012B704702F0F8
:1008F000FF0343EA032242EA024200F002B84FF04B
:1009000000020429C0F0128010F0030C00F01B80DC
:10091000CCF1040CBCF1020F18BF00F8012BA8BFEA
:1009200020F8022BA1EB0C0100F00DB85FEAC17CAE
:1009300024BF00F8012B00F8012B48BF00F8012B61
:1009400070474FF0000200B5134694469646203992
:1009500022BFA0E80C50A0E80C50B1F12001BFF478
:10096000F7AF090728BFA0E80C5048BF0CC05DF8DE
:1009700004EB890028BF40F8042B08BF704748BF2C
:1009800020F8022B11F0804F18BF00F8012B7047A0
:10099000704770477047000001491820ABBEFEE762
:1009A0002600020070B5044685690068C10601D5BD
:1009B000302600E02026C00707D070BDD4E9012111
:1009C00030469047206A401C20626D1EF6D570BDEF
:1009D00070B5044685690078C00707D170BDD4E9B9
:1009E000012120209047206A401C20626D1EF6D510
:1009F00070BD09684A0501D540B27047C905FCD5EC
:100A000000B2704709684A0501D5C0B27047C905F0
:100A1000FCD580B2704770B50C460546012A05D05A
:100A20002878800600D5EA69002302E0012305E06A
:100A30005B1C934202D2E05C0028F9D1A869E61859
:100A4000C01AA861286A184428622846FFF7AAFF3E
:100A500004E0D5E9012114F8010B9047B442F8D322
:100A60002846FFF7B5FF70BD2DE9F041064600248A
:100A700010687529314616A510D0FFF7BAFF002877
:100A800002DA404213A507E031688A0701D512A5B2
:100A900002E0490704D511A5012401E0FFF7B2FFE8
:100AA00000210A2206F1240709E0B0FBF2FCB0FBAA
:100AB000F2F302FB1C00303078541846491C002821
:100AC000F3D123462A463046BDE8F04100F071BA22
:100AD000000000002D0000002B000000200000009E
:100AE00011680268006A530501D508700AE0D30551
:100AF00001D5088006E0130603D5C217C1E900023C
:100B000000E008600120704701694A1C0261087812
:100B1000704700B58FB0CDE901310021059105493D
:100B20007944CDE903101146684600F031F90FB061
:100B300000BD0000E5FFFFFF0A6802F8010B0A6034
:100B40007047D1E900239A4202D2531C0B60107007
:100B5000704700002DE9FF5F15468A460446DFF81E
:100B6000AC80F8440027D8E900103E46CDE90010DB
:100B700010E03AF816106A4602A800F02BFE411C5D
:100B800007D02178890603D5E269391891420DD83A
:100B90000744761C2078800602D5E069B84205DD5E
:100BA000AE42E6DB3AF816000028E2D1A069C01B8D
:100BB000A0612046FFF7F6FED8E90010CDE900104D
:100BC000002017E03AF818106A4602A800F002FE6A
:100BD000B0F1FF3F81460BD000250DF1080B05E079
:100BE000D4E901211BF8050090476D1C4D45F7D352
:100BF00008F10100B0428046E4DB206A38442062FC
:100C00002046FFF7E5FEBDE8FF9F000062B8000048
:100C10002DE9F0418046D21D22F007020025D2E9DD
:100C20000002F52915A614D0011E72F1000106DAA2
:100C30000023D0EB030063EB020211A608E0D8F812
:100C400000108B0701D50FA602E0490701D50EA6BB
:100C500001251146002408F1240704E000F064F99E
:100C600030323A55641C50EA0102F7D12B46324625
:100C700021464046BDE8F04100F09BB9000000006D
:100C80002D0000002B0000002000000030B40021E7
:100C900000F1240408E002F00705D208303542EAEA
:100CA0004372DB086554491C52EA0305F3D104681A
:100CB000002310A2250708D504F020040C4304D01B
:100CC000C46901230CA2641EC46130BC00F071B978
:100CD00010B5044621461068FFF794FE02462046F0
:100CE000BDE810400023D1E7D21D22F00701D1E971
:100CF0000023CBE70000000030000000F0B40D46F8
:100D00000188090502D5214C7C4402E01F4C7C443B
:100D10000E34002100F1240608E002F00F0712094A
:100D2000E75D42EA03721B097754491C52EA030744
:100D3000F3D102780023120704D5702D06D009B133
:100D4000022311342246F0BC00F033B901231034E1
:100D5000F8E770B504460D4621461068FFF752FECD
:100D6000024629462046BDE870400023C6E7D21D52
:100D700022F00703D3E90023C0E70368126843F0B9
:100D8000200303600823C3610023B7E7C4B6000053
:100D90002DE9F05F894604464FF0000ADFF874B190
:100DA000FB44C0F820A02046E1688847002874D0A2
:100DB000252806D0D4E901219047206A401C2062F2
:100DC000F1E700265F462046E1688847202805466F
:100DD00007DB312D05D2781910F8200C08B1064335
:100DE000F1E7B00701D526F00406C4F81CA00027DF
:100DF000C4F818A02A2D09D0284607F000F838B307
:100E000004EB8708303DC8F8185019E059F8041B66
:100E1000204604EB87029161E1688847012F05466F
:100E200018D1E069002820DA26F020061DE0D8F865
:100E3000180000EB800005EB40003038C8F81800BF
:100E40002046E1688847054606F0D9FF0028EED124
:100E5000012F0AD02E2D08D12046E16888477F1C3B
:100E60000546022F46F02006C4DBA069002803DAFD
:100E7000404246F00106A061F00701D026F01006BE
:100E80006C2D0BD0682D09D04C2D39D06A2D35D062
:100E9000742D35D07A2D33D016E038E0E1682F4636
:100EA00020468847B842054609D16C2F26D04FF41A
:100EB0008060E168064320468847054604E06C2FC1
:100EC0001AD04FF4807006430DB3A5F141001928E4
:100ED00002D8203546F400664A4629462046266058
:100EE0004E46FFF74DFA80B101280BD0F61D26F0D3
:100EF000070000F1080956E74020E4E78020D8E722
:100F00000020D6E706F104094DE7284652E7206A9B
:100F1000BDE8F09F54B6000010B500F081FCBDE8BC
:100F2000104000F077BC704730B5B0F10A024FEACC
:100F3000900E71F100034EEA817EB0EB0E0061EB82
:100F400091014FEA101E4EEA017E10EB0E0041EBBC
:100F500011114FEA102E4EEA016E10EB0E0041EB1C
:100F600011214FEA104E4EEA014E10EB0E0041EBFC
:100F70001141401841F100014FEAD00040EA4170B0
:100F80004FEAD10110EB80054FEA810444EA9074E6
:100F900044EB01046D1944EB0404521BA3414FF0D0
:100FA000000348BF0A3200D530BD401C41F10001AA
:100FB00030BD2DE9F0470D4699469246044600F1B2
:100FC00024080168880604D5E06921F01001216039
:100FD00000E00120A84201DD471B00E00027A169D5
:100FE0007A1902EB0900081AA0612078C00602D421
:100FF0002046FFF7D7FC002608E0D4E901211AF8C3
:1010000006009047206A401C761C20624E45F4DBA7
:101010002078C0060AD52046FFF7C4FC06E0D4E9D4
:10102000012130209047206A401C2062381EA7F121
:101030000107F4DC07E0D4E9012118F80500904726
:10104000206A401C2062281EA5F10105F3DC204621
:10105000FFF7BEFC2078000602D50220BDE8F0872D
:101060000120FBE770472DE9FF4F0C461E464FF06D
:10107000FF378BB0D2E90001DDF860800A908A4624
:10108000C1F30A5505B93D46002108464FF000005E
:10109000BAF1000F00F4400005DA00EB80004FF4D5
:1010A000400101EA50004FEA9059B9F1010F00DD0B
:1010B000B9460A9850EA4A000ED044F61050A5F2FC
:1010C000FF3545432F14B8F1000F1ED07542291E7D
:1010D0001EDDC9F100021CE0B8F1010F4FF0000065
:1010E00001D0302103E0F24305E02154401CB0421E
:1010F000FBDB30460022002121540B99C1F8088007
:10110000C1E900200FB0BDE8F08FBD1B6D1CDEE70C
:101110004A4600DA694206A800F00CFC06AB93E8E8
:10112000070003AB83E8070050460A9900F0CEFCA5
:101130008DE80700A0F500501F3800900398002D9F
:1011400009DD42F21F014A46084403A9039068469C
:1011500000F02DFF08E0A0F500504A461F3803A913
:101160000390684600F037FF8DE807000004000C8C
:1011700003D04FF0FF30410800E01046B8F1000FF7
:1011800003D00022009215461EE0751E05D4FFF71D
:10119000CBFE303262556D1EF9D5B34601220843AD
:1011A00002D000227F1C04E02078302801D10022E8
:1011B0007F1E002A099786D01DE0112D07DAFFF760
:1011C000B3FE303262556D1C50EA0102F5D108437E
:1011D00002D00098C8B10EE00021681E05E0235C33
:1011E000625C63542254401E491C8142F7DBAB46CB
:1011F000A81B401E0990002004F80B000B98099AC8
:10120000C0F80880C0E9002B7CE711264FF00008E9
:1012100059E72DE9F04F88460446D21D22F0070118
:1012200091B0D1E90001CDE90A0106F0AAFD02461C
:101230000B98C00F01D02D2007E02068810701D551
:101240002B2002E0202101EAC000032A099001D0EE
:10125000072A05DB03464146204600F02BFB0BE145
:101260002078800601D5E06900E00620B8F1650F1E
:10127000814606D0B8F1660F18D0B8F1670F70D16B
:1012800031E00020B9F1110F009001DB112301E0E2
:1012900009F101030AAA01A90CA8FFF7E4FEDDE9A0
:1012A0000C70002609F10105834647E001204B46FA
:1012B00000904FF000470AAA01A90CA8FFF7D3FE3F
:1012C000DDE90DB00C995D46002610B909F1010069
:1012D0000D18B9EB050003D4C0F1FF3609F1010583
:1012E000A5EB09002BE0B9F1010F01DA4FF001097C
:1012F0000020B9F1110F0090484601DD112300E0F4
:1013000003460AAA01A90CA8FFF7ADFEDDE90C709F
:101310004D4600268346207800070AD4AB4500DA04
:101320005D4601A8012D04DD411911F8011C302989
:1013300007D04F4502DA17F1040F04DA0120824684
:101340000FE06D1EEEE7002F02DCED1B3E4403E0D4
:10135000781CA84200DD7D1CB81B00F1010A4FF08B
:1013600000472078000703D4AA4501DB4FF0FF3A7D
:101370000021B7F1004F0DF143088DF8431024D040
:1013800002202B23002F01DA7F422D230A21021E87
:10139000A0F1010000DC5FB197FBF1FC97FBF1F2DB
:1013A00001FB1C7C17460CF1300C08F801CDEEE770
:1013B000A8F1010003702188090501D5452100E04D
:1013C0006521A0F1010800F8011C09980FA9A1EB03
:1013D0000807FF1D00B10120411901EBEA70A16966
:1013E0003844081A401EA0612078C00602D4204666
:1013F000FFF7D8FA099828B1D4E901219047206A6B
:10140000401C20622078C00622D52046FFF7CAFA89
:101410001EE0002E04DBB34502DD01A8805D00E084
:101420003020D4E901219047206A401C2062761CBC
:10143000AAF101005FEA000A0AD100F037FAC06899
:101440000168405CD4E901219047206A401C206279
:10145000281EA5F10105DCDC07E0D4E9012118F81C
:10146000010B9047206A401C2062381EA7F101073B
:10147000F3DC2046FFF7ACFA032011B043E600008E
:101480002DE9F04F04460D46D21D22F0070089B029
:10149000D0E9009248461746394606F072FC0246EB
:1014A000F80F01D02D2307E02068810701D52B23F9
:1014B00002E0202101EAC0038DF820300BB10120A9
:1014C00000E00020032A824601D0072A04DB2946D7
:1014D000204600F0EFF93DE12078800601D40D258B
:1014E00000E0E569C7F30A560D2D49DA00214FEAFD
:1014F000175B08464FF00000002F00F4400007DAA9
:1015000000EB80004FF4400100EBD07001EA600076
:101510008115012901DD4FF0FF3100224FEA850CD2
:10152000BCF1180F06D31346ACF118004FF08052EF
:10153000C24003E04FF4801323FA0CF30CF10C0CBF
:10154000BCF1200F04D3ACF1200C09FA0CF001E03F
:1015500007FA0CF000294FF0004801DD18B90FE040
:101560000ED140450CD319EB02095F4121B940452A
:1015700002D19F4329EA0209BBEB175F00D0761C1A
:101580002088000502D57B48784402E079487844F9
:10159000193808AA302302F80A30037C0AF1010145
:1015A000002E0AF1020A53546A4602DC4FF0300161
:1015B00001E04FF031014FF001088DF8001002D02A
:1015C000A6F2FF3603E059EA470100D06A4E002D2B
:1015D00002DC2178090704D54FF002082E218DF88E
:1015E0000110C44600210BE0C7F303433F01C35C75
:1015F000491C6D1E02F80830052908F1010801DABE
:10160000002DF1DC00210CE000EB1973491C1B7864
:101610006D1E082902F808304FEA091908F101087F
:1016200001DA002DF0DC2178890602D514E0A8F15A
:101630000108E04505DD02EB080111F8011C302925
:10164000F5D0B8F1000F07DD02EB080111F8011C1D
:101650002E2901D1A8F10108002D05DD3E2102F857
:1016600008106D1E08F10108407C002E02F80800E9
:1016700008F1010804DA2D20764202F8080002E0A1
:101680002B2002F808000A214FF47A70864208F1F4
:1016900001080BDB96FBF0F3303302F8083096FBC1
:1016A000F0F308F1010800FB136601E0642E0CDB87
:1016B000642096FBF0F3303302F8083096FBF0F329
:1016C00008F1010800FB136601E00A2E06DB96FB19
:1016D000F1F0303002F8080008F1010896FBF1F053
:1016E00001FB1060303002F80800A16908F1010820
:1016F00008EB050202EB0A00081AA0612078C00678
:1017000002D42046FFF74EF9216A08AE01EB0A0029
:10171000206204E0D4E9012116F8010B9047BAF1E8
:10172000010AF7D22078C00602D52046FFF73AF921
:101730006E4609E016F8010B3E280FD0D4E90121CE
:101740009047206A401C2062B8F10108F2D220467E
:10175000FFF73EF909B00320BDE8F08F206A284466
:10176000206203E0D4E90121302090476D1EEBD3C5
:10177000F8E7000090AE000002FCFFFF10B54369DF
:1017800013B1AFF3008001E0FFF745F9012010BD70
:10179000127800F124010A7000224A700122EDE75C
:1017A00011684FF0FF32E9E710B5436913B1AFF3A9
:1017B000008001E0FFF7CEF9012010BD128800F192
:1017C000240182840022C2840122EDE711684FF0D7
:1017D000FF32E9E770B516460C46054600F05EF8A4
:1017E000036893F80101012806D0FF2C0FD8185D7B
:1017F00068B101202C7070BDD3F807013246214634
:1018000003F2071303442846BDE8704018474FF021
:10181000FF3070BD002801D0FFF7BEB87047000050
:1018200010B5002102A000F0F9F8012010BD000061
:10183000534947414252543A2041626E6F726D6182
:101840006C207465726D696E6174696F6E00000062
:10185000754600F003F9AE4605006946534620F090
:101860000700854618B020B5FEF764FEBDE82040AD
:101870004FF000064FF000074FF000084FF0000B4C
:1018800021F00701AC46ACE8C009ACE8C009ACE8FF
:10189000C009ACE8C0098D467047000010B500F0E3
:1018A00005F8001D10BD00BF61A70000004870478B
:1018B000184601242DE9F0411F460446032601681D
:1018C000072A01F4006004DB08B116A505E016A59F
:1018D00003E008B115A500E015A521F01000206077
:1018E000A069C01EA0610FB1401EA0612046FFF795
:1018F00059F84FB1D4E9012138469047206A401C7D
:101900002062C01C206206E0206AFAE7D4E90121C7
:1019100015F8010B9047761EF8D22046FFF758F8CD
:10192000BDE8F0814E414E006E616E00494E4600AA
:10193000696E66002DE9F047814616468AB0334845
:1019400078440DC88DE80D0030487844801C03AC05
:101950000DC884E80D0041F69B300844372190FB08
:10196000F1F290FBF1F5A5F1800501FB12041B3C9F
:1019700002D56442012000E00020DFF890A08046FC
:101980000027FA44AAF1BE0A0DE0E00709D032466A
:10199000684607EB47010AEB810100F01CFB8DE86C
:1019A000070064107F1C002CEFD1184F7F44AC3F20
:1019B00018E0E80714D007EB04100DF1180A90E8BE
:1019C0000E008AE80E00C068F04201D19819089014
:1019D000324606A903A800F0FEFA03AB83E807002D
:1019E0006D10641C002DE4D132466946B8F1000F39
:1019F00003A802D000F0DBFA01E000F0ECFAC9E93C
:101A00000001C9F808200AB0BDE8F08768AB000003
:101A10000446AFF300802046FEF717FD70B505467B
:101A20000C460A2000E06D1C00F011F835B1287852
:101A30000028F8D102E0641C00F009F814B1207805
:101A40000028F8D1BDE870400A20AFF3008008B547
:101A500069468DF800000320ABBE08BD0048704702
:101A6000F84501244FF0013C50F8042B51F8043B99
:101A70009A4215D1A2EB0C03934313EACC130BD17A
:101A800050F8042B51F8043B9A4209D1A2EB0C0305
:101A9000934313EACC13E7D04FF00000704700BF28
:101AA000D01A01BAB1FA81F101F0180122FA01F05D
:101AB000CB40C1F12001DBB2C0B2C01A2CFA01F355
:101AC000D11A914311EAC311E6D170475FEA400C85
:101AD00008BF91F0000F4FEA8C234FEAC12243EA7E
:101AE00051514FEA1C5018BF00F5F0404FEA30004A
:101AF00018BF41F000415FEA6C5C00F02980BCF146
:101B0000FF3F08BF40F080407047130C06BF12042F
:101B10004FF0100C4FF0000C130E04BF12020CF12A
:101B2000080C130F04BF12010CF1040C930F04BF37
:101B300092000CF1020CD30F04BF52000CF1010C07
:101B400011464FF00002A0F11F00A0EB0C007047FF
:101B500011F0004F08BF704731F000413FF4D5AF9E
:101B60000B0C06BF09044FF0100C4FF0000C0B0ECD
:101B700004BF09020CF1080C0B0F04BF09010CF1A2
:101B8000040C8B0F04BF89000CF1020CCB0F04BFB7
:101B900049000CF1010CCCF12003A0EB0C0022FA5F
:101BA00003F302FA0CF241EA030100F1010070476D
:101BB00020F07F4C80EA030023F07F47ACEB070363
:101BC00003F57C5300F0004003F1FF032DE9804949
:101BD0004FEA154B09B44FEA144325EA0B4E24EAA9
:101BE00003480FF2042606EB132749083E785FEA04
:101BF000320203FB0667C7F5000707FB06F64FEA4C
:101C000054374FEAD64606F1020607FB066CCCF1C4
:101C1000005C4FEA1C472CEA074C07FB06F40CFB60
:101C200006F504EB15464FEA961634BF00204FF038
:101C300000404FEAD13706FB07FC4FEA1C4C0CFB77
:101C40000BF7D21B03FB0CF761EB07010CFB0EF744
:101C5000B0EB074072EB17420CFB08F734BFA2EB66
:101C60000742B2EB074261EB17414FEA0C444FEADF
:101C7000910706FB07FC4FEA1C4C0CFB0BF7B0EB83
:101C8000C74072EB573203FB0CF734BFA2EBC742DD
:101C9000B2EBC74261EB57310CFB0EF7B0EBC7005C
:101CA00072EB57720CFB08F734BFA2EBC702B2EB22
:101CB000C70261EB5771039F4FEA816141EA9211BC
:101CC00004EBCC044FEAD1374FEA826206FB07FCF3
:101CD00042EA90124FEA80604FEA1C4C0CFB0BF773
:101CE000D21B03FB0CF761EB07010CFB0EF7B0EB0B
:101CF000074072EB17420CFB08F734BFA2EB074218
:101D0000B2EB074261EB17414FEA8C554FEA91075E
:101D100004EB9C2406FB07FC4FEA1C4C0CFB0BF766
:101D2000B0EBC74072EB573203FB0CF734BFA2EBAA
:101D3000C742B2EBC74261EB57310CFB0EF7B0EB79
:101D4000C70072EB57720CFB08F734BFA2EBC70257
:101D5000B2EBC70261EB577115EB4C254FEA81617D
:101D600041EA92114FEA82624FEAD13742EA901279
:101D700006FB07FC44F100044FEA80604FEA1C4C6C
:101D80000CFB0BF7D21B03FB0CF761EB07010CFB01
:101D90000EF7B0EB074072EB17420CFB08F734BFAD
:101DA000A2EB0742B2EB074261EB174115EB1C15A2
:101DB0004FEA813141EA92414FEA823242EA90424F
:101DC0004FEA80304FEA0C7644F1000448EA0343BE
:101DD0004EEA0B484FF0000EB2EB080C71EB030714
:101DE00024BF624639464EEB0E0E4FF0000B001832
:101DF000524149414BEB0B0BB2EB080C71EB030763
:101E00007BF1000B24BF624639464EEB0E0E4FF0BD
:101E1000000B0018524149414BEB0B0BB2EB080C85
:101E200071EB03077BF1000B24BF624639464EEB92
:101E30000E0E51EA020718BF46F0010616EB0E76A9
:101E400055F1000254F1000103D5BDE88901BDE858
:101E50000088BDE88901BDE80048B619524141EB50
:101E60000101A3F10103704780807F7E7D7C7B7A36
:101E70007978777676757473727171706F6E6E6D36
:101E80006C6C6B6A6A6968686766666564646363DC
:101E900062616160605F5F5E5E5D5D5C5C5B5B5A62
:101EA0005A595958585757565655555554545353CF
:101EB00052525251515050504F4F4F4E4E4D4D4D2A
:101EC0004C4C4C4B4B4B4A4A4A4949494848484775
:101ED00047474746464645454544444444434343B3
:101EE0004342424242414141002B26D4770021D057
:101EF0001CB54FEA370703B44FF010004FF0100144
:101F00004FF000000FBCBDE810400BF1010BBBF11E
:101F1000010F08BF5FEA170722BF12F1010211F19A
:101F200001014FF0004143F1000300F0004043EA9B
:101F300000007047F9D35708DAE746EA064613F17E
:101F4000400F4FEA16461FDD13F1200FDFBF164387
:101F50000A46002120335B42C8D0C3F1200746EA7D
:101F6000064602FA07F74FEA164646EA0706C3F1A5
:101F7000200722FA03F201FA07F721FA03F14FF0E2
:101F8000000342EA0702B1E746EA020646EA0646CD
:101F90004FEA164646EA0106BCBF46EA0646360C3C
:101FA0004FF000034FF000024FF000019EE72DE9D3
:101FB000C048934630B491E8380007C831EA400C75
:101FC00048BF34EA430C03D5FFF7F2FDFFF78CFF5F
:101FD000F0BCBDE800882DE9C048934630B491E8D4
:101FE000380007C810F0804F08BF13F0804F03D1AE
:101FF00000F005F8FFF778FFF0BCBDE8008820F09E
:102000007F4780EA030023F07F4C07EB0C03A3F526
:102010007C5300F00040A3F1FE0392F0000F00F0AB
:10202000B38095F0000F00F077802DE901494FEA69
:1020300011404FEA144621EA004800FB06FC24EA5E
:10204000064708FB06F607FB08F800FB07F718EB46
:1020500006484CEB164C4FEA124B18EB07484FEA78
:1020600015464CEB174022EA0B4E0BFB06FC25EA0B
:1020700006470EFB06F607FB0EFE0BFB07F71EEBF3
:10208000064E4CEB164C4FF000061EEB074E4CEB89
:10209000174B18EB0B0840F1000018EB0E0B58EB38
:1020A000000840F100008F1A4FF000013CBFC94307
:1020B000661B14BFB5EB040C00213CBFC943F61BE3
:1020C0004FEA17444EEA8E0E27EA04454FEA1C47B2
:1020D00004FB07622CEA074C05FB07F70CFB05F62F
:1020E00004FB0CFC16EB074642EB174216EB0C46C2
:1020F00042EB1C421BEB060658EB0202414146EA4A
:102100009E0601D5BDE80189B619524141EB010196
:10211000A3F10103BDE801894FEA14454FEA1147D5
:1021200024EA054621EA074C05FB07F406FB07F7FE
:102130000CFB06F105FB0CFC11EB074144EB1744CB
:102140004FEA124711EB0C4144EB1C4422EA074CC6
:1021500005FB07F206FB07F70CFB06F605FB0CFC7C
:1021600016EB074642EB174216EB0C4642EB1C45BA
:102170006A1854F1000148BF7047B619524141EB4B
:102180000101A3F10103704795F0000F37D04FEA2A
:1021900011424FEA144721EA024624EA074C02FBA7
:1021A00007F106FB07F70CFB06F402FB0CFC14EB33
:1021B000074441EB17414FEA154714EB0C4441EB40
:1021C0001C4125EA074C02FB07F506FB07F70CFB51
:1021D00006F602FB0CFC16EB074645EB174516EB23
:1021E0000C4645EB1C42121951F1000148BF7047E3
:1021F000B619524141EB0101A3F1010370474FEAC7
:1022000014454FEA114724EA054621EA074C05FB2D
:1022100007F106FB07F70CFB06F24FF0000605FB83
:102220000CFC12EB074241EB174112EB0C4251EB55
:102230001C4148BF7047921841EB0101A3F1010313
:102240007047FEE7002070470020704705490022D4
:10225000054810B504F0CCF90449034804F0BBF973
:10226000002010BD204100244434002420390024E3
:1022700010B518B111B1096809F014F804490548FE
:1022800004F0A9F9034804F07FF9002010BD000014
:10229000203900244434002410B509F027F8002028
:1022A00010BD00000A46094910B5D1F8BC1211B1A1
:1022B000D1F8141209B1012010BD0146034804F001
:1022C00097F9BDE81040014804F008BA44340024EE
:1022D000704772B6FEE70000014800F03BBB00000B
:1022E00018320024014800F035BB000018320024E9
:1022F000014800F02FBB0000B8320024014800F074
:1023000029BB0000B8320024014800F023BB0000C4
:1023100058330024014800F01DBB0000583300244E
:10232000F0B503684FF6FC716D4C426BD3F88450E6
:102330008D4345EA8205C3F88450036853F8845FEF
:10234000068F25F47F0545EA06451D60836B654DC4
:102350009F180268D2F888308B4343EA8703C2F89B
:102360008830026852F8883F868F23F4FE0343EAE0
:1023700006431360066856F8A03FC26B8B4307EB19
:10238000420243EA82033360076857F8A03FB0F87F
:10239000406023F4FE0343EA06433B60D0E9103675
:1023A00003FB06220368D3F8B0608E4346EA820638
:1023B000C3F8B0600368B0F84860D3F8B07027F491
:1023C000FE0747EA0646C3F8B060D0E91267036823
:1023D00006FB0722D3F8AC608E4346EA8206C3F8B8
:1023E000AC60D0E91467036806FB0722D3F8F060FD
:1023F0008E4346EA8206C3F8F0600368B0F858607E
:10240000D3F8F07027F47C1747EA0646C3F8F0606B
:102410000368876D53F8C06F02EB47028E4346EAAC
:10242000820119600168B0F85C20D1F8C03023F453
:102430007C1343EA0242C1F8C020016890F8602092
:10244000D1F8C03023F07C5343EA0262C1F8C020C7
:10245000416B04EB8101C166826B01EB8202026772
:10246000C36B02EBC3024267D0E91034634302EB53
:1024700083028267D0E91234634302EB8302C267AE
:10248000D0E91434634302EB8302C0F88020836DEB
:1024900002EBC303C0F88430C46D826E544303EB77
:1024A0008403C0F88830046E544303EB8402C0F800
:1024B0009020AA420AD9D0F89C20032142F02002A1
:1024C000C0F89C2080F898100120F0BD002200E0A8
:1024D00004C1D0F890308B42FAD80020F0BD000043
:1024E00000AC0040FCD30040F0B58E680C69D1E927
:1024F000005744EA0604DFB145F080452C43866E60
:10250000D1E906C54F695E4391F8203045EA0C05D4
:10251000B1F80CC0D0F884E0002047EA03630C4F08
:102520001D430EEB860345EA0C45E3E802450AE04D
:1025300044EA8544E3E71418155C001DD4F8014013
:1025400045EA042410C3CC683C5D8442F3D8F0BD56
:10255000F0C0000870B5044600F082FF0546601C1C
:1025600002D004480078044400F07AFF401BA042E7
:10257000FAD370BD9000002410B590F89830012B6C
:1025800009D0022B07D0D0F89C1041F00201C0F80E
:102590009C10012010BD03689C6D0C4203D1DC6DC2
:1025A00044F0010404E09C6D31EA04041FD00324CC
:1025B000DC658B0505D50368D3F8E0401443C3F808
:1025C000E0404B0505D50368D3F8E4401443C3F855
:1025D000E4400068084A01EA0203446D074A1C43CC
:1025E0004465106840EA91701060002010BDDC6DF9
:1025F00044F00204DCE70000FFFFCF3F14A80040D6
:1026000070B5044690F89800022804D0D4F89C00D5
:1026100040F008000DE02068D0F8C03013F07C5F77
:102620000BD0D0F8C4309B020CD5D4F89C0040F4F9
:102630000070C4F89C00012070BDD4F89C0040F0EC
:102640002000F6E7D0F8C400C0F3044520462B462E
:10265000FFF74AFF21680120A840C1F8D000C4F864
:102660009400002070BD704790F89830012B07D07F
:10267000D0F89C1041F00401C0F89C100120704774
:1026800061B10068012913D0D0F8B01021F0FE41EB
:1026900041EA0261C0F8B010002070470068D0F82D
:1026A000F01021F07C5141EA0261C0F8F010F3E72C
:1026B000D0F8A01021F0FE4141EA0261C0F8A0105C
:1026C000EAE770B590F89820012A09D0022A07D0CD
:1026D000D0F89C1041F00201C0F89C10012070BDA0
:1026E0000B68CA6883B10B69072A43EA427325D095
:1026F0000C7A4A6942EA84724968006F00EBC100B3
:10270000C0E90032002070BD072A0DD00C7AD60631
:102710000D8A4B6943EA847246EA0543C06E4968F4
:102720001A4340F82120EDE70B8A4FF06055D1E9BC
:10273000062442EA034245EA0423EFE78A69DBE71D
:1027400030B590F89850039C012D07D0D0F89C101C
:1027500041F00401C0F89C10012030BD0D0101685A
:1027600045EA820040EA43002043C1F8800000208F
:1027700030BD7047074A10B590420AD1880108D58C
:10278000054806F0EBF80548002101764169491C2F
:10279000416110BD1832002410B30024EC0801245C
:1027A0000068402905D0D0F8B40000BF00F07F00D9
:1027B0007047D0F8A400F9E7F0B590F898500024DD
:1027C000022D04D0D0F89C1041F0080129E04029E6
:1027D00005D0412929D0056D8D4219D942E00568FF
:1027E000D5F8A06016F4FE0F12D0D5F8A4607606D6
:1027F00013D0D5F8A460F60105D5D5F8A06016F081
:10280000004F00D50124D5F8A470466F456C24E034
:10281000D0F89C1041F0200103E0D0F89C1041F466
:102820008071C0F89C100120F0BD0568D5F8B0603B
:1028300016F4FE0FECD0D5F8B4607606EDD0D5F8DE
:10284000B460F60105D5D5F8B06016F0004F00D59C
:102850000124D5F8B470866FC56CC7F305273C44D6
:10286000654302E0456DC66F4D4306EB85052E6856
:1028700016F0804656602E6836D026F06046166008
:10288000D5F800C000262E4F0CF0005CC2F808C03E
:10289000D5F800C00CF0004CC2F810C0B5F804C068
:1028A0001FFA8CFCC2F81CC0D5F804C0CCF3034C52
:1028B000C2F80CC0D5F804C00CF4801CC2F814C0D7
:1028C000D5F804C00CF4001CC2F818C0D5F804C038
:1028D000CCF3066CC2F820C0D5F804C008354FEA26
:1028E000DC7CC2F824C008E0C6F38A46C7E700BF14
:1028F00015F806C003F806C0761CD2F80CC017F80D
:102900000CC0B445F4D840290AD041290CD0202964
:102910004FF001020CD200688A40C0F898200DE008
:102920000068C0F8A84009E00068C0F8B84005E0B9
:10293000006801F01F018A40C0F89C200020F0BD13
:10294000F0C000080068D0F8C40000F03F007047F5
:10295000704700002DE9FF5FDFF80CB304460BF170
:102960000401DBF8000025680F68AA468007D5F847
:102970005090696DD5F850806E6D2A6DD5F854C0B1
:102980002B6D00EA8770009009F470496F6D286D17
:1029900001EA09010191DAF85410DAF85490DAF8F2
:1029A000505008F00F0806EA0806029602F0F002FE
:1029B00003F071536FEA09061F4000F060700CEAE3
:1029C000020CCDF80CC0F20501EA00090CD4E84372
:1029D000C00509D400214FF48073CAF85030CBF8F9
:1029E00000102046FFF7B4FF700512D4E8434005FD
:1029F0000FD4206800234FF48068D0F8DC20D0F892
:102A0000E410C0F85080CBF800301140204600F0B0
:102A100014FCDFF858A2009850B12268830F00EA36
:102A20000A001065CBF8003020460099FFF71BFE26
:102A3000019850B12268830F00EA0A001065CBF8B4
:102A400000302046019900F0FAFB029850B122684C
:102A5000830F00EA0A001065CBF800302046029987
:102A600000F012FB039850B12268830F00EA0A00BD
:102A70001065CBF800302046039900F07FFB30054D
:102A80000CD4E843000509D4236800204FF4006209
:102A90001A65CBF80000204600F0D2FBB00512D436
:102AA000E84380050FD4206800234FF40078D0F865
:102AB000D820D0F8E010C0F85080CBF8003011409A
:102AC000204600F0BBFB30030CD4E843000309D4DC
:102AD000236800204FF400221A65CBF8000020463E
:102AE00000F0D0FAF0030CD4E843C00309D4236803
:102AF00000204FF480321A65CBF80000204600F029
:102B00009BFB70030CD4E843400309D422680020E7
:102B10004FF480231365CBF80000204600F08BFBB8
:102B2000B0030FD4E84380030CD4236800204FF493
:102B300000321A65CBF80000D4F89C0040F0800009
:102B4000C4F89C00B9F1000F0BD022684FEA9973CA
:102B500009EA0A001065CBF8003049462046FFF725
:102B600009FE5FB12268BB0F07EA0A001065CBF8C7
:102B70000030D4F89C003843C4F89C003C492068DD
:102B8000884268D1606881468068800763D0D9F840
:102B90002060D9F82410D9F82080D9F82400D9F879
:102BA00020C0D9F82470D9F82030D9F82450D9F8A9
:102BB000202003F4FC4306F00F0AD9F824601D40DE
:102BC000D9F824B008F030080CF4C07C02F4F022EC
:102BD00011EA0A0100EA080807EA0C0706EA0206F9
:102BE000D9F820A004D0C9F82010204600F020FB1E
:102BF0005FEA080005D0616808624146204600F09F
:102C000019FB6FEA0B0040060ED46FEA0A0040067B
:102C10000AD460684021C36BC26B01622046190C64
:102C200002F03F0200F005FB2FB1606807623946F1
:102C3000204600F0FCFA35B160680562D4F89C00CB
:102C40002843C4F89C0036B160680662D4F89C0042
:102C50003043C4F89C00D4F89C00002802D02046E1
:102C6000FFF787FDBDE8FF9F10A80040FFFFCF3FA3
:102C700000A000402DE9F04194B08D494C2204465B
:102C80006846FDF702FE64B18A4D2068A84202D171
:102C900000F58070606094F898004FF0000820B153
:102CA00008E0012014B0BDE8F081204684F8998046
:102CB00000F002F92068816921F01001816100F0C3
:102CC000CFFB0327064604E000F0CAFB801B0A285E
:102CD00011D8206880690007F6D42068816941F026
:102CE0000101816100F0BCFB06460DE000F0B8FB7D
:102CF000801B0A2808D9D4F89C0040F00100C4F8D1
:102D00009C0084F89870CCE720688069C007EDD0FB
:102D10002068816941F002018161207C01282068DE
:102D2000816937D041F040018161607C01282068D1
:102D3000816932D021F480418161A07C0128206822
:102D400081692DD041F4805181612068A268816938
:102D500021F44071114381612068816921F0A4014F
:102D600081612068016921F010010161E06801289A
:102D700019D010B302281BD02068816941F080016E
:102D800081612068016941F010010161E068032858
:102D90000ED012E021F04001C6E741F48041CBE7BC
:102DA00021F48051D0E72068816941F0040103E0FB
:102DB0002068816941F020018161207E6FF0FF026F
:102DC000D4E90773A68A1102400602EB0727A0F197
:102DD0000070384327685B1E184301EB06463043FA
:102DE000F861A068B0F5407F11D104F12800A68CED
:102DF0006FF00F0C89C801EB0641401E02EB032265
:102E0000104322680CEB071318430843D060206E70
:102E100030B12068626ED0F8C0101143C0F8C01005
:102E2000D4E917126846D14209D02168A36E51F83F
:102E3000C82F50F8233022F007021A430A60216C91
:102E400049B12168626C51F8BC3F50F8226023F010
:102E5000070232430A60A16C51B12168E36C51F85A
:102E6000BC2F50F8233022F0700242EA03120A60AD
:102E7000216D51B12168626D51F8BC3F50F82200BC
:102E800023F4E06242EA002008602068A84204D1EE
:102E90006068816821F003018160C4F89480012199
:102EA000C4F89C8084F898102046FFF739FAF9E6B8
:102EB00000C1000800A000402DE9F047B4B08146F1
:102EC00014212EA8FDF73DFDB8216846FDF739FD18
:102ED000664C0026D9F800004FF08051644A0C3C43
:102EE000614F4FF00208614D9042DFF888A14FF02A
:102EF000090938D100201B914A13CDE9002068460A
:102F000001F0FCF808B1FFF7E4F93868401C3860BC
:102F1000012807D1286840F480702860286800F4F0
:102F200080703390206840F0080020602068032201
:102F30002E922EA900F00800CDE92F863196CDE91A
:102F40003290504600F07EF900220521132000F057
:102F500037FB132000F026FB00220521152000F08E
:102F60002FFB15203BE0444A90423DD100201B91AD
:102F70004FF40042CDE90020684601F0BFF808B1E7
:102F8000FFF7A7F93868401C3860012807D1286886
:102F900040F480702860286800F4807033902068C6
:102FA00040F002002060206860222E922EA900F0DE
:102FB0000200CDE92F863196CDE932902F4800F0FE
:102FC00041F900220521142000F0FAFA142000F043
:102FD000E9FA00220521162000F0F2FA162000F08E
:102FE000E1FA34B0BDE8F087254A9042F9D10020DB
:102FF0001B914FF40042CDE90020684601F07EF8B5
:1030000008B1FFF766F93868401C3860012807D11D
:10301000286840F480702860286800F4807033903D
:10302000206840F00800206020684FF440512E9145
:10303000052200F00800CDE92F862EA93196CDE9B2
:103040003220504600F0FEF8002205219F2000F0BB
:10305000B7FA9F2000F0A6FA00220521A02000F078
:10306000AFFAA020BBE7000018000024EC4402588F
:1030700000A00040000C025800A4004000040258C8
:1030800000D40040704700002DE9F04F374A97B058
:1030900082464FF00007904264D1C80762D00026F4
:1030A000334DB1464EE0282104A8FDF74AFC4021EB
:1030B00050460EABCDF8389004AACDF83C90FFF7FF
:1030C0007BFB18B16868401C686041E0059830BB24
:1030D000069820BB0A9810BB099800BB0498B0F56D
:1030E000006F1CD2DDF81C8000240DF1480B204637
:1030F00001A908F0A3F870B1019941450BD18BF8F3
:1031000000400EAA04989DF8483081B213A805F03B
:10311000FBFB20B907E0641CE4B2082CE7D968681F
:10312000401C68600AE0134813A905F04AFC18B176
:10313000A868401CA86001E07F1CFFB2761CF6B2B4
:10314000202E05D240215046FFF72AFB0028AAD1A5
:10315000002F07D008480068002803D017B0BDE84A
:10316000F04F004717B0BDE8F08F00001832002480
:10317000EC08012410B30024C8000024704790F824
:103180009810012907D0D0F89C1041F00401C0F834
:103190009C1001207047022180F8981000220168DD
:1031A0008B6923F001038B61C0F89C2010467047A7
:1031B00010B590F898100022022906D0D0F89C1083
:1031C00041F00801C0F89C1012E0016803238C69EB
:1031D00044F001048C6101680DE0322A0AD900BF75
:1031E000D0F89C1041F00101C0F89C1080F8983094
:1031F000012010BD521C8C69E407EED08C690022BE
:1032000024F010048C61016802E0322AE8D8521CD4
:103210008C692407F9D48C690023012244F002044C
:103220008C61C0F8943080F89820184610BD704723
:1032300070477047704770477047704770477047D6
:10324000704700002DE9F84F03247A4D00234FF01A
:1032500001094FF0B04B4FF00F0AE4E009FA03F612
:10326000324078D00F7907F00307012F01D0022FE9
:103270001AD187684FEA430ED1F80CC004FA0EF851
:1032800027EA08070CFA0EFC4CEA070CC0F808C045
:10329000476891F804C0B743CCF3001C0CFA03FC58
:1032A0004CEA070CC0F804C00E79F643B6070BD001
:1032B000C6684FEA43088F6804FA08FC26EA0C0641
:1032C00007FA08F73743C7600E7906F00306022EA7
:1032D00012D1DE080F694FEA437C00EB8606B64642
:1032E000366A4FEADC6C0AFA0CF807FA0CF726EAA1
:1032F00008063743CEF820700F7906684FEA430876
:1033000007F0030704FA08FC07FA08F726EA0C0698
:10331000374307604E6816F4403F1CD0464E37686E
:1033200047F00207376036689F0706F002060096EE
:1033300023F0030606F1B046B6463F0FD6F8086400
:10334000DFF8F8800AFA07FC404526EA0C0603D1AC
:103350004FF0000C3AE065E0DFF8E4C0604502D1D0
:103360004FF0010C32E0DFF8DCC0604502D14FF0D5
:10337000020C2BE0DFF8D0C0604502D14FF0030C07
:1033800024E0DFF8C8C0604502D14FF0040C1DE016
:10339000DFF8BCC0604502D14FF0050C16E0DFF845
:1033A000B4C0604502D14FF0060C0FE0DFF8A8C0B2
:1033B000604502D14FF0070C08E0DFF8A0C060457F
:1033C00002D14FF0090C01E04FF00A0C0CFA07FC97
:1033D0004CEA060CCEF808C44F68DBF80060FF0228
:1033E00026EA020600D516435F46CBF80060D1F806
:1033F00004C0DBF804605FEA8C2C26EA020600D5E4
:1034000016437E606E684F6826EA0206BF0300D549
:1034100016436E602E684F6826EA0206FF0300D549
:1034200016432E605B1C0A6832FA03F67FF416AF6F
:10343000BDE8F88F80000058F4440258000002589C
:103440000004025800080258000C025800100258EC
:103450000014025800180258001C02580024025898
:10346000014880687047000090000024014800680F
:103470007047000000E8F11F014800687047000035
:1034800004E8F11F014800687047000008E8F11FD8
:1034900002488168027811448160704790000024DE
:1034A000032010B500F0ACF801F056FC0F4A1049AB
:1034B00014681368C4F3032203F00F038A5CC95C29
:1034C00002F01F0201F01F01D0400A4A20FA01F168
:1034D0001160094908600F2000F010F808B10120C0
:1034E00010BD00F04DF8002010BD00001844025837
:1034F0004CC10008A00000249C00002410B5102836
:1035000004468AB02AD200220146A12000F058F8D1
:10351000A12000F047F8154804601548016841F003
:1035200080710160006808A900F080700990684609
:1035300001F0B0FB01F0FEFB0E49400000220E4CF2
:10354000B0FBF1F10D4840F2E7330460C0E903320B
:10355000491EC0E9011201F031FF10B101200AB08B
:1035600010BD064801F05CFFF9E70000940000245C
:10357000EC44025840420F0000E00040F8330024C1
:10358000074882B0016841F0020101600068002232
:103590000F2100F002000090901E02B000F010B861
:1035A000F4440258002809DB410900F01F02890099
:1035B000012001F1E0219040C1F8000170470000B6
:1035C0000E4BF0B41B680D46C3F30223C3F107068C
:1035D000042E00D90426191D072901D2002300E07A
:1035E000DB1E012404FA06F19C40491E2940641E9A
:1035F000994014402143F0BC04F0F0BB0CED00E016
:10360000064900F0070210B54FF6FF040868044BA6
:10361000204040EA02201843086010BD0CED00E095
:103620000000FA0501680123C0F8D834002280F8B0
:10363000CC248869044A40F000608861486D1043DA
:1036400048650020704700000300001070470068C4
:10365000416200207047F0B503685D6A39B19F6A26
:103660004C1E00204FF4827605EB17450BE045EA2F
:103670000240986210E0471C06EB800053F800C03F
:10368000F8B205EB1C45A042F5D34FF4807000EB77
:10369000810045EA02421A500020F0BDD0F8E00453
:1036A00003F0BDBA01EBC10200EB8202D0F8E004E6
:1036B000126A03F010BA01EBC10200EB8202D0F8EB
:1036C000E004D2F8602203F062BAD0F8E00403F01C
:1036D000A8BA0A0601F00F0101EBC10100EB81015C
:1036E00001D5143101E001F51571006804F094B9B9
:1036F00001F00F020B0670B502EBC20104464FF059
:1037000001004FF0000504EB810102D5487514312A
:1037100003E081F8555201F515710A7094F894246C
:10372000012A08D084F89404206803F095FE002054
:1037300084F8945470BD022070BD70B502790446BF
:1037400001F00F00904201D9012070BD01F00F027D
:103750004FF000050B0602EBC2014FF0010204EB33
:10376000810102D54A75143103E081F8555201F503
:1037700015718D70087094F89404012808D084F8AD
:103780009424206803F0D2FF002084F8945470BD84
:10379000022070BD01F00F0101EBC10100EB8100BF
:1037A000D0F8680270472DE9F04101F00F06044699
:1037B0000D064FF0010006EBC6014FF0000504EBCB
:1037C000810102D54875143103E081F8555201F5A5
:1037D00015714F788A600B710E7007B14E83022B02
:1037E00000D14D7194F89424012A09D084F89404EE
:1037F000206803F079FD284684F89454BDE8F081F0
:103800000220FBE770B501F00F05002405EBC501B0
:1038100000EB810101F5187181E81C0001F80B4CE7
:1038200001F80C5D8379012B00D1CA6182790068AF
:1038300003F0D4FF002070BD70B50D460179044639
:1038400005F00F00884201D9012070BD29064FF014
:1038500000064FF0010206D500EBC00104EB810128
:103860004A75143107E005EBC50104EB810181F8CD
:10387000556201F515718A70087094F89404012856
:1038800007D084F89424206803F07CFF280702D036
:1038900007E0022070BDA17904F29C42206803F089
:1038A00019FF002084F8946470BD70B501F00F0416
:1038B000002504EBC401012600EB8101203181E8E1
:1038C0002C0001F80B6C01F80C4D8379012B00D111
:1038D000CA618279006803F081FF002070BD00009A
:1038E0002DE9FC5F05680446284604F031F90028FC
:1038F0007ED1206804F058F9002879D0D5F808085E
:10390000C0F30D20C4F8D404206804F04DF98007FA
:1039100004D52068416901F002014161206804F08A
:1039200043F9C10604F29C40009035D520688169B6
:1039300021F0100181612F6A07F00F01C7F34340A6
:1039400001EBC101022804EB810606F5157602D0D1
:10395000062812D01BE047F6F070074217D0C7F3D5
:103960000A12F1681746284604F022F97169F068D6
:10397000394471613844F06009E000990822284612
:1039800004F016F97069C7F30A11084470612068E1
:10399000816941F010018161206804F005F900039C
:1039A0004FF0080B4FF0000A4FF001097CD520685A
:1039B000002604F0D8F8074674E0F80770D02068B5
:1039C000F1B204F0E9F88046C00707D005EB4611D4
:1039D000C1F8089B3146204602F03AF85FEA0870C9
:1039E00024D505EB4611C1F808BBFA49206800E070
:1039F0003EE2026C00EB461001928A42D0F8081BAE
:103A000005D9090403D54FF40041C0F8081B20462E
:103A100000F001FBEF490198884207D9A0790128FD
:103A200004D120680121009A03F054FE5FEAC860C7
:103A300004D505EB46111020C1F8080B5FEA887029
:103A40001DD56869000605D5D5F8040840F48061E5
:103A5000C5F8041806EBC60004EB800090F8571276
:103A600000F51570012905D180F803A02046F1B2B8
:103A700000F004FA05EB46110220C1F8080B5FEADA
:103A8000886004D505EB46112020C1F8080B5FEAD9
:103A9000884005D505EB46114FF40050C1F8080BDE
:103AA0007F08761C002F88D1206804F07DF8400341
:103AB0006ED5206804F050F80026074666E0F80747
:103AC00062D02068F1B204F055F88046C00723D0D8
:103AD000D5F8342806F00F0105EB461309FA01F179
:103AE0008A43C5F83428C3F80899A07901280FD172
:103AF00006EBC60004EB8000D0E907211144016207
:103B000036B9606A20B920680121009A03F0E2FD0D
:103B10002046F1B2FFF7C6FD5FEA087003D505EB5A
:103B20004611C1F808B95FEAC86004D505EB461133
:103B30001020C1F808095FEA486004D505EB46117A
:103B40004020C1F808095FEA887016D5314628463A
:103B500003F0D3FF06EBC60004EB8000C17D1430F8
:103B6000012905D180F803A02046F1B200F082F9C6
:103B700005EB46110220C1F808095FEA086003D589
:103B80003146204601F0CAFF7F08761C002F96D1EF
:103B9000206804F009F8002811DAD5F8040820F0AC
:103BA0000101C5F8041894F8CC0401283BD0204644
:103BB00000F016FA2068416901F000414161206877
:103BC00003F0F2FF00050BD5D5F80808C00702D0B6
:103BD000204600F049FA2068416901F40061416122
:103BE000206803F0E1FF00010AD52068416901F077
:103BF0000061416194F8CC04E0B1204600F034FA51
:103C0000206803F0D1FFC00472D5D5F8040820F075
:103C10000101C5F804182068102103F06EFF00218F
:103C20004FF67F322DE00021204684F8CCA4FFF728
:103C30000DFDBFE784F8CC942068406D0121C0F3EE
:103C40008300C4F8D0042046FFF700FDD8E700BF8A
:103C500005EB4110C0F80829D0F8003923F400130F
:103C6000C0F80039C0F8082BD0F8003B23F400134B
:103C7000C0F8003BD0F8003B43F00063C0F8003BC5
:103C8000491C20798842E3D8D5F81C0840F001117E
:103C9000C5F81C18E07B68B1D5F8840840F00B012A
:103CA000C5F88418D5F8440840F00B012846C5F83B
:103CB00044180DE0D5F8140842F22B010843C5F86A
:103CC0001408D5F8100840F00B012846C5F8101864
:103CD000D0F8000820F4FE61C5F80018A17920682A
:103CE000009A03F0F7FC2068416901F480514161BA
:103CF000206803F059FF800415D5206803F034FBD9
:103D0000206803F018FFE07100F0F2FFE27901464D
:103D1000206803F0ADFF204600F04CF920684169AF
:103D200001F400514161206803F03EFF000707D510
:103D3000204600F059F92068416901F0080141610D
:103D4000206803F031FF000616D5A869012620F08F
:103D50008001A9610DE000BF06EBC60004EB800006
:103D600090F85702012803D12046F1B2FFF7B1FCC9
:103D7000761C2079B042EFD8206803F015FFC0020E
:103D80001FD501264F4614E006EBC60105EB461091
:103D900004EB8101D0F800090A7E012A08D100282D
:103DA00006DAF0B2CF7540F080012046FFF791FCB3
:103DB000761C2079B042E7D82068416901F480116F
:103DC0004161206803F0F0FE800234D501204B46AB
:103DD00029E000000A30544F00EBC00205EB40110F
:103DE00004EB8202D1F8001B92F85862012E19D11F
:103DF000002917DA94F8D46401F4803106F0010642
:103E0000B1420FD182F85732A96941F08002AA610C
:103E10006969090606D4D5F8040840F40070C5F8AD
:103E2000040803E0401C21798142D5D8206841690B
:103E300001F400114161206803F0B6FE400007D58F
:103E40002046FFF72BFC2068416901F08041416169
:103E5000206803F0A9FE40070AD520684568680776
:103E600002D52046FFF731FC2068416829434160B4
:103E7000BDE8FC9FD0F8E00402F02BBFD0F8E004CE
:103E800002F03BBFF8B5040004D094F89504002577
:103E900010B106E00120F8BD204684F8945400F0EB
:103EA00057F8032084F89504206803F00DFC207C6B
:103EB0008DF8000094E80F0003F064FA0226B0BB0E
:103EC0002068002103F094FE88BB002001270CE04D
:103ED00000EBC001421C04EB81014F750D76CD61F2
:103EE0000D624D620875C885D0B221798142EFD844
:103EF000002011E000EBC001421C04EB810181F8BD
:103F0000555281F85852C1F85C52C1F86052C1F85C
:103F1000645281F85402D0B221798142EAD8207CDF
:103F20008DF8000094E80F0003F018FB10B184F83E
:103F30009564AFE7207B657484F89574012802D1FD
:103F40002046FFF76FFB206803F0FAFA0020F8BD67
:103F500010B5B0B00446B8216846FCF7F2FC13492E
:103F60002068884220D100204FF480214FF4401275
:103F70002192CDE90010684600F0C0F808B1FEF7C4
:103F8000A8F900F0B3F80A48016841F00071016037
:103F900000680022052100F000702E904D20FFF7F0
:103FA0000FFB4D20FFF7FEFA30B010BD00000440BB
:103FB000D844025870B50446C079012570B1022872
:103FC00001D0FEF786F9D4F8E004294602F004FF98
:103FD000D4F8E004BDE8704002F0B8BE0025F2E776
:103FE000D0F8E00402F0E1BED0F8E00402F0E7BE51
:103FF00010B5044690F8940401280AD00120617499
:1040000084F89404206803F022FE002084F89404CD
:1040100010BD022010BDD0F8E02400F29C411046F3
:1040200002F0E6BE10B590F8941404460068012929
:1040300009D0012184F89414C168490609D5617B2F
:10404000012902D005E0022010BD816B41F48031CE
:104050008163206803F02FFD206803F063FA0020DD
:1040600084F8940410BD000010B50446D0F8E004B4
:1040700002F000FF2068D0F8001E41F00101C0F8F6
:10408000001EE07A002804D00248016841F00601D1
:10409000016010BD10ED00E0134970B50A68D2430D
:1040A000520705D5096801F00701814213D118E0D4
:1040B0000A6822F0070202430A60FFF7D1F90A4DAD
:1040C0004FF47A760446083D07E000BFFFF7C8F9D1
:1040D000001BB04201D9012070BD2868C043800494
:1040E000F4D4002070BD00000C480258024801685A
:1040F00041F08071016070470C4802582DE9FE4F75
:104100000546DFF800A450F8081B0024FD4FC94302
:10411000019005F1280026460AF1240A00900801C2
:104120001DD4686E50B1B0F5801F0CD0B0F5001FE3
:104130000ED0B0F5401F1ED001240FE0386840F4C7
:104140000030386017E00198022101F073FD03E0B0
:104150000098022101F0FEFD04000CD026462888BC
:10416000C043C00523D4A86D05281ED2DFE800F0A7
:104170000C11161B1B006A6EDAF8001021F44011B6
:104180001143CAF80010EAE7386840F4003038609C
:1041900009E00198002101F04DFD03E000980021A5
:1041A00001F0D8FD0446C4B100E001242646288869
:1041B000DFF85083C04308F12C0840052FD4D5F810
:1041C000A400B0F5C00F28D010DCB8B1B0F5001FC6
:1041D00019D0B0F5800F0FD11AE0AA6DDAF80010EF
:1041E00021F007011143CAF80010E0E7B0F5000F15
:1041F00013D0B0F5200F10D001240FE0386840F440
:104200000030386009E00198002101F013FD03E05F
:104210000098002101F09EFD044694B126462888AE
:10422000C043000530D4D5F8A800B0F1407F29D0B4
:1042300011DCC0B1B0F1807F1AD0B0F1007F10D195
:104240001BE0D5F8A420D8F8001021F46001114338
:10425000C8F80010E3E7B0F1806F13D0B0F1A06FA1
:1042600010D001240FE0386840F40030386009E0D5
:104270000198002101F0DEFC03E00098002101F02C
:1042800069FD044694B126462868DFF878B2C04339
:104290000BF1200B80011FD4E86CD8B110280FD08F
:1042A000202812D0302815D0012414E0D5F8A820F9
:1042B000D8F8001021F0E0611143C8F80010E3E7DE
:1042C000386840F40030386004E00198022101F0C1
:1042D000B1FC044674B126462888C043C0042BD4E0
:1042E000E86DB0F5005F20D00DDCA0B1B0F5805FC7
:1042F0000FD115E0EA6CDBF8001021F0300111431A
:10430000CBF80010E8E7B0F5405F13D0B0F5804F70
:1043100010D001240FE0386840F40030386009E024
:104320000198002101F086FC03E00098002101F0D3
:1043300011FD04468CB126462888C043800429D448
:10434000286EB0F5403F23D010DC08B3B0F5803FB5
:1043500014D0B0F5003F0FD115E0EA6DDAF8001087
:1043600021F4E0411143CAF80010E5E7B0F5802FD1
:104370000ED0B0F5A02F0BD001240AE00198012146
:1043800001F058FC03E00098012101F0E3FC044631
:1043900094B126462888C04340042AD4D5F8AC00FE
:1043A000B0F1405F23D010DC08B3B0F1805F14D0CF
:1043B000B0F1005F0FD115E02A6EDAF8001021F499
:1043C000E0211143CAF80010E4E7B0F1804F0ED0AD
:1043D000B0F1A04F0BD001240AE00198012101F0B7
:1043E00029FC03E00098012101F0B4FC044674B1FB
:1043F00026462888C04300041FD4E86ED8B1B0F127
:10440000805F0ED0B0F1005F10D0012414E0D5F829
:10441000AC20D8F8001021F0E0411143C8F800109A
:10442000E7E7386840F40030386004E00198012183
:1044300001F000FC044674B126462868C043C00160
:104440001ED4A86CD0B101280ED0022811D00328A8
:1044500014D0012413E0EA6EDAF8001021F0405184
:104460001143CAF80010E8E7386840F400303860BB
:1044700004E00198022101F0DDFB04466CB1264600
:104480002868C043400255D41F48016841F4807138
:104490000160FEF7E5FF81460EE0AA6CDBF8001034
:1044A00021F003011143CBF80010E9E7FEF7D8FF34
:1044B000A0EB090064283BD813480068C005F5D577
:1044C000BCBBDFF84090B5F8B01009F14409D9F849
:1044D000000001F4407100F44070884211D0D9F816
:1044E0000010D9F8002021F4407142F48032C9F85C
:1044F0000020D9F8002022F48032C9F80020C9F841
:10450000001003E02C44025800480258D5F8B000CF
:10451000B0F5807F19D1FEF7A3FF029011E000BF34
:10452000FEF79EFF0299411A41F28830814208D974
:10453000032426462878DFF81494C043C00721D00E
:104540003CE0D9F800008007EAD5D5F8B010C1F3F7
:1045500001200328FE480DD0016821F47C51016040
:10456000B5F8B020D9F80010C2F30B021143C9F816
:104570000010DFE7F74A036802EA111223F47C51C6
:104580001143ECE7A86F182816D005DCA0B1082865
:1045900008D0102804D10AE020280DD028280BD0FC
:1045A00001240AE00198012101F044FB03E0009896
:1045B000012101F0CFFB044664B126462878C043B0
:1045C00080071ED4686F062819D2DFE800F0160CA9
:1045D00011161616AA6FD9F8001021F038011143F0
:1045E000C9F80010EAE70198012101F023FB03E07C
:1045F0000098012101F0AEFB04467CB100E00124EB
:1046000026462878C04340071FD4D5F890000628D6
:1046100019D2DFE800F0160C111616166A6FD9F8D9
:10462000001021F007011143C9F80010E9E70198D3
:10463000012101F0FFFA03E00098012101F08AFB5B
:104640000446A4B100E0012426462878C043800631
:104650002BD4D5F88C00B0F1405F24D011DC10B31E
:10466000B0F1805F15D0B0F1005F10D116E0D5F841
:104670009020D8F8001021F007011143C8F800106D
:10468000E3E7B0F1804F0ED0B0F1A04F0BD0012482
:104690000AE00198002101F0CDFA03E00098022120
:1046A00001F058FB044694B126462878C0434006E2
:1046B0002BD4D5F89800B0F5406F24D011DC10B39E
:1046C000B0F5806F15D0B0F5006F10D116E0D5F8B9
:1046D0008C20D9F8001021F0E0411143C9F80010F6
:1046E000E3E7B0F5805F0ED0B0F5A05F0BD00124FA
:1046F0000AE00198002101F09DFA03E000980221F0
:1047000001F028FB044694B126462878C0430006F1
:104710002BD4D5F89C00B0F5C04F24D011DC10B3D9
:10472000B0F5005F15D0B0F5804F10D116E0D5F888
:104730009820D8F8001021F4E0511143C8F8001077
:10474000E3E7B0F5004F0ED0B0F5204F0BD00124B9
:104750000AE00198002101F06DFA03E000980221BF
:1047600001F0F8FA044654B126462878C043000701
:104770001ED4D5F88000B0F5805F0AD00FE0D5F8E0
:104780009C20D8F8001021F460411143C8F80010B3
:10479000EBE70098022101F0DDFA00B10126D5F81F
:1047A0008020D9F8001021F440511143C9F80010BD
:1047B0002878C043C00613D4D5F89400B0F5807FA4
:1047C00005D10098022101F0C5FA00B10126D5F803
:1047D0009420D8F8001021F440711143C8F800105B
:1047E0002868C043000316D4D5F8A00038B1B0F54E
:1047F000803F09D0B0F5003F0BD001240AE00198BA
:10480000002101F017FA03E00098022101F0A2FA5A
:1048100004468CB126462868C043400322D4D5F80C
:104820008400B0F5801F11D0B0F5001F13D0B0F593
:10483000401F15D0012414E0D5F8A020D8F80010AE
:1048400021F440311143C8F80010E4E7386840F41F
:104850000030386004E00098012101F07BFA044642
:104860005CB126462868C043C0031CD4286D70B1D3
:10487000B0F5803F10D0012414E0D5F88420D9F899
:10488000001021F440111143C9F80010EAE738681C
:1048900040F40030386004E00198022101F0CAF9C8
:1048A0000446DCB126462868C043800005D4009841
:1048B000022101F04FFA00B101262868C0438003AD
:1048C0001BD4E86FB8B1B0F5807F10D0B0F5007F91
:1048D00011D0B0F5407F0ED001240DE02A6DDBF839
:1048E000001021F480311143CBF80010DBE7386869
:1048F00040F4003038607CB326462868C043C002CC
:1049000007D42A6FDAF8001021F000411143CAF8E9
:1049100000102868C043800207D4AA6EDAF800109D
:1049200021F080711143CAF800102868C04340008C
:1049300009D40748016821F4004101600168D5F8F5
:10494000B420114301602868C04306E05444025873
:1049500010440258CFFFFF001DE007D46A6DDBF85A
:10496000001021F040511143CBF800102868C043DB
:10497000000208D4D5F88820D9F8001021F44001AD
:104980001143C9F8001028790024C04300F0010049
:10499000204309D00EE0EA6FD9F8001021F44071ED
:1049A0001143C9F80010A8E70198002101F042F96D
:1049B00000B106462879C04300F00200204305D12B
:1049C0000198012101F036F900B106462879C0436B
:1049D00000F00400204305D10198022101F02AF9DA
:1049E00000B106462879C04300F00800204305D1F5
:1049F0000098002101F0AEF900B106462879C043C5
:104A000000F01000204305D10098012101F0A2F927
:104A100000B106462879C04300F02000044304D1C9
:104A20000098022101F096F900B916B10120BDE805
:104A3000FE8F0020FBE700002DE9F05F04000F4629
:104A40007ED0DFF83882D8F8000000F00F00B842BE
:104A50000CD2D8F8001021F00F013943C8F800102B
:104A6000D8F8000000F00F00B84269D12078844DDA
:104A700040070AD52069296801F07001884204D9ED
:104A8000296821F070010143296020787C4E361D91
:104A900000070AD56069316801F07001884204D9C5
:104AA000316821F07001014331602078C0060AD5D9
:104AB000A069316801F4E061884204D9316821F4C9
:104AC000E061014331602078DFF8B4B180060BF17A
:104AD000080B0CD5E1695846DBF8002002F07002A3
:104AE000914204D9026822F070020A4302602078E1
:104AF00080070AD5E068296801F00F01884204D9CF
:104B0000296821F00F01014329602078C0073ED0B9
:104B10005B49A2682868183920F470601043286047
:104B20006068022818D0032819D00968012819D014
:104B3000490700294ADADFF848A1AAF1080A00E08B
:104B400044E0DAF8002022F007020243CAF800200D
:104B5000FEF786FC814612E009688903E9E70968E7
:104B60008901E6E7C905E4E7FEF77AFCA0EB090155
:104B700041F28830814202D90320BDE8F09F61688C
:104B8000DAF8000000F03800B0EBC10FECD120786B
:104B900080070AD5E068296801F00F01884204D235
:104BA000296821F00F0101432960D8F80010404620
:104BB00001F00F01B9420BD9016821F00F0139430F
:104BC0000160006800F00F00B84201D00120D4E776
:104BD000207840070AD52069296801F070018842D1
:104BE00004D2296821F07001014329602078000770
:104BF0000AD56069316801F07001884204D23168D9
:104C000021F07001014331602078C0060AD5A06907
:104C1000316801F4E061884204D2316821F4E06136
:104C200001433160207880060CD5E1695846DBF8F5
:104C3000002002F07002914204D2026822F0700259
:104C40000A43026000F088F80E492A682B68C2F314
:104C5000032203F00F038A5CC95C02F01F0201F01B
:104C60001F01D040084A20FA01F11160074908608D
:104C700007480068BDE8F05FFEF740BC0020005226
:104C8000184402584CC10008A00000249C000024D5
:104C90009400002470B5144C3F220260124A24682C
:104CA0000832131D114D04F00704446016681C1DE2
:104CB00006F470668660166806F00F06C660126815
:104CC00002F0700202611A6802F0700242611A6812
:104CD00002F4E0628261226802F07002C261286818
:104CE00000F00F00086070BD104402580020005210
:104CF00030B500F031F80B4A0B490C4B15681468BD
:104D0000C5F3032204F00F048A5C095D02F01F0260
:104D100001F01F01D040064A20FA01F1196010602D
:104D2000084630BD184402584CC10008A0000024B9
:104D30009C00002400B5FFF7DBFF05490968054A20
:104D4000C1F30221515C01F01F01C84000BD000009
:104D50001C4402584CC10008454970B545480968D3
:104D6000434B103B11F0380208D00111082A03D040
:104D7000102A0BD0182A0BD0084670BD1968890676
:104D8000FBD51968C1F3C101C84070BD3A4870BD78
:104D90003749374D18310C1D24350A6809682668D3
:104DA0002D6802F0030406F00102C1F30511C5F3FA
:104DB000CC0515FB02F200EE102AB8EE400AE9B36A
:104DC0002F4ADFED2E0AB7EE001A6CB1DFED2D1A77
:104DD000012C01D0022C43D002EE101A1068F8EE1C
:104DE000422A81EEA22A1EE01C68A40611D51B6887
:104DF00001EE901A1168C3F3C103F8EE612AD8409E
:104E000001EE900AC1F30800F8EE611A81EEA22AC1
:104E10000BE001EE901ADFED1C2A00BFF8EE611ADC
:104E2000106882EEA12AC0F3080001EE900AF8EEA5
:104E3000611A40EE201A31EE810A00E015E022EE00
:104E4000000A1068C0F34620401C00EE900AF8EEFD
:104E5000600A80EE201ABCEEC10A10EE100A70BD86
:104E600001EE901ADFED092AD8E7002070BD00009E
:104E7000104402580090D00300366E010000003943
:104E8000304402580024744A0024744C001BB74B71
:104E90002DE9F05F04007DD0FF4F2078FE4D1837DC
:104EA000DFF8F483103DC00748D0D8F80000396817
:104EB00000F03800102815D0182803D101F00300A5
:104EC00002280FD06068B0F5803F12D010B1B0F565
:104ED000A02F18D0286820F480302860286820F49B
:104EE000802009E02868800328D560680028D2D097
:104EF00024E0286840F480302860606888B1FEF7BC
:104F0000AFFA064609E0286840F480202860F0E700
:104F1000FEF7A6FA801B64287ED828688003F7D5A0
:104F20000CE0FEF79DFA064605E000BFFEF798FA92
:104F3000801B6428F0D828688003F7D42078800785
:104F400056D5D8F80000DFF85093396810F03800D3
:104F5000A9F10C090ED0182801D188070AD0E06801
:104F6000A8B3296821F0190101432960FEF778FAF6
:104F7000064628E02868400702D5E06800288AD065
:104F8000E168286820F0190008432860FEF768FAF5
:104F9000064606E0D2E000BFFEF762FA801B022858
:104FA000BAD828684007F7D5217CD9F8002022F02C
:104FB000FE4242EA0161C9F8001019E0FEF750FA1A
:104FC000801B0228A8D828684007F7D5ECE7FFE740
:104FD000286820F001002860FEF742FA064604E047
:104FE000FEF73EFA801B022896D828684007F7D4BF
:104FF0002078C00646D5D8F80000DFF89C923968C2
:1050000000F03800A9F10409082812D0182805D1A9
:1050100001F00300012800E0CEE00AD0E06900289A
:10502000286820D040F080002860FEF719FA064674
:1050300015E02868C00502D5E06980287ED194F883
:105040002010D9F8002022F07C5242EA0161C9F810
:10505000001017E0FEF704FA801B0228A0D8286889
:10506000C005F7D5EBE720F080002860FEF7F8F9DF
:10507000064604E0FEF7F4F9801B022890D8286861
:10508000C005F7D42078000729D5834861696430CA
:1050900000298146016811D041F001010160FEF74D
:1050A000DFF9064605E000BFFEF7DAF9801B0228AB
:1050B00088D8D9F800008007F6D510E021F001016A
:1050C0000160FEF7CDF9064605E000BFFEF7C8F91E
:1050D000801B022870D8D9F800008007F6D4207809
:1050E000800623D5A0690028286810D040F480509D
:1050F0002860FEF7B5F9064605E000BFFEF7B0F9F7
:10510000801B022858D828688004F7D50EE020F4C8
:1051100080502860FEF7A4F9064604E0FEF7A0F9E7
:10512000801B022848D828688004F7D420784007DC
:1051300051D5DFF86891D9F8001000E015E141F48D
:105140008071C9F80010FEF78BF9064605E000BF34
:10515000FEF786F9801B64282ED8D9F80000C00518
:10516000F6D54D4EA068603601280AD008B1052852
:1051700013D0306820F001003060306820F0040067
:1051800002E0306840F001003060A06841F2883AE7
:1051900098B1FEF765F981460AE0306840F00400F6
:1051A0003060EEE7FEF75CF9A0EB0901514503D84A
:1051B00030688007F6D50EE072E0FEF751F98146BF
:1051C00006E000BFFEF74CF9A0EB0901514567D896
:1051D00030688007F6D4606A00287CD0DFF8B8A079
:1051E000D8F800100AF1200A4FF6F87B0AF10408FB
:1051F000C1F3C2010329AAF104096DD0022828686D
:1052000020F08070286003D0FEF72AF9044681E080
:10521000FEF726F9064604E0FEF722F9801B022875
:1052200075D828688001F7D4E26A40F2F331386813
:1052300054F8283F884340EA021018433860217B25
:105240004FF4FE0C22894FF0FE47208A4902267D4A
:10525000521E401EA1F5007189B2C2F3080211432B
:10526000761E0CEA00400143484607EA06621143F5
:10527000CAF80010D9F8001021F00101C9F8001097
:10528000D8F80030266A23EA0B0343EAC601C8F8BF
:105290000010D9F8001004E01044025800480258E9
:1052A00035E0A26921F00C011143C9F80010016832
:1052B000E26921F0020111430160016841F480318B
:1052C0000160016841F400310160016841F480210E
:1052D0000160016801E06CE020E041F00101016043
:1052E000286840F080702860FEF7BAF8044604E0B1
:1052F000FEF7B6F8001B022809D828688001F7D508
:1053000057E000BFFEF7ACF8001B022802D90320CB
:10531000BDE8F09F28688001F4D44AE0396801288C
:10532000DAF8000021D0A26A01F0030393421CD1F5
:10533000E26AC1F305118A4217D1216BC0F308025A
:10534000491E8A4211D1616BC0F34622491E914227
:105350000BD1A16BC0F30642491E914205D1E16B0E
:10536000C0F30660491E814201D00120D0E7A16C44
:105370004646D8F80000C0F3CC00814219D0D9F8D5
:1053800000004D4620F00100C9F80000FEF768F863
:105390004FEA0007FEF764F8B842FBD0A26C306811
:1053A00020EA0B0040EAC2003060286840F00100AB
:1053B00028600020ACE770477047704710B50400C4
:1053C00003D094F83D0010B107E0012010BD00208B
:1053D00084F83C00204600F022F8022084F83D00CA
:1053E0002068211D00F0ACFE012084F8480084F8FC
:1053F0003E0084F83F0084F8400084F8410084F8BF
:10540000420084F8430084F8440084F8450084F89E
:10541000460084F8470084F83D00002010BD704726
:1054200090F83D10012901D0012070471A4A02214D
:1054300080F83D100168CB6843F00103CB60006841
:1054400090421AD0B0F1804F17D01449884214D03E
:105450001349884211D0134988420ED0124988421C
:105460000BD01249884208D01149884205D0114911
:10547000884202D01049884207D181680F4A114002
:10548000062906D0B1F5803F03D0016841F0010143
:10549000016000207047000000000140000400404F
:1054A00000080040000C00400004014000180040CB
:1054B0000040014000E0004000E40040070001001F
:1054C00070472DE9F041044600680027C668056969
:1054D000A90713D5B10711D5FA1E02610121217761
:1054E000206880698007204602D0FFF7E9FF04E0CA
:1054F00000F08BF8204600F089F82777680716D56A
:10550000700714D5226802206FF004011161207722
:105510002068806910F4407F204602D0FFF7D0FF5A
:1055200004E000F072F8204600F070F827772807B2
:1055300015D5300713D5226804206FF008011161DA
:1055400020772068C0698007204602D0FFF7B8FFA7
:1055500004E000F05AF8204600F058F82777E806F3
:1055600016D5F00614D5226808206FF010011161DD
:1055700020772068C06910F4407F204602D0FFF7F2
:105580009FFF04E000F041F8204600F03FF8277745
:10559000E80708D0F00706D021686FF00100086125
:1055A000204600F035F8280601D4A80408D53006B6
:1055B00006D521686FF4025008612046FFF7FCFE13
:1055C000E80508D5300606D521686FF480700861BB
:1055D0002046FFF7F0FE680608D5700606D521685C
:1055E0006FF040000861204600F01CF8A8060AD5BC
:1055F000B00608D521686FF0200008612046BDE89C
:10560000F041FFF7DABEBDE8F08170477047000057
:1056100000680349884201D1FDF73ABF7047000096
:1056200000E000407047FEE7F0B500230A251C4665
:105630003026372711E000BFB5EB107F02D906EB0B
:10564000107C01E007EB107C01F813C001EB430C68
:1056500000015B1C8CF80140DBB29342ECD3F0BD3F
:105660002DE9F0411A480021184F012400F11408D7
:105670004FF03B0C14268160022507600D27C160A6
:105680000823047404224174847488E85010C0E92B
:105690000864C0E90A5707248463C0E90F23C0E9FE
:1056A0001123C0E90C51C0E91325C0E91523C365D6
:1056B0000366C0E91912FDF7DDFA002803D0BDE842
:1056C000F041FCF706BEBDE8F081000000A00040FC
:1056D000183200241C4801232DE9F041194D002403
:1056E00084604FF0140C05603B25C46000F1240871
:1056F0000374022644740D27837404214361082235
:10570000C0E906C5C0F820C040F2064588E8C800D8
:105710008163C0E90C350323C0E90F12C0E91112FF
:10572000C0E91313C0E91512C2650266C0E9194148
:10573000FDF7A0FA002803D0BDE8F041FCF7C9BD91
:10574000BDE8F08100A40040B83200241B480022CC
:105750002DE9F041184F00F114088260012507601F
:105760001426C2603B27027402244274042182740E
:10577000082388E8E000066240F61206C0E90954F2
:10578000C0E90D61C0E90F13C0E911134FF00D0C12
:10579000C0E90BC4C0E91314C0E91513C36503665F
:1057A000C0E91921FDF766FA002803D0BDE8F041F1
:1057B000FCF78FBDBDE8F08100D4004058330024D1
:1057C00010B5AAB041491C226846FBF75EF80021DB
:1057D000684603F0B2FF3E4C1C223C491C3120605D
:1057E00007A8FBF752F8002107A803F0A6FF3749E6
:1057F0001C2260600EA83831FBF747F800210EA884
:1058000003F09BFF31491C22A06015A85431FBF71F
:105810003CF8002115A803F090FF2C491C22E06001
:105820001CA87031FBF731F800211CA803F085FF9C
:1058300026491C22206123A88C31FBF726F8002181
:1058400023A803F07AFF6061216879B16168A9B18A
:10585000A168D9B1E16809B3216939B370B31D4AB0
:105860001D491E4805F0F8FC2AB010BD502080F3F9
:105870001188BFF34F8FBFF36F8FFEE7502080F387
:105880001188BFF34F8FBFF36F8FFEE7502080F377
:105890001188BFF34F8FBFF36F8FFEE7502080F367
:1058A0001188BFF34F8FBFF36F8FFEE7502080F357
:1058B0001188BFF34F8FBFF36F8FFEE7502080F347
:1058C0001188BFF34F8FBFF36F8FFEE748C000080A
:1058D00000000024115A0008DD590008A9590008E9
:1058E00000B587B014216846FBF72BF8164801680D
:1058F00041F080010160016801F0800105910168BB
:1059000041F008010160016801F00801059101689A
:1059100041F001010160016801F001010591016898
:1059200041F00201016000684FF4004100F0020004
:10593000059000200290CDE9001004486946FDF76B
:1059400081FC07B000BD0000E0440258000002588E
:1059500010490122104810B501F098F808B1FCF781
:10596000B8FC0E490C4801F0B0FA08B1FCF7B1FCE4
:105970000B49094800F024FE08B1FCF7AAFC0648D0
:1059800001F028FB08B1FCF7A4FCBDE81040FEF7CD
:10599000ADBB00001C00002444340024940100240A
:1059A0007C000024FEE7FEE70A48002108B50091CC
:1059B000406800280DD0694606F038F800980028A5
:1059C00007D005494FF080500860BFF34F8FBFF3F9
:1059D0006F8F08BD0000002404ED00E00A4800219C
:1059E00008B50091806800280DD0694606F01EF8C1
:1059F0000098002807D005494FF080500860BFF399
:105A00004F8FBFF36F8F08BD0000002404ED00E04E
:105A10000A48002108B50091C06800280DD06946E9
:105A200006F004F80098002807D005494FF0805090
:105A30000860BFF34F8FBFF36F8F08BD00000024D5
:105A400004ED00E00148FDF74BBF0000404B00248F
:105A50002DE9F041044680790D462027236801286E
:105A60004FF4004604F29C4203EB4511D3F840C0CA
:105A7000D1F8080B09D0DFF89CE0F4453AD10204D4
:105A800033D500BFC1F8086B40E0234B5FEA007ECE
:105A900004D59C453AD90004F4D437E05FEA806E1F
:105AA00002D5C1F8087B31E010F0280F2ED19C45BB
:105AB00001D90004E6D4D1F8101B05EBC50004EBB6
:105AC0008000C1F31201D0F87432A3EB0101C0F8D9
:105AD000681200F51570ADB903691BB1C2681144B5
