:020000040800F2
:10000000D8DB00246D040008973C00080F3A000874
:10001000953C00084D070008595E000800000000EC
:10002000000000000000000000000000AD03000818
:10003000DD070008000000000904000885400008F2
:100040008704000887040008870400088704000864
:100050008704000887040008870400088704000854
:100060008704000887040008870400088704000844
:100070008704000887040008870400088704000834
:10008000870400088704000887040008E5070008C3
:10009000FD070008F10700080908000887040008A8
:1000A0008704000887040008870400088704000804
:1000B00087040008870400088704000887040008F4
:1000C00087040008870400088704000887040008E4
:1000D00087040008870400088704000887040008D4
:1000E0008704000887040008000000008704000857
:1000F00087040008870400088704000887040008B4
:1001000087040008870400088704000887040008A3
:100110008704000887040008870400088704000893
:100120008704000887040008870400088704000883
:100130008704000887040008870400088704000873
:1001400000000000000000000000000000000000AF
:100150008704000887040008870400088704000853
:100160008704000887040008870400088704000843
:1001700087040008993C000887040008000000007C
:100180008704000887040008870400088704000823
:100190008704000887040008870400088704000813
:1001A0008704000887040008870400080000000096
:1001B00087040008870400088704000887040008F3
:1001C0008704000887040008000000000000000009
:1001D000000000000000000087040008000000008C
:1001E000000000000000000000000000000000000F
:1001F00000000000000000008704000887040008D9
:100200008704000887040008000000008704000835
:100210008704000887040008870400088704000892
:1002200087040008000000008704000800000000A8
:100230008704000887040008000000008704000805
:100240008704000887040008870400088704000862
:100250008704000887040008870400088704000852
:100260008704000887040008870400088704000842
:1002700087040008870400088704000800000000C5
:100280008704000887040008870400088704000822
:100290000000000087040008870400080000000038
:1002A0000000000087040008870400088704000895
:1002B0008704000887040008870400081508000860
:1002C000210800080D4200088704000800F002F829
:1002D00000F05CF80AA090E8000C82448344AAF184
:1002E0000107DA4501D100F051F8AFF2090EBAE882
:1002F0000F0013F0010F18BFFB1A43F0010318475A
:100300008C710000AC7100000A444FF0000C10F832
:10031000013B13F0070408BF10F8014B1D1108BF83
:1003200010F8015B641E05D010F8016B641E01F823
:10033000016BF9D113F0080F1EBF10F8014BAD1C73
:100340000C1B09D16D1E58BF01F801CBFAD505E091
:1003500014F8016B01F8016B6D1EF9D59142D6D3EB
:10036000704700000023002400250026103A28BF13
:1003700078C1FBD8520728BF30C148BF0B60704717
:100380001FB506F069FF1FBD10B510BD00F08EF956
:100390001146FFF7F5FF06F069F800F0ACF903B479
:1003A000FFF7F2FF03BC00F033F900002C4B196893
:1003B0000868B0E8F04F80F30988BFF36F8F4FF003
:1003C000000080F3118870470000000008480068B2
:1003D000006880F308884FF0000080F3148862B64C
:1003E00061B6BFF34F8FBFF36F8F00DF00BF00BF59
:1003F00008ED00E0DFF80C00016841F470010160D5
:10040000704700BF88ED00E0EFF30980BFF36F8F06
:10041000134B1A681EF0100F08BF20ED108A20E958
:10042000F04F106009B44FF0500080F31188BFF313
:100430004F8FBFF36F8F06F041FD4FF0000080F348
:10044000118809BC19680868B0E8F04F1EF0100F59
:1004500008BFB0EC108A80F30988BFF36F8F704734
:1004600094000024EFF3058070470000094880479E
:1004700009480047FEE7FEE7FEE7FEE7FEE7FEE786
:10048000FEE7FEE7FEE7FEE704480549054A064B9E
:10049000704700004D410008CD020008D8D5002467
:1004A000D8DB0024D8D70024D8D70024002000F0BF
:1004B000B5F8FFF769FF012000F0AAF8032A40F21F
:1004C000308010F0030C00F0158011F8013BBCF1F6
:1004D000020F624498BF11F801CB00F8013B38BF0E
:1004E00011F8013BA2F1040298BF00F801CB38BF1C
:1004F00000F8013B11F0030300F02580083AC0F03A
:10050000088051F8043B083A51F804CBA0E80810E1
:10051000F5E7121D5CBF51F8043B40F8043BAFF314
:100520000080D20724BF11F8013B11F801CB48BF6E
:1005300011F8012B24BF00F8013B00F801CB48BFA4
:1005400000F8012B704710B5203AC0F00B80B1E8DD
:100550001850203AA0E81850B1E81850A0E81850F8
:10056000BFF4F5AF5FEA027C24BFB1E81850A0E801
:10057000185044BF18C918C0BDE810405FEA827C1B
:1005800024BF51F8043B40F8043B08BF7047D20732
:1005900028BF31F8023B48BF11F8012B28BF20F8D3
:1005A000023B48BF00F8012B704702F0FF0343EA0B
:1005B000032242EA024200F03AB84FF0000200B5CE
:1005C000134694469646203922BFA0E80C50A0E876
:1005D0000C50B1F12001BFF4F7AF090728BFA0E824
:1005E0000C5048BF0CC05DF804EB890028BF40F8F0
:1005F000042B08BF704748BF20F8022B11F0804F32
:1006000018BF00F8012B7047704770477047000013
:1006100001491820ABBEFEE72600020010B500F02D
:100620002DF8BDE8104000F023B84FF00002042977
:10063000C0F0128010F0030C3FF4C1AFCCF1040CF9
:10064000BCF1020F18BF00F8012BA8BF20F8022B45
:10065000A1EB0C01FFF7B3BF5FEAC17C24BF00F838
:10066000012B00F8012B48BF00F8012B70477047A1
:10067000002801D0FFF7CCBF7047000010B5002163
:1006800002A000F03EF8012010BD00005349474190
:100690004252543A2041626E6F726D616C207465F3
:1006A000726D696E6174696F6E000000754600F0CE
:1006B00049F8AE4605006946534620F007008546D6
:1006C00018B020B5FFF7E0FEBDE820404FF000066F
:1006D0004FF000074FF000084FF0000B21F007012A
:1006E000AC46ACE8C009ACE8C009ACE8C009ACE86D
:1006F000C0098D4670470446AFF300802046FFF7DF
:100700004EFE70B505460C460A2000E06D1C00F058
:1007100011F835B128780028F8D102E0641C00F007
:1007200009F814B120780028F8D1BDE870400A20FB
:10073000AFF3008008B569468DF800000320ABBE1A
:1007400008BD00000048704778D50024FEE700206F
:10075000704700207047000005490022054810B589
:1007600003F0B2FF0449034803F0A1FF002010BDCD
:100770003C1B0024600E00243C13002410B518B16B
:1007800011B1096806F0D4F90449054803F08FFF58
:10079000034803F065FF002010BD00003C13002457
:1007A000600E002410B506F0D7F9002010BD00003F
:1007B0000A46094910B5D1F8BC1211B1D1F814128A
:1007C00009B1012010BD0146034803F07DFFBDE8DB
:1007D0001040014803F0EEBF600E0024704772B66F
:1007E000FEE70000014800F0CDBA0000340C002400
:1007F000014800F0C7BA0000340C0024014800F0A2
:10080000C1BA0000D40C0024014800F0BBBA0000BB
:10081000D40C0024014800F0B5BA0000740D002487
:10082000014800F0AFBA0000740D0024F0B5036871
:100830004FF6FC716D4C426BD3F884508D4345EA02
:100840008205C3F88450036853F8845F068F25F44B
:100850007F0545EA06451D60836B654D9F1802685C
:10086000D2F888308B4343EA8703C2F888300268A5
:1008700052F8883F868F23F4FE0343EA0643136051
:10088000066856F8A03FC26B8B4307EB420243EA6F
:1008900082033360076857F8A03FB0F8406023F444
:1008A000FE0343EA06433B60D0E9103603FB062211
:1008B0000368D3F8B0608E4346EA8206C3F8B0609E
:1008C0000368B0F84860D3F8B07027F4FE0747EA31
:1008D0000646C3F8B060D0E91267036806FB07223A
:1008E000D3F8AC608E4346EA8206C3F8AC60D0E928
:1008F0001467036806FB0722D3F8F0608E4346EACC
:100900008206C3F8F0600368B0F85860D3F8F0705E
:1009100027F47C1747EA0646C3F8F0600368876D42
:1009200053F8C06F02EB47028E4346EA820119601A
:100930000168B0F85C20D1F8C03023F47C1343EA9E
:100940000242C1F8C020016890F86020D1F8C030A0
:1009500023F07C5343EA0262C1F8C020416B04EBF0
:100960008101C166826B01EB82020267C36B02EBFD
:10097000C3024267D0E91034634302EB830282670B
:10098000D0E91234634302EB8302C267D0E9143426
:10099000634302EB8302C0F88020836D02EBC30344
:1009A000C0F88430C46D826E544303EB8403C0F8F6
:1009B0008830046E544303EB8402C0F89020AA42AE
:1009C0000AD9D0F89C20032142F02002C0F89C20D4
:1009D00080F898100120F0BD002200E004C1D0F89A
:1009E00090308B42FAD80020F0BD000000AC0040EF
:1009F000FCD3004070B5044600F038FF0546601C8B
:100A000002D004480078044400F030FF401BA042AC
:100A1000FAD370BD7C00002410B590F89830012BFB
:100A200009D0022B07D0D0F89C1041F00201C0F889
:100A30009C10012010BD03689C6D0C4203D1DC6D3D
:100A400044F0010404E09C6D31EA04041FD0032447
:100A5000DC658B0505D50368D3F8E0401443C3F883
:100A6000E0404B0505D50368D3F8E4401443C3F8D0
:100A7000E4400068084A01EA0203446D074A1C4347
:100A80004465106840EA91701060002010BDDC6D74
:100A900044F00204DCE70000FFFFCF3F14A8004051
:100AA000704790F89830012B07D0D0F89C1041F097
:100AB0000401C0F89C100120704761B10068012951
:100AC00013D0D0F8B01021F0FE4141EA0261C0F825
:100AD000B010002070470068D0F8F01021F07C5171
:100AE00041EA0261C0F8F010F3E7D0F8A01021F05D
:100AF000FE4141EA0261C0F8A010EAE770B590F843
:100B00009820012A09D0022A07D0D0F89C1041F081
:100B10000201C0F89C10012070BD0B68CA6883B147
:100B20000B69072A43EA427325D00C7A4A6942EAE4
:100B300084724968006F00EBC100C0E900320020F8
:100B400070BD072A0DD00C7AD6060D8A4B6943EA90
:100B5000847246EA0543C06E49681A4340F8212072
:100B6000EDE70B8A4FF06055D1E9062442EA0342D3
:100B700045EA0423EFE78A69DBE730B590F898503F
:100B8000039C012D07D0D0F89C1041F00401C0F85F
:100B90009C10012030BD0D01016845EA820040EA49
:100BA00043002043C1F88000002030BD70470000A2
:100BB000074A10B590420AD1880108D5054805F0CA
:100BC0008DFB0548002101764169491C416110BD3A
:100BD000340C0024904200246C98002400684029C2
:100BE00005D0D0F8B40000BF00F07F007047D0F807
:100BF000A400F9E7F0B590F898500024022D04D035
:100C0000D0F89C1041F0080129E0402905D0412985
:100C100029D0056D8D4219D942E00568D5F8A0604C
:100C200016F4FE0F12D0D5F8A460760613D0D5F8CE
:100C3000A460F60105D5D5F8A06016F0004F00D5E8
:100C40000124D5F8A470466F456C24E0D0F89C10C0
:100C500041F0200103E0D0F89C1041F48071C0F80D
:100C60009C100120F0BD0568D5F8B06016F4FE0FA9
:100C7000ECD0D5F8B4607606EDD0D5F8B460F601C6
:100C800005D5D5F8B06016F0004F00D50124D5F891
:100C9000B470866FC56CC7F305273C44654302E01A
:100CA000456DC66F4D4306EB85052E6816F08046F0
:100CB00056602E6836D026F060461660D5F800C023
:100CC00000262E4F0CF0005CC2F808C0D5F800C01A
:100CD0000CF0004CC2F810C0B5F804C01FFA8CFC30
:100CE000C2F81CC0D5F804C0CCF3034CC2F80CC049
:100CF000D5F804C00CF4801CC2F814C0D5F804C0A8
:100D00000CF4001CC2F818C0D5F804C0CCF3066C73
:100D1000C2F820C0D5F804C008354FEADC7CC2F820
:100D200024C008E0C6F38A46C7E700BF15F806C02E
:100D300003F806C0761CD2F80CC017F80CC0B445F6
:100D4000F4D840290AD041290CD020294FF00102C3
:100D50000CD200688A40C0F898200DE00068C0F806
:100D6000A84009E00068C0F8B84005E0006801F05C
:100D70001F018A40C0F89C200020F0BD807200084E
:100D8000704700002DE9FF5FDFF80CB304460BF15C
:100D90000401DBF8000025680F68AA468007D5F833
:100DA0005090696DD5F850806E6D2A6DD5F854C09D
:100DB0002B6D00EA8770009009F470496F6D286D03
:100DC00001EA09010191DAF85410DAF85490DAF8DE
:100DD000505008F00F0806EA0806029602F0F002EA
:100DE00003F071536FEA09061F4000F060700CEACF
:100DF000020CCDF80CC0F20501EA00090CD4E8435E
:100E0000C00509D400214FF48073CAF85030CBF8E4
:100E100000102046FFF7B4FF700512D4E8434005E8
:100E20000FD4206800234FF48068D0F8DC20D0F87D
:100E3000E410C0F85080CBF800301140204600F09C
:100E400002FCDFF858A2009850B12268830F00EA34
:100E50000A001065CBF8003020460099FFF720FE0D
:100E6000019850B12268830F00EA0A001065CBF8A0
:100E700000302046019900F0E8FB029850B122684A
:100E8000830F00EA0A001065CBF800302046029973
:100E900000F012FB039850B12268830F00EA0A00A9
:100EA0001065CBF800302046039900F06DFB30054B
:100EB0000CD4E843000509D4236800204FF40062F5
:100EC0001A65CBF80000204600F0C0FBB00512D434
:100ED000E84380050FD4206800234FF40078D0F851
:100EE000D820D0F8E010C0F85080CBF80030114086
:100EF000204600F0A9FB30030CD4E843000309D4DA
:100F0000236800204FF400221A65CBF80000204629
:100F100000F0D0FAF0030CD4E843C00309D42368EE
:100F200000204FF480321A65CBF80000204600F014
:100F300089FB70030CD4E843400309D422680020E5
:100F40004FF480231365CBF80000204600F079FBB6
:100F5000B0030FD4E84380030CD4236800204FF47F
:100F600000321A65CBF80000D4F89C0040F08000F5
:100F7000C4F89C00B9F1000F0BD022684FEA9973B6
:100F800009EA0A001065CBF8003049462046FFF711
:100F90000FFE5FB12268BB0F07EA0A001065CBF8AD
:100FA0000030D4F89C003843C4F89C003C492068C9
:100FB000884268D1606881468068800763D0D9F82C
:100FC0002060D9F82410D9F82080D9F82400D9F865
:100FD00020C0D9F82470D9F82030D9F82450D9F895
:100FE000202003F4FC4306F00F0AD9F824601D40CA
:100FF000D9F824B008F030080CF4C07C02F4F022D8
:1010000011EA0A0100EA080807EA0C0706EA0206E4
:10101000D9F820A004D0C9F82010204600F00EFB1B
:101020005FEA080005D0616808624146204600F08A
:1010300007FB6FEA0B0040060ED46FEA0A00400679
:101040000AD460684021C36BC26B01622046190C50
:1010500002F03F0200F0F3FA2FB1606807623946F0
:10106000204600F0EAFA35B160680562D4F89C00C9
:101070002843C4F89C0036B160680662D4F89C002E
:101080003043C4F89C00D4F89C00002802D02046CD
:10109000FFF78CFDBDE8FF9F10A80040FFFFCF3F8A
:1010A00000A000402DE9F04194B08D494C22044647
:1010B0006846FFF748FA64B18A4D2068A84202D119
:1010C00000F58070606094F898004FF0000820B13F
:1010D00008E0012014B0BDE8F081204684F8998032
:1010E00000F002F92068816921F01001816100F0AF
:1010F000BDFB0327064604E000F0B8FB801B0A286E
:1011000011D8206880690007F6D42068816941F011
:101110000101816100F0AAFB06460DE000F0A6FB8C
:10112000801B0A2808D9D4F89C0040F00100C4F8BC
:101130009C0084F89870CCE720688069C007EDD0E7
:101140002068816941F002018161207C01282068CA
:10115000816937D041F040018161607C01282068BD
:10116000816932D021F480418161A07C012820680E
:1011700081692DD041F4805181612068A268816924
:1011800021F44071114381612068816921F0A4013B
:1011900081612068016921F010010161E068012886
:1011A00019D010B302281BD02068816941F080015A
:1011B00081612068016941F010010161E068032844
:1011C0000ED012E021F04001C6E741F48041CBE7A8
:1011D00021F48051D0E72068816941F0040103E0E7
:1011E0002068816941F020018161207E6FF0FF025B
:1011F000D4E90773A68A1102400602EB0727A0F183
:101200000070384327685B1E184301EB06463043E5
:10121000F861A068B0F5407F11D104F12800A68CD8
:101220006FF00F0C89C801EB0641401E02EB032250
:10123000104322680CEB071318430843D060206E5C
:1012400030B12068626ED0F8C0101143C0F8C010F1
:10125000D4E917126846D14209D02168A36E51F82B
:10126000C82F50F8233022F007021A430A60216C7D
:1012700049B12168626C51F8BC3F50F8226023F0FC
:10128000070232430A60A16C51B12168E36C51F846
:10129000BC2F50F8233022F0700242EA03120A6099
:1012A000216D51B12168626D51F8BC3F50F82200A8
:1012B00023F4E06242EA002008602068A84204D1DA
:1012C0006068816821F003018160C4F89480012185
:1012D000C4F89C8084F898102046FFF7A7FAF9E636
:1012E0009072000800A000402DE9F047B4B081469C
:1012F00014212EA8FFF761F9B8216846FFF75DF9C0
:10130000664C0026D9F800004FF08051644A0C3C2E
:10131000614F4FF00208614D9042DFF888A14FF015
:10132000090938D100201B914A13CDE900206846F5
:1013300001F0D8F808B1FFF752FA3868401C38605D
:10134000012807D1286840F480702860286800F4DC
:1013500080703390206840F00800206020680322ED
:101360002E922EA900F00800CDE92F863196CDE906
:101370003290504600F06CF900220521132000F055
:1013800013FB132000F002FB00220521152000F0C2
:101390000BFB15203BE0444A90423DD100201B91BD
:1013A0004FF40042CDE90020684601F09BF808B1F7
:1013B000FFF715FA3868401C3860012807D1286803
:1013C00040F480702860286800F4807033902068B2
:1013D00040F002002060206860222E922EA900F0CA
:1013E0000200CDE92F863196CDE932902F4800F0EA
:1013F0002FF900220521142000F0D6FA142000F065
:10140000C5FA00220521162000F0CEFA162000F0C1
:10141000BDFA34B0BDE8F087254A9042F9D10020EA
:101420001B914FF40042CDE90020684601F05AF8C4
:1014300008B1FFF7D4F93868401C3860012807D19B
:10144000286840F480702860286800F48070339029
:10145000206840F00800206020684FF440512E9131
:10146000052200F00800CDE92F862EA93196CDE99E
:101470003220504600F0ECF8002205219F2000F0B9
:1014800093FA9F2000F082FA00220521A02000F0AC
:101490008BFAA020BBE7000004000024EC440258B3
:1014A00000A00040000C025800A4004000040258B4
:1014B00000D40040704700002DE9F0472F4A96B055
:1014C0008146904217D1C80715D000262C4DB04652
:1014D0004CE0282104A8FFF770F8402148460EABE5
:1014E000CDF8388004AACDF83C80FFF783FB28B103
:1014F0006868401C686016B0BDE8F087059828BB96
:10150000069818BB0A9808BB0998F8B90498B0F572
:10151000006F1BD2079F00240DF1440A204601A949
:1015200005F0F8FA70B10198B8420BD18AF8004082
:101530000EAA04989DF8443081B212A804F0A4FECB
:1015400020B907E0641CE4B2082CE7D96868401CA5
:10155000686007E00B4812A904F0CFFE10B1A8683C
:10156000401CA860761CF6B2202EC4D2402148460A
:10157000FFF734FB0028ACD1BDE70000340C002499
:101580006C98002490420024704790F8981001292C
:1015900007D0D0F89C1041F00401C0F89C10012045
:1015A0007047022180F89810002201688B6923F0AF
:1015B00001038B61C0F89C201046704710B590F86D
:1015C00098100022022906D0D0F89C1041F00801A2
:1015D000C0F89C1012E0016803238C6944F00104F8
:1015E0008C6101680DE0322A0AD900BFD0F89C1046
:1015F00041F00101C0F89C1080F89830012010BD26
:10160000521C8C69E407EED08C69002224F010048F
:101610008C61016802E0322AE8D8521C8C692407E8
:10162000F9D48C690023012244F002048C61C0F8D3
:10163000943080F89820184610BD70477047704766
:101640007047704770477047704770477047000099
:101650002DE9F84F03247A4D00234FF001094FF094
:10166000B04B4FF00F0AE4E009FA03F6324078D0AD
:101670000F7907F00307012F01D0022F1AD18768D5
:101680004FEA430ED1F80CC004FA0EF827EA080717
:101690000CFA0EFC4CEA070CC0F808C0476891F839
:1016A00004C0B743CCF3001C0CFA03FC4CEA070C53
:1016B000C0F804C00E79F643B6070BD0C6684FEAEF
:1016C00043088F6804FA08FC26EA0C0607FA08F7B4
:1016D0003743C7600E7906F00306022E12D1DE08EA
:1016E0000F694FEA437C00EB8606B646366A4FEA3E
:1016F000DC6C0AFA0CF807FA0CF726EA08063743FE
:10170000CEF820700F7906684FEA430807F0030708
:1017100004FA08FC07FA08F726EA0C0637430760C4
:101720004E6816F4403F1CD0464E376847F002071B
:10173000376036689F0706F00206009623F003061E
:1017400006F1B046B6463F0FD6F80864DFF8F880D9
:101750000AFA07FC404526EA0C0603D14FF0000CBC
:101760003AE065E0DFF8E4C0604502D14FF0010CDB
:1017700032E0DFF8DCC0604502D14FF0020C2BE014
:10178000DFF8D0C0604502D14FF0030C24E0DFF851
:10179000C8C0604502D14FF0040C1DE0DFF8BCC0AA
:1017A000604502D14FF0050C16E0DFF8B4C060458B
:1017B00002D14FF0060C0FE0DFF8A8C0604502D15F
:1017C0004FF0070C08E0DFF8A0C0604502D14FF0F1
:1017D000090C01E04FF00A0C0CFA07FC4CEA060C6D
:1017E000CEF808C44F68DBF80060FF0226EA020664
:1017F00000D516435F46CBF80060D1F804C0DBF893
:1018000004605FEA8C2C26EA020600D516437E604F
:101810006E684F6826EA0206BF0300D516436E6065
:101820002E684F6826EA0206FF0300D516432E6095
:101830005B1C0A6832FA03F67FF416AFBDE8F88F36
:1018400080000058F4440258000002580004025876
:1018500000080258000C02580010025800140258E8
:1018600000180258001C02580024025801488068E1
:10187000704700007C00002402488168027811440F
:10188000816070477C000024032010B500F0ACF8A4
:1018900001F056FC0F4A104914681368C4F3032280
:1018A00003F00F038A5CC95C02F01F0201F01F0104
:1018B000D0400A4A20FA01F11160094908600F205E
:1018C00000F010F808B1012010BD00F04DF8002024
:1018D00010BD000018440258DC7200088C0000247F
:1018E0008800002410B5102804468AB02AD20022AD
:1018F0000146A12000F058F8A12000F047F8154853
:1019000004601548016841F080710160006808A911
:1019100000F080700990684601F0B0FB01F0FEFB1A
:101920000E49400000220E4CB0FBF1F10D4840F290
:10193000E7330460C0E90332491EC0E9011201F037
:1019400031FF10B101200AB010BD064801F05CFF64
:10195000F9E7000080000024EC44025840420F00E8
:1019600000E00040140E0024074882B0016841F0F6
:1019700002010160006800220F2100F002000090C7
:10198000901E02B000F010B8F4440258002809DBA1
:10199000410900F01F028900012001F1E02190407F
:1019A000C1F80001704700000E4BF0B41B680D46F3
:1019B000C3F30223C3F10706042E00D90426191D20
:1019C000072901D2002300E0DB1E012404FA06F1FE
:1019D0009C40491E2940641E994014402143F0BC9C
:1019E00004F03BBA0CED00E0064900F0070210B528
:1019F0004FF6FF040868044B204040EA02201843D9
:101A0000086010BD0CED00E00000FA05016801233C
:101A1000C0F8D834002280F8CC248869044A40F009
:101A200000608861486D10434865002070470000E1
:101A30000300001070470068416200207047F0B555
:101A400003685D6A39B19F6A4C1E00204FF48276AC
:101A500005EB17450BE045EA0240986210E0471C91
:101A600006EB800053F800C0F8B205EB1C45A0421D
:101A7000F5D34FF4807000EB810045EA02421A5022
:101A80000020F0BDD0F8E00403F035B901EBC1024D
:101A900000EB8202D0F8E004126A03F088B801EB90
:101AA000C10200EB8202D0F8E004D2F8602203F019
:101AB000DAB8D0F8E00403F020B90A0601F00F010B
:101AC00001EBC10100EB810101D5143101E001F509
:101AD0001571006804F00CB801F00F020B0670B528
:101AE00002EBC20104464FF001004FF0000504EB89
:101AF000810102D54875143103E081F8555201F592
:101B000015710A7094F89424012A08D084F894047A
:101B1000206803F00DFD002084F8945470BD02206D
:101B200070BD70B50279044601F00F00904201D9F2
:101B3000012070BD01F00F024FF000050B0602EB13
:101B4000C2014FF0010204EB810102D54A75143144
:101B500003E081F8555201F515718D70087094F805
:101B60009404012808D084F89424206803F04AFEE5
:101B7000002084F8945470BD022070BD01F00F0164
:101B800001EBC10100EB8100D0F8680270472DE93C
:101B9000F04101F00F0604460D064FF0010006EB80
:101BA000C6014FF0000504EB810102D548751431E0
:101BB00003E081F8555201F515714F788A600B7179
:101BC0000E7007B14E83022B00D14D7194F894240E
:101BD000012A09D084F89404206803F0F1FB284618
:101BE00084F89454BDE8F0810220FBE770B501F061
:101BF0000F05002405EBC50100EB810101F518710B
:101C000081E81C0001F80B4C01F80C5D8379012B75
:101C100000D1CA618279006803F04CFE002070BDDB
:101C200070B50D460179044605F00F00884201D9D0
:101C3000012070BD29064FF000064FF0010206D5C5
:101C400000EBC00104EB81014A75143107E005EB9C
:101C5000C50104EB810181F8556201F515718A70A7
:101C6000087094F89404012807D084F8942420681C
:101C700003F0F4FD280702D007E0022070BDA1792F
:101C800004F29C42206803F091FD002084F89464E3
:101C900070BD70B501F00F04002504EBC4010126EE
:101CA00000EB8101203181E82C0001F80B6C01F878
:101CB0000C4D8379012B00D1CA618279006803F051
:101CC000F9FD002070BD00002DE9FC5F05680446A9
:101CD000284603F0A9FF00287ED1206803F0D0FF3A
:101CE000002879D0D5F80808C0F30D20C4F8D40432
:101CF000206803F0C5FF800704D52068416901F022
:101D000002014161206803F0BBFFC10604F29C4060
:101D1000009035D52068816921F0100181612F6A1A
:101D200007F00F01C7F3434001EBC101022804EBA8
:101D3000810606F5157602D0062812D01BE047F67C
:101D4000F070074217D0C7F30A12F1681746284609
:101D500003F09AFF7169F068394471613844F060AA
:101D600009E000990822284603F08EFF7069C7F346
:101D70000A11084470612068816941F01001816195
:101D8000206803F07DFF00034FF0080B4FF0000ABE
:101D90004FF001097CD52068002603F050FF07466C
:101DA00074E0F80770D02068F1B203F061FF80465C
:101DB000C00707D005EB4611C1F8089B3146204605
:101DC00001F070FF5FEA087024D505EB4611C1F8F9
:101DD00008BBFA49206800E03EE2026C00EB4610C6
:101DE00001928A42D0F8081B05D9090403D54FF4A3
:101DF0000041C0F8081B204600F001FBEF490198A4
:101E0000884207D9A079012804D120680121009ACD
:101E100003F0CCFC5FEAC86004D505EB4611102046
:101E2000C1F8080B5FEA88701DD56869000605D502
:101E3000D5F8040840F48061C5F8041806EBC60024
:101E400004EB800090F8571200F51570012905D1B8
:101E500080F803A02046F1B200F004FA05EB461129
:101E60000220C1F8080B5FEA886004D505EB461133
:101E70002020C1F8080B5FEA884005D505EB461124
:101E80004FF40050C1F8080B7F08761C002F88D152
:101E9000206803F0F5FE40036ED5206803F0C8FE0D
:101EA0000026074666E0F80762D02068F1B203F02A
:101EB000CDFE8046C00723D0D5F8342806F00F01A8
:101EC00005EB461309FA01F18A43C5F83428C3F833
:101ED0000899A07901280FD106EBC60004EB800019
:101EE000D0E907211144016236B9606A20B920683F
:101EF0000121009A03F05AFC2046F1B2FFF7C6FD1B
:101F00005FEA087003D505EB4611C1F808B95FEA2E
:101F1000C86004D505EB46111020C1F808095FEA36
:101F2000486004D505EB46114020C1F808095FEA76
:101F3000887016D53146284603F04BFE06EBC600E6
:101F400004EB8000C17D1430012905D180F803A085
:101F50002046F1B200F082F905EB46110220C1F8EB
:101F600008095FEA086003D53146204601F000FF0A
:101F70007F08761C002F96D1206803F081FE002890
:101F800011DAD5F8040820F00101C5F8041894F816
:101F9000CC0401283BD0204600F016FA20684169A5
:101FA00001F000414161206803F06AFE00050BD595
:101FB000D5F80808C00702D0204600F049FA20688A
:101FC000416901F400614161206803F059FE00019C
:101FD0000AD52068416901F00061416194F8CC04A0
:101FE000E0B1204600F034FA206803F049FEC00456
:101FF00072D5D5F8040820F00101C5F8041820684E
:10200000102103F0E6FD00214FF67F322DE0002184
:10201000204684F8CCA4FFF70DFDBFE784F8CC94EC
:102020002068406D0121C0F38300C4F8D00420462D
:10203000FFF700FDD8E700BF05EB4110C0F8082905
:10204000D0F8003923F40013C0F80039C0F8082B89
:10205000D0F8003B23F40013C0F8003BD0F8003B5D
:1020600043F00063C0F8003B491C20798842E3D864
:10207000D5F81C0840F00111C5F81C18E07B68B1C8
:10208000D5F8840840F00B01C5F88418D5F8440849
:1020900040F00B012846C5F844180DE0D5F81408A7
:1020A00042F22B010843C5F81408D5F8100840F097
:1020B0000B012846C5F81018D0F8000820F4FE617E
:1020C000C5F80018A1792068009A03F06FFB20681A
:1020D000416901F480514161206803F0D1FD800421
:1020E00015D5206803F0ACF9206803F090FDE0718D
:1020F00000F0F2FFE2790146206803F025FE204659
:1021000000F04CF92068416901F4005141612068F8
:1021100003F0B6FD000707D5204600F059F9206806
:10212000416901F008014161206803F0A9FD000642
:1021300016D5A869012620F08001A9610DE000BF35
:1021400006EBC60004EB800090F85702012803D18B
:102150002046F1B2FFF7B1FC761C2079B042EFD8EF
:10216000206803F08DFDC0021FD501264F4614E004
:1021700006EBC60105EB461004EB8101D0F800091F
:102180000A7E012A08D1002806DAF0B2CF7540F0A5
:1021900080012046FFF791FC761C2079B042E7D8F9
:1021A0002068416901F480114161206803F068FDF5
:1021B000800234D501204B4629E000000A30544FFC
:1021C00000EBC00205EB401104EB8202D1F8001BCA
:1021D00092F85862012E19D1002917DA94F8D464C4
:1021E00001F4803106F00106B1420FD182F8573276
:1021F000A96941F08002AA616969090606D4D5F887
:10220000040840F40070C5F8040803E0401C21797C
:102210008142D5D82068416901F4001141612068EC
:1022200003F02EFD400007D52046FFF72BFC206869
:10223000416901F080414161206803F021FD4007C0
:102240000AD520684568680702D52046FFF731FCAB
:102250002068416829434160BDE8FC9FD0F8E00454
:1022600002F0A3BDD0F8E00402F0B3BDF8B504005D
:1022700004D094F89504002510B106E00120F8BDC3
:10228000204684F8945400F057F8032084F895040D
:10229000206803F085FA207C8DF8000094E80F0098
:1022A00003F0DCF80226B0BB2068002103F00CFD2F
:1022B00088BB002001270CE000EBC001421C04EBAE
:1022C00081014F750D76CD610D624D620875C8852F
:1022D000D0B221798142EFD8002011E000EBC0019B
:1022E000421C04EB810181F8555281F85852C1F823
:1022F0005C52C1F86052C1F8645281F85402D0B205
:1023000021798142EAD8207C8DF8000094E80F0002
:1023100003F090F910B184F89564AFE7207B657401
:1023200084F89574012802D12046FFF76FFB2068DE
:1023300003F072F90020F8BD10B5B0B00446B82122
:102340006846FEF73AF913492068884220D10020F8
:102350004FF480214FF440122192CDE900106846DD
:1023600000F0C0F808B1FEF73AFA00F0B3F80A48F6
:10237000016841F00071016000680022052100F051
:1023800000702E904D20FFF70FFB4D20FFF7FEFA57
:1023900030B010BD00000440D844025870B5044667
:1023A000C079012570B1022801D0FEF718FAD4F8DF
:1023B000E004294602F07CFDD4F8E004BDE870405A
:1023C00002F030BD0025F2E7D0F8E00402F059BD7C
:1023D000D0F8E00402F05FBD10B5044690F8940414
:1023E00001280AD00120617484F89404206803F065
:1023F0009AFC002084F8940410BD022010BDD0F88F
:10240000E02400F29C41104602F05EBD10B590F849
:10241000941404460068012909D0012184F8941419
:10242000C168490609D5617B012902D005E0022077
:1024300010BD816B41F480318163206803F0A7FBFC
:10244000206803F0DBF8002084F8940410BD00003D
:1024500010B50446D0F8E00402F078FD2068D0F80A
:10246000001E41F00101C0F8001EE07A002804D0EF
:102470000248016841F00601016010BD10ED00E066
:10248000134970B50A68D243520705D5096801F0AF
:102490000701814213D118E00A6822F007020243C3
:1024A0000A60FFF7E3F90A4D4FF47A760446083DD7
:1024B00007E000BFFFF7DAF9001BB04201D90120A5
:1024C00070BD2868C0438004F4D4002070BD0000B3
:1024D0000C4802580248016841F080710160704761
:1024E0000C4802582DE9FE4F0546DFF800A450F8CD
:1024F000081B0024FD4FC943019005F12800264622
:102500000AF1240A009008011DD4686E50B1B0F59C
:10251000801F0CD0B0F5001F0ED0B0F5401F1ED0AC
:1025200001240FE0386840F40030386017E001986B
:10253000022101F06FFC03E00098022101F0FAFC97
:1025400004000CD026462888C043C00523D4A86DBB
:1025500005281ED2DFE800F00C11161B1B006A6E66
:10256000DAF8001021F440111143CAF80010EAE72C
:10257000386840F40030386009E00198002101F02B
:1025800049FC03E00098002101F0D4FC0446C4B1EA
:1025900000E0012426462888DFF85083C04308F174
:1025A0002C0840052FD4D5F8A400B0F5C00F28D0D2
:1025B00010DCB8B1B0F5001F19D0B0F5800F0FD105
:1025C0001AE0AA6DDAF8001021F007011143CAF8E9
:1025D0000010E0E7B0F5000F13D0B0F5200F10D0D9
:1025E00001240FE0386840F40030386009E00198B9
:1025F000002101F00FFC03E00098002101F09AFC9B
:10260000044694B126462888C043000530D4D5F846
:10261000A800B0F1407F29D011DCC0B1B0F1807FBB
:102620001AD0B0F1007F10D11BE0D5F8A420D8F863
:10263000001021F460011143C8F80010E3E7B0F185
:10264000806F13D0B0F1A06F10D001240FE0386874
:1026500040F40030386009E00198002101F0DAFB15
:1026600003E00098002101F065FC044694B1264681
:102670002868DFF878B2C0430BF1200B80011FD42B
:10268000E86CD8B110280FD0202812D0302815D0EF
:10269000012414E0D5F8A820D8F8001021F0E0615A
:1026A0001143C8F80010E3E7386840F400303860A0
:1026B00004E00198022101F0ADFB044674B1264606
:1026C0002888C043C0042BD4E86DB0F5005F20D04B
:1026D0000DDCA0B1B0F5805F0FD115E0EA6CDBF83E
:1026E000001021F030011143CBF80010E8E7B0F5FD
:1026F000405F13D0B0F5804F10D001240FE0386850
:1027000040F40030386009E00198002101F082FBBC
:1027100003E00098002101F00DFC04468CB1264630
:102720002888C043800429D4286EB0F5403F23D0C8
:1027300010DC08B3B0F5803F14D0B0F5003F0FD1E6
:1027400015E0EA6DDAF8001021F4E0411143CAF80F
:102750000010E5E7B0F5802F0ED0B0F5A02F0BD01C
:1027600001240AE00198012101F054FB03E00098E4
:10277000012101F0DFFB044694B126462888C043BE
:1027800040042AD4D5F8AC00B0F1405F23D010DC6F
:1027900008B3B0F1805F14D0B0F1005F0FD115E045
:1027A0002A6EDAF8001021F4E0211143CAF8001073
:1027B000E4E7B0F1804F0ED0B0F1A04F0BD0012470
:1027C0000AE00198012101F025FB03E000980121B6
:1027D00001F0B0FB044674B126462888C0430004CB
:1027E0001FD4E86ED8B1B0F1805F0ED0B0F1005FB9
:1027F00010D0012414E0D5F8AC20D8F8001021F056
:10280000E0411143C8F80010E7E7386840F40030B1
:10281000386004E00198012101F0FCFA044674B12B
:1028200026462868C043C0011ED4A86CD0B1012838
:102830000ED0022811D0032814D0012413E0EA6E30
:10284000DAF8001021F040511143CAF80010E8E70F
:10285000386840F40030386004E00198022101F04B
:10286000D9FA04466CB126462868C043400255D4C4
:102870001F48016841F480710160FEF7F7FF81464F
:102880000EE0AA6CDBF8001021F003011143CBF835
:102890000010E9E7FEF7EAFFA0EB090064283BD847
:1028A00013480068C005F5D5BCBBDFF84090B5F80B
:1028B000B01009F14409D9F8000001F4407100F4A6
:1028C0004070884211D0D9F80010D9F8002021F4C6
:1028D000407142F48032C9F80020D9F8002022F477
:1028E0008032C9F80020C9F8001003E02C440258D7
:1028F00000480258D5F8B000B0F5807F19D1FEF736
:10290000B5FF029011E000BFFEF7B0FF0299411A37
:1029100041F28830814208D9032426462878DFF81E
:102920001494C043C00721D03CE0D9F800008007D0
:10293000EAD5D5F8B010C1F301200328FE480DD028
:10294000016821F47C510160B5F8B020D9F800107D
:10295000C2F30B021143C9F80010DFE7F74A03681E
:1029600002EA111223F47C511143ECE7A86F1828F6
:1029700016D005DCA0B1082808D0102804D10AE040
:1029800020280DD028280BD001240AE0019801212D
:1029900001F040FA03E00098012101F0CBFA04466F
:1029A00064B126462878C04380071ED4686F062885
:1029B00019D2DFE800F0160C11161616AA6FD9F816
:1029C000001021F038011143C9F80010EAE701981E
:1029D000012101F01FFA03E00098012101F0AAFA99
:1029E00004467CB100E0012426462878C043400715
:1029F0001FD4D5F89000062819D2DFE800F0160C95
:102A0000111616166A6FD9F8001021F0070111434C
:102A1000C9F80010E9E70198012101F0FBF903E092
:102A20000098012101F086FA0446A4B100E00124D7
:102A300026462878C04380062BD4D5F88C00B0F108
:102A4000405F24D011DC10B3B0F1805F15D0B0F13D
:102A5000005F10D116E0D5F89020D8F8001021F0D2
:102A600007011143C8F80010E3E7B0F1804F0ED022
:102A7000B0F1A04F0BD001240AE00198002101F031
:102A8000C9F903E00098022101F054FA044694B118
:102A900026462878C04340062BD4D5F89800B0F5D8
:102AA000406F24D011DC10B3B0F5806F15D0B0F5B5
:102AB000006F10D116E0D5F88C20D9F8001021F065
:102AC000E0411143C9F80010E3E7B0F5805F0ED094
:102AD000B0F5A05F0BD001240AE00198002101F0BD
:102AE00099F903E00098022101F024FA044694B118
:102AF00026462878C04300062BD4D5F89C00B0F5B4
:102B0000C04F24D011DC10B3B0F5005F15D0B0F584
:102B1000804F10D116E0D5F89820D8F8001021F495
:102B2000E0511143C8F80010E3E7B0F5004F0ED0B4
:102B3000B0F5204F0BD001240AE00198002101F0EC
:102B400069F903E00098022101F0F4F9044654B158
:102B500026462878C04300071ED4D5F88000B0F57B
:102B6000805F0AD00FE0D5F89C20D8F8001021F43F
:102B700060411143C8F80010EBE70098022101F012
:102B8000D9F900B10126D5F88020D9F8001021F438
:102B900040511143C9F800102878C043C00613D42F
:102BA000D5F89400B0F5807F05D10098022101F09E
:102BB000C1F900B10126D5F89420D8F8001021F40D
:102BC00040711143C8F800102868C043000316D4B0
:102BD000D5F8A00038B1B0F5803F09D0B0F5003F7E
:102BE0000BD001240AE00198002101F013F903E061
:102BF0000098022101F09EF904468CB1264628680F
:102C0000C043400322D4D5F88400B0F5801F11D012
:102C1000B0F5001F13D0B0F5401F15D0012414E00B
:102C2000D5F8A020D8F8001021F440311143C8F89D
:102C30000010E4E7386840F40030386004E00098A1
:102C4000012101F077F904465CB126462868C043AB
:102C5000C0031CD4286D70B1B0F5803F10D00124A2
:102C600014E0D5F88420D9F8001021F44011114364
:102C7000C9F80010EAE7386840F40030386004E032
:102C80000198022101F0C6F80446DCB12646286806
:102C9000C043800005D40098022101F04BF900B137
:102CA00001262868C04380031BD4E86FB8B1B0F593
:102CB000807F10D0B0F5007F11D0B0F5407F0ED0EE
:102CC00001240DE02A6DDBF8001021F4803111435E
:102CD000CBF80010DBE7386840F4003038607CB394
:102CE00026462868C043C00207D42A6FDAF80010CD
:102CF00021F000411143CAF800102868C043800247
:102D000007D4AA6EDAF8001021F080711143CAF8D6
:102D100000102868C043400009D40748016821F426
:102D2000004101600168D5F8B420114301602868B2
:102D3000C04306E05444025810440258CFFFFF003D
:102D40001DE007D46A6DDBF8001021F040511143FB
:102D5000CBF800102868C043000208D4D5F88820BA
:102D6000D9F8001021F440011143C9F80010287966
:102D70000024C04300F00100204309D00EE0EA6FB8
:102D8000D9F8001021F440711143C9F80010A8E7E8
:102D90000198002101F03EF800B106462879C043B1
:102DA00000F00200204305D10198012101F032F822
:102DB00000B106462879C04300F00400204305D145
:102DC0000198022101F026F800B106462879C04397
:102DD00000F00800204305D10098002101F0AAF876
:102DE00000B106462879C04300F01000204305D109
:102DF0000098012101F09EF800B106462879C043F1
:102E000000F02000044304D10098022101F092F860
:102E100000B916B10120BDE8FE8F0020FBE70000DD
:102E20002DE9F05F04000F467ED0DFF83882D8F835
:102E3000000000F00F00B8420CD2D8F8001021F0CA
:102E40000F013943C8F80010D8F8000000F00F0057
:102E5000B84269D12078844D40070AD52069296895
:102E600001F07001884204D9296821F07001014302
:102E7000296020787C4E361D00070AD560693168CC
:102E800001F07001884204D9316821F070010143DA
:102E900031602078C0060AD5A069316801F4E0618C
:102EA000884204D9316821F4E0610143316020781F
:102EB000DFF8B4B180060BF1080B0CD5E169584678
:102EC000DBF8002002F07002914204D9026822F07F
:102ED00070020A430260207880070AD5E0682968FA
:102EE00001F00F01884204D9296821F00F01014344
:102EF00029602078C0073ED05B49A268286818394D
:102F000020F47060104328606068022818D00328FD
:102F100019D00968012819D0490700294ADADFF8D1
:102F200048A1AAF1080A00E044E0DAF8002022F003
:102F300007020243CAF80020FEF798FC814612E01F
:102F400009688903E9E709688901E6E7C905E4E753
:102F5000FEF78CFCA0EB090141F28830814202D9D6
:102F60000320BDE8F09F6168DAF8000000F0380047
:102F7000B0EBC10FECD1207880070AD5E068296852
:102F800001F00F01884204D2296821F00F010143AA
:102F90002960D8F80010404601F00F01B9420BD962
:102FA000016821F00F0139430160006800F00F0053
:102FB000B84201D00120D4E7207840070AD5206923
:102FC000296801F07001884204D2296821F070015B
:102FD00001432960207800070AD56069316801F053
:102FE0007001884204D2316821F0700101433160E0
:102FF0002078C0060AD5A069316801F4E0618842F2
:1030000004D2316821F4E061014331602078800608
:103010000CD5E1695846DBF8002002F070029142BD
:1030200004D2026822F070020A43026000F088F8BD
:103030000E492A682B68C2F3032203F00F038A5C4F
:10304000C95C02F01F0201F01F01D040084A20FABB
:1030500001F111600749086007480068BDE8F05FAA
:10306000FEF740BC0020005218440258DC720008F1
:103070008C000024880000248000002470B5144CCB
:103080003F220260124A24680832131D114D04F0D9
:103090000704446016681C1D06F470668660166896
:1030A00006F00F06C660126802F0700202611A682C
:1030B00002F0700242611A6802F4E06282612268E2
:1030C00002F07002C261286800F00F00086070BD55
:1030D000104402580020005230B500F031F80B4A7D
:1030E0000B490C4B15681468C5F3032204F00F0458
:1030F0008A5C095D02F01F0201F01F01D040064A00
:1031000020FA01F119601060084630BD18440258D9
:10311000DC7200088C0000248800002400B5FFF752
:10312000DBFF05490968054AC1F30221515C01F042
:103130001F01C84000BD00001C440258DC7200089A
:10314000454970B545480968434B103B11F03802BA
:1031500008D00111082A03D0102A0BD0182A0BD04E
:10316000084670BD19688906FBD51968C1F3C1010D
:10317000C84070BD3A4870BD3749374D18310C1DF5
:1031800024350A68096826682D6802F0030406F0F1
:103190000102C1F30511C5F3CC0515FB02F200EEE7
:1031A000102AB8EE400AE9B32F4ADFED2E0AB7EE37
:1031B000001A6CB1DFED2D1A012C01D0022C43D086
:1031C00002EE101A1068F8EE422A81EEA22A1EE0E2
:1031D0001C68A40611D51B6801EE901A1168C3F390
:1031E000C103F8EE612AD84001EE900AC1F308004D
:1031F000F8EE611A81EEA22A0BE001EE901ADFEDE3
:103200001C2A00BFF8EE611A106882EEA12AC0F3F2
:10321000080001EE900AF8EE611A40EE201A31EE35
:10322000810A00E015E022EE000A1068C0F3462093
:10323000401C00EE900AF8EE600A80EE201ABCEE08
:10324000C10A10EE100A70BD01EE901ADFED092AD6
:10325000D8E7002070BD0000104402580090D00351
:1032600000366E0100000039304402580024744AD0
:103270000024744C001BB74B2DE9F05F04007DD097
:10328000FF4F2078FE4D1837DFF8F483103DC0075C
:1032900048D0D8F80000396800F03800102815D060
:1032A000182803D101F0030002280FD06068B0F5A0
:1032B000803F12D010B1B0F5A02F18D0286820F4AC
:1032C00080302860286820F4802009E02868800386
:1032D00028D560680028D2D024E0286840F48030E7
:1032E0002860606888B1FEF7C1FA064609E02868E0
:1032F00040F480202860F0E7FEF7B8FA801B6428CD
:103300007ED828688003F7D50CE0FEF7AFFA0646B2
:1033100005E000BFFEF7AAFA801B6428F0D82868F1
:103320008003F7D42078800756D5D8F80000DFF85E
:103330005093396810F03800A9F10C090ED0182804
:1033400001D188070AD0E068A8B3296821F01901E3
:1033500001432960FEF78AFA064628E028684007FC
:1033600002D5E06800288AD0E168286820F01900BA
:1033700008432860FEF77AFA064606E0D2E000BF6E
:10338000FEF774FA801B0228BAD828684007F7D5E0
:10339000217CD9F8002022F0FE4242EA0161C9F8FE
:1033A000001019E0FEF762FA801B0228A8D82868EE
:1033B0004007F7D5ECE7FFE7286820F00100286018
:1033C000FEF754FA064604E0FEF750FA801B022886
:1033D00096D828684007F7D42078C00646D5D8F894
:1033E0000000DFF89C92396800F03800A9F1040968
:1033F000082812D0182805D101F00300012800E0A8
:10340000CEE00AD0E0690028286820D040F0800093
:103410002860FEF72BFA064615E02868C00502D59D
:10342000E06980287ED194F82010D9F8002022F09D
:103430007C5242EA0161C9F8001017E0FEF716FA63
:10344000801B0228A0D82868C005F7D5EBE720F03C
:1034500080002860FEF70AFA064604E0FEF706FA46
:10346000801B022890D82868C005F7D42078000770
:1034700029D583486169643000298146016811D0EB
:1034800041F001010160FEF7F1F9064605E000BFD9
:10349000FEF7ECF9801B022888D8D9F800008007D5
:1034A000F6D510E021F001010160FEF7DFF90646D4
:1034B00005E000BFFEF7DAF9801B022870D8D9F8C2
:1034C00000008007F6D42078800623D5A069002864
:1034D000286810D040F480502860FEF7C7F90646EF
:1034E00005E000BFFEF7C2F9801B022858D8286803
:1034F0008004F7D50EE020F480502860FEF7B6F97E
:10350000064604E0FEF7B2F9801B022848D8286876
:103510008004F7D42078400751D5DFF86891D9F8B6
:10352000001000E015E141F48071C9F80010FEF7C9
:103530009DF9064605E000BFFEF798F9801B642858
:103540002ED8D9F80000C005F6D54D4EA0686036DB
:1035500001280AD008B1052813D0306820F00100F6
:103560003060306820F0040002E0306840F0010074
:103570003060A06841F2883A98B1FEF777F9814649
:103580000AE0306840F004003060EEE7FEF76EF9C4
:10359000A0EB0901514503D830688007F6D50EE04D
:1035A00072E0FEF763F9814606E000BFFEF75EF9C0
:1035B000A0EB0901514567D830688007F6D4606AEE
:1035C00000287CD0DFF8B8A0D8F800100AF1200A53
:1035D0004FF6F87B0AF10408C1F3C2010329AAF1EE
:1035E00004096DD00228286820F08070286003D07C
:1035F000FEF73CF9044681E0FEF738F9064604E0A0
:10360000FEF734F9801B022875D828688001F7D4AA
:10361000E26A40F2F331386854F8283F884340EAC0
:10362000021018433860217B4FF4FE0C22894FF0C2
:10363000FE47208A4902267D521E401EA1F50071D8
:1036400089B2C2F308021143761E0CEA004001431E
:10365000484607EA06621143CAF80010D9F800107C
:1036600021F00101C9F80010D8F80030266A23EAD9
:103670000B0343EAC601C8F80010D9F8001004E0B3
:10368000104402580048025835E0A26921F00C01AC
:103690001143C9F800100168E26921F002011143E9
:1036A0000160016841F480310160016841F400313A
:1036B0000160016841F480210160016801E06CE073
:1036C00020E041F001010160286840F0807028602E
:1036D000FEF7CCF8044604E0FEF7C8F8001B022809
:1036E00009D828688001F7D557E000BFFEF7BEF87B
:1036F000001B022802D90320BDE8F09F2868800142
:10370000F4D44AE039680128DAF8000021D0A26A2E
:1037100001F0030393421CD1E26AC1F305118A420E
:1037200017D1216BC0F30802491E8A4211D1616B87
:10373000C0F34622491E91420BD1A16BC0F3064251
:10374000491E914205D1E16BC0F30660491E8142DA
:1037500001D00120D0E7A16C4646D8F80000C0F3A4
:10376000CC00814219D0D9F800004D4620F001006C
:10377000C9F80000FEF77AF84FEA0007FEF776F87E
:10378000B842FBD0A26C306820EA0B0040EAC200CD
:103790003060286840F0010028600020ACE77047E6
:1037A0007047704710B5040003D094F83D0010B185
:1037B00007E0012010BD002084F83C00204600F006
:1037C00022F8022084F83D002068211D00F024FD2D
:1037D000012084F8480084F83E0084F83F0084F813
:1037E000400084F8410084F8420084F8430084F8E3
:1037F000440084F8450084F8460084F8470084F8C3
:103800003D00002010BD704790F83D10012901D007
:10381000012070471A4A022180F83D100168CB68E8
:1038200043F00103CB60006890421AD0B0F1804FA2
:1038300017D01449884214D01349884211D0134933
:1038400088420ED0124988420BD01249884208D0D3
:103850001149884205D01149884202D01049884256
:1038600007D181680F4A1140062906D0B1F5803F83
:1038700003D0016841F001010160002070470000A1
:10388000000001400004004000080040000C00401F
:1038900000040140001800400040014000E00040EA
:1038A00000E400400700010070472DE9F0410446A4
:1038B00000680027C6680569A90713D5B10711D5A7
:1038C000FA1E026101212177206880698007204665
:1038D00002D0FFF7E9FF04E000F08BF8204600F08B
:1038E00089F82777680716D5700714D52268022053
:1038F0006FF00401116120772068806910F4407F27
:10390000204602D0FFF7D0FF04E000F072F8204616
:1039100000F070F82777280715D5300713D52268EF
:1039200004206FF00801116120772068C0698007CA
:10393000204602D0FFF7B8FF04E000F05AF8204616
:1039400000F058F82777E80616D5F00614D5226857
:1039500008206FF01001116120772068C06910F411
:10396000407F204602D0FFF79FFF04E000F041F8BF
:10397000204600F03FF82777E80708D0F00706D088
:1039800021686FF001000861204600F035F8280634
:1039900001D4A80408D5300606D521686FF402507A
:1039A00008612046FFF7FCFEE80508D5300606D57D
:1039B00021686FF4807008612046FFF7F0FE68060A
:1039C00008D5700606D521686FF0400008612046D2
:1039D00000F01CF8A8060AD5B00608D521686FF0DB
:1039E000200008612046BDE8F041FFF7DABEBDE8DF
:1039F000F08170477047000000680349884201D198
:103A0000FDF73ABF7047000000E000407047FEE756
:103A1000F0B500230A251C463026372711E000BFE9
:103A2000B5EB107F02D906EB107C01E007EB107CB0
:103A300001F813C001EB430C00015B1C8CF8014042
:103A4000DBB29342ECD3F0BD2DE9F0411A480021DE
:103A5000184F012400F114084FF03B0C142681602C
:103A6000022507600D27C1600823047404224174F5
:103A7000847488E85010C0E90864C0E90A57072434
:103A80008463C0E90F23C0E91123C0E90C51C0E9E8
:103A90001325C0E91523C3650366C0E91912FDF7B4
:103AA00001FB002803D0BDE8F041FCF798BEBDE85B
:103AB000F081000000A00040340C00241C480123C9
:103AC0002DE9F041194D002484604FF0140C05607D
:103AD0003B25C46000F124080374022644740D27BA
:103AE0008374042143610822C0E906C5C0F820C0E0
:103AF00040F2064588E8C8008163C0E90C3503231D
:103B0000C0E90F12C0E91112C0E91313C0E9151280
:103B1000C2650266C0E91941FDF7C4FA002803D066
:103B2000BDE8F041FCF75BBEBDE8F08100A40040B9
:103B3000D40C00241B4800222DE9F041184F00F15D
:103B400014088260012507601426C2603B270274B6
:103B50000224427404218274082388E8E00006628B
:103B600040F61206C0E90954C0E90D61C0E90F131F
:103B7000C0E911134FF00D0CC0E90BC4C0E91314D8
:103B8000C0E91513C3650366C0E91921FDF78AFA78
:103B9000002803D0BDE8F041FCF721BEBDE8F0816C
:103BA00000D40040740D002400B587B006491C22E3
:103BB0006846FCF7C8FC0021684602F0C1FC0349D6
:103BC000086007B000BD0000647200080000002417
:103BD00000B587B014216846FCF7EFFC1648016871
:103BE00041F080010160016801F0800105910168E8
:103BF00041F008010160016801F0080105910168C8
:103C000041F001010160016801F0010105910168C5
:103C100041F00201016000684FF4004100F0020031
:103C2000059000200290CDE9001004486946FDF798
:103C30000FFD07B000BD0000E0440258000002582C
:103C400010490122104810B500F08CFF08B1FCF7B4
:103C5000C6FD0E490C4801F0A4F908B1FCF7BFFD00
:103C60000B49094800F018FD08B1FCF7B8FD0648FB
:103C700001F01CFA08B1FCF7B2FDBDE81040FEF7F8
:103C800029BC000008000024600E00245401002418
:103C900068000024FEE7FEE70148FEF715B80000C3
:103CA0005C2500242DE9F041044680790D4620274B
:103CB000236801284FF4004604F29C4203EB4511AF
:103CC000D3F840C0D1F8080B09D0DFF89CE0F445E8
:103CD0003AD1020433D500BFC1F8086B40E0234B52
:103CE0005FEA007E04D59C453AD90004F4D437E05D
:103CF0005FEA806E02D5C1F8087B31E010F0280F32
:103D00002ED19C4501D90004E6D4D1F8101B05EB57
:103D1000C50004EB8000C1F31201D0F87432A3EBAC
:103D20000101C0F8681200F51570ADB903691BB147
:103D3000C2681144C1600FE0206801210AE08006DA
:103D40000AD5C1F8087B07E035B9D4F8640218B980
:103D50000021184601F02AFD2046E9B2FDF79FFE3A
:103D60000020BDE8F08100000A31544F0A30544F62
:103D70002DE9F84F0E460568814601EBC60100EBC0
:103D80008104D4E909201434904202D90120BDE80D
:103D9000F88FA168101A814200D20846C01C05EBBA
:103DA000461887081BE000BFA268A0EB010A524535
:103DB00000D2924699F806100AF1030000911FFA0A
:103DC0008AF3E16887082846F2B202F031F8E16828
:103DD00001EB0A00E060616901EB0A006061D8F85C
:103DE000180980B2B84205D3D4E90401814201D256
:103DF0000028D9D1D4E90401884208D8D5F834186C
:103E0000012006F00F0290408143C5F834180020CD
:103E1000BDE700002DE9F047454D044689464FF0C7
:103E2000000A2868C04380070AD0414E283E306807
:103E300020F080603060FDF719FD0746B04608E0CD
:103E40000120BDE8F08700BFFDF710FDC01B022870
:103E500067D8D8F800000001F6D4206829684FF42C
:103E6000FE0721F47C313E0241EA00302860207ACE
:103E7000A389B4F804C040022D4D2D495B1E227C5D
:103E8000ACF1010C1035091DA0F5007080B2521E76
:103E9000CCF3080C07EA034340EA0C00184306EA97
:103EA0000262104328600868626920F0C000104375
:103EB00008600A68A06922F0200202430A60281DF7
:103EC0000A6822F010020A6002684FF6F873E4698B
:103ED0009A4342EAC40202600868B9F1000F40F058
:103EE00010020A6011D00868B9F1010F11D040F436
:103EF00000100860D8F80000444640F08060C8F820
:103F00000000FDF7B3FC05460DE0086840F4002012
:103F1000EFE740F48010ECE7FDF7A8FC401B022817
:103F200001D903208DE720680001F5D5504688E7C8
:103F3000284402582DE9F047454D044689464FF084
:103F4000000A2868C04380070AD0414E283E3068E6
:103F500020F080503060FDF789FC0746B04608E04D
:103F60000120BDE8F08700BFFDF780FCC01B0228E0
:103F700067D8D8F800008000F6D4208829684FF46C
:103F8000FE0721F07C713E0241EA00502860207A51
:103F9000A389B4F804C040022D4D2D495B1E227C3C
:103FA000ACF1010C1835091DA0F5007080B2521E4D
:103FB000CCF3080C07EA034340EA0C00184306EA76
:103FC0000262104328600868626920F44060104370
:103FD00008600A68A06922F4007202430A60281D82
:103FE0000A6822F480720A6002684FF6F873E46986
:103FF0009A4342EAC40202600868B9F1000F40F433
:1040000080720A6011D00868B9F1010F11D040F038
:1040100080700860D8F80000444640F08050C8F82E
:104020000000FDF723FC05460DE0086840F4800021
:10403000EFE740F40000ECE7FDF718FC401B022816
:1040400001D903208DE720688000F5D5504688E728
:10405000284402580178407841EA0020704708B5AA
:10406000FFF7EEFD03F02AF84FF47A740090FDF7A5
:10407000FDFBA0FB040101F01BFF0421684602F0D8
:1040800099FEF4E7502010B580F31188BFF34F8FED
:10409000BFF36F8F03F018F818B104494FF0805048
:1040A0000860002080F3118810BD000004ED00E0DE
:1040B00030B59DB04C216846FCF77FFA202113A84B
:1040C000FCF77BFA0220FEF7DBF91F48016821F4B8
:1040D000404101600168002401F440411B910168E6
:1040E000C9438904FBD4022009902825212200928B
:1040F000C3030193012106910A900C23CDE90B051E
:104100000FAD062285E8190012946846CDE90D121C
:10411000FFF7B2F808B172B6FEE740201A90082304
:104120000501CDE9163013ABCDE918053F21032277
:1041300083E8160013A81146FEF772FE002801D08E
:1041400072B6FEE71DB030BD184802582748F0B5DA
:10415000274A016841F470010160106800F00F0007
:10416000072804D2106820F00F00C01D10602149FC
:104170000020204C10340B681F4D43F001030B60EE
:1041800020600B682B400B60136803F00F03072BB4
:1041900004D9136823F00F03DB1D1360154C174A75
:1041A0001834174B261D371D2060124C154D28342E
:1041B0003060261D3860371D23603B1D35601C1D97
:1041C0003A60251D2E1D1860331D22602860326064
:1041D00018600A6843F2D204064B0B4D22F4802289
:1041E00060330A6018602C60F0BD000088ED00E0CC
:1041F00000200052004402587FEDF6EA80020101DF
:10420000000202020000FF01004000520148FFF7D7
:104210004CBB0000140E00242DE9F0472D4B4FF04D
:10422000804A2D4D026898422C4E2D4F2D4C09D0BE
:10423000504507D0A84205D0B04203D0B84201D0C3
:10424000A04205D1D1F804C022F070024CEA02026B
:10425000DFF894C0DFF894809842DFF8949015D08E
:10426000504513D0A84211D0B0420FD0B8420DD063
:10427000A0420BD0604509D0404507D0484505D045
:104280001C4DA84202D01C4DA84203D1CD6822F497
:1042900040722A434D6922F080022A43026098420C
:1042A0008A68C2620A68826207D0A04205D060456F
:1042B00003D0404501D0484501D10969016301217E
:1042C00041610169C90703D0016921F00101016160
:1042D000BDE8F087000001400004004000080040F5
:1042E000000C004000040140004001400044014037
:1042F0000048014000E0004000E400402DE9F041AA
:104300000C46D0F8D412D0F8C83200EB8101D1F8B5
:10431000C01229B304F00F02002702EB820500EB64
:104320008506B5694DB102EBC20203EB8202D26988
:10433000B5FBF2F302FB1352A2B1C1F81472D0F82C
:10434000D42200EB8200D0F8C40203692BB1D1F86B
:10435000080201F50471224698470020BDE8F0816B
:104360000320FBE7002321461A46B76100F0FBFD5E
:10437000F3E770B50546D0F8D40205EB8000D0F81D
:10438000C04294B1284600F0C8FCC4F80C02D5F82D
:10439000D40205EB8000D0F8C412D4F80402CA6835
:1043A00004F503719047002070BD032070BD00002C
:1043B00070B5224D0446297800F0F0FB28780026DD
:1043C00000F00F0000EB800004EB800086842046A4
:1043D000697800F0E3FB687800F00F0000EB8000E4
:1043E00004EB8000A0F864612046A97800F0D6FBB9
:1043F000A87800F00F0000EB800004EB80008684BA
:10440000C684D4F8D40204EB8000D0F8C01299B16D
:10441000D0F8C40240688047D4F8D40204EB80008E
:10442000D0F8C00200F0C7FFD4F8D40204EB80003B
:10443000C0F8C062C4F8BC62002070BD0001002456
:1044400010B5D0F8D41200EB8100D0F8C04284B18E
:10445000D0F8C41259B194F80002FF2807D08B6835
:10446000214694F801229847FF2084F8000200209A
:1044700010BD032010BD00000A21018000487047D4
:104480000401002470B5822106460D4800F092FA1E
:10449000012105460A4800F08DFA812104460848AA
:1044A00000F088FA0DB11021A9714FF0400104B15C
:1044B000A18000B1818043203080014870BD0000A0
:1044C0001001002470B5822106460D4800F072FAF2
:1044D000012105460A4800F06DFA8121044608488A
:1044E00000F068FA0DB11021A9714FF4007104B108
:1044F000A18000B1818043203080014870BD000060
:104500001001002470B5822106460D4800F052FAD1
:10451000012105460A4800F04DFA81210446084869
:1045200000F048FA0DB11021A9714FF0400104B11B
:10453000A18000B1818043203080014870BD00001F
:10454000100100242DE9F0474FF407750446284672
:1045500000F032FF06004FF0000965D02946FCF755
:104560002CF8D4F8D40201273C4D4FF4007A4FF0D8
:10457000100804EB8000C0F8C062C4F8BC62207C64
:10458000F0B3297840230222204600F036FC287838
:10459000402300F00F0000EB800004EB80008784D4
:1045A00002226978204600F028FC6978082303225B
:1045B000204601F00F0101EB810104EB8101A1F81C
:1045C0006471A97801F00F0101EB810104EB810115
:1045D000A1F82680A97800F010FCA978C84601F05F
:1045E0000F0101EB810104EB81018F84C6F8049275
:1045F000D4F8D40204EB8000D0F8C402006800E0D4
:104600001AE006F501768047C6F81080C6F81480D7
:1046100032687AB1207CF8B140236978204600F0F6
:10462000F8FB0020BDE8F087D4F8D41204EB810138
:10463000C1F8C0920220F5E72978022253462046AD
:1046400000F0DBFB2878534600F00F0000EB800001
:1046500004EB80008784A3E75346DEE700010024D3
:1046600010B5D0F8D41200EB8101D1F8C01259B1C5
:10467000027C084C002AD1F8042207D0402361783C
:1046800000F0C7FB002010BD032010BD4FF40073E5
:10469000F5E700000001002439B1D0F8D42200EB86
:1046A0008200C0F8C4120020704703207047D0F881
:1046B000D42200EB8200D0F8C00218B1C0F8041276
:1046C0000020704703207047D0F8D43200EB8300FD
:1046D000D0F8C00228B1C0F81022C0F8081200209B
:1046E0007047032070472DE9FC410646D0F8D402FC
:1046F0000C46002106EB80000D46D0F8C0728DF804
:104700000010ADF8041037B1217811F060022CD000
:10471000202A48D102E00320BDE8FC81E288E2B112
:1047200009060BD5D0F8C4023946836860789847EB
:10473000E288072A00D9072239462CE0607887F8FA
:104740000002E088402800D340203946C2B23046FB
:1047500087F8012200F07FF82AE0D0F8C402002296
:10476000214683686078984722E0607830B101285C
:104770001ED00A2809D00B2815D110E096F89C020B
:10478000032810D1022201A905E096F89C02032813
:1047900009D101226946304600F077F808E096F822
:1047A0009C02032804D02146304600F049F8032536
:1047B0002846B1E710B5D0F8D41200EB81020121F0
:1047C000D2F8C0221AB1D2F8143213B116E0032085
:1047D00010BD0B490123C2F81432D2F81032097807
:1047E00001F00F0404EB840400EB8404A361D2F80D
:1047F0001032D2F8082200F0B6FB0021084610BDA6
:104800000001002410B5D0F8B82200245268904767
:1048100000B10324204610BD0020704700207047DF
:1048200013460A46002110B500F0F3FA002010BD2F
:1048300013460A46002110B500F095FB002010BD7C
:1048400010B58021044600F06FFB2046BDE8104003
:10485000002100F069BB10B5C0F858210323C0F84F
:104860009432C0F85C2113460A46002100F0D1FAC8
:10487000002010BD10B50521C0F8941200231A467F
:10488000194600F0C6FA002010BD10B5826102235F
:10489000C0F89432C26113460A46002100F063FB5F
:1048A000002010BD10B50421C0F8941200231A4650
:1048B000194600F058FB002010BDF8B504460D461F
:1048C0000020ADF800004888010A062947D006DC20
:1048D00001290FD0022912D0032962D11DE0072936
:1048E00046D00F295DD1D4F8B402C26920E06946F0
:1048F00090473BE0D4F8B412207C0A68F7E7207CAC
:1049000002260028D4F8B80205D0C16A6846884754
:104910000146467036E0816AF8E7C0B2062840D208
:10492000DFE800F003090D111519D4F8B40242684C
:10493000B2B3207CDBE7D4F8B4028268F8E7D4F89D
:10494000B402C268F4E7D4F8B4020269F0E7D4F81C
:10495000B4024269ECE7D4F8B4028269E8E7207C4B
:10496000F0B9D4F8B802416B68468847014609E0BF
:10497000207CA8B9D4F8B802016B68468847014684
:1049800007204870EA888AB1BDF8000040B1824231
:1049900000D902462046ADF80020FFF776FFF8BDAB
:1049A000FFE729462046FFF74BFFF8E72046FFF7D1
:1049B00079FFF4E778B542880D4601780026044671
:1049C0008A4212D9ADF800100AE0694600F019F8E1
:1049D0004178052904D181780646A94205D00026F0
:1049E0006188BDF800209142EFD8304678BD0021A3
:1049F00002E0491C401CC9B20278002AF9D10846DD
:104A000070470A8803781A440A800178084470477E
:104A100070B5002816460D4620D00446FFF7E7FF84
:104A200002220146100202EB4101814204D82046D5
:104A3000FFF7DDFF4000801C308033780321022027
:104A40002B700022697006E0431C2954D8B2411C27
:104A5000641C2A54C8B221780029F5D170BD010028
:104A60004FF0000004D0012901D0022901D0032019
:104A7000704701207047000004A00A46024910B5A3
:104A8000FFF7C6FF004810BD3C11002443444320FB
:104A9000436F6E6669670000122008800048704707
:104AA0002C00002404A00A46024910B5FFF7B0FF0D
:104AB000004810BD3C11002443444320496E7465F6
:104AC000726661636500000004200880004870473A
:104AD0002800002404A00A46024910B5FFF798FFF9
:104AE000004810BD3C11002453544D6963726F653A
:104AF0006C656374726F6E696373000004A00A468C
:104B0000024910B5FFF784FF004810BD3C11002496
:104B100053544D3332205669727475616C20436F63
:104B20006D506F727400000010B51A2008800B4899
:104B30000A490830021F096800681468081809D07B
:104B400007490822FEF764FF054904222046103178
:104B5000FEF75EFF0248801E10BD000000E8F11F56
:104B60004E00002478B10023C0F8B832C0F8C43237
:104B7000C0F8D03209B1C0F8B4120121027080F837
:104B80009C1200F0CFB80320704710B5D0F8C802CF
:104B9000FCF7C7FFBDE81040FFF761BF10B5D0F8C4
:104BA000C802FCF799FFBDE81040FFF758BF2DE998
:104BB000F041174604464FF0000521B194F89C02DD
:104BC000032842D04CE0D4F8941204F114000229D6
:104BD00035D1D0E902639E4206D9F21A3946826085
:104BE0002046FFF725FE0FE0B34214D140689842FB
:104BF00011D3D4F8981288420DD2002220461146D3
:104C0000FFF716FEC4F8985200231A4619462046AC
:104C100000F0FFF813E094F89C02032808D1D4F8C0
:104C2000B802C16821B1C4F8D452C168204688478F
:104C30008021204600F078F92046FFF71BFE94F80B
:104C4000A00268B184F8A0520AE0D4F8B802426920
:104C500032B1C4F8D452426920469047002800D1AE
:104C60000020BDE8F08170B5134604464FF0000205
:104C700021B194F89C02032830D03AE0D4F8941281
:104C800004F5AA70032934D1D0E902518D420AD922
:104C90006A1A82600846824200D3024619462046BC
:104CA000FFF7BEFD25E094F8AA0210F01F0003D024
:104CB000012802D0022800D0002294F89C02032888
:104CC00008D1D4F8B802016921B1C4F8D42201692D
:104CD000204688472046FFF7E5FD0AE0D4F8B802F1
:104CE000836933B1C4F8D4228269204690470028F2
:104CF00000D1002070BD0020704710B5D0F8B81268
:104D0000012280F89C22002429B103794A68D9B293
:104D1000904700B10324204610BDD0F8C802FCF72C
:104D20002DBF000070B50178012929D11549092549
:104D3000154C02230022C1F8E004C0F8C81208464E
:104D40000C600D71CB718A714B728A72CA720A73D0
:104D50008A73CA730A74FDF789FA08B1FBF73FFD3D
:104D600008484FF40071FCF766FE064880220021D7
:104D7000FCF765FE034801214FF4BA72FCF75FFEB1
:104D8000002070BD5C25002400000440D0F8C8223B
:104D900001F07F000B0600EBC00002EB800001D5A4
:104DA000807D704790F85602704710B5D0F8D42235
:104DB00000EB8202D2F8B82222B190F89C32032B89
:104DC00002D004E0032010BD126A02B19047002017
:104DD00010BD10B5D0F8D42200EB8202D2F8B82270
:104DE00022B190F89C32032B02D004E0032010BDC6
:104DF000526A02B19047002010BD10B51C46D0F891
:104E0000C80213462246FCF7C2FEBDE81040FFF779
:104E100026BE10B5D0F8C802FCF7E8FEBDE8104089
:104E2000FFF71DBE2DE9F041044601250020D4F80E
:104E3000B812064684F89C52C4F894026060C4F824
:104E4000A40284F8A00231B14A6822B100212046B0
:104E5000904700B103262046002240231146FFF769
:104E6000CCFF4027A4F8645100223B468021204615
:104E7000C4F86071FFF7C1FFA58430462762BDE822
:104E8000F08190F89C12042903D190F89D1280F8CB
:104E90009C120020704710B590F89C12032905D190
:104EA000D0F8B81211B1C96901B18847002010BD0E
:104EB00001740020704710B5D0F8C802FDF78CFAD5
:104EC000BDE81040FFF7CBBD70B5044600F2AA2044
:104ED000054600F051F894F8AA020123B4F8B01284
:104EE00010F01F02C4F89432C4F898120AD0012AB4
:104EF0000ED0022A12D000F080012046BDE870409A
:104F000000F012B829462046BDE8704000F0D0B845
:104F100029462046BDE8704000F013BA29462046D5
:104F2000BDE8704000F05BB910B5D0F8C802FCF7DE
:104F300077FEBDE81040FFF792BD10B5D0F8C8026B
:104F4000FDF764FABDE81040FFF789BD90F89C12A8
:104F5000042903D090F89C1280F89D12042180F857
:104F60009C120020704710B5D0F8C802FCF791FEE3
:104F7000BDE81040FFF773BD70B5054608788C1C7E
:104F80002870487868702046FFF764F8A41C688091
:104F90002046FFF75FF8A880A01CFFF75BF8E880C9
:104FA00070BD38B504460020ADF80000A1B1C4F8CA
:104FB000B812D4F8D40204EB8000D0F8B802C16A69
:104FC00019B168468847C4F8D002D4F8D802401C0A
:104FD000C4F8D802002038BD032038BDD0F8B8325C
:104FE00002460020002B02D01B681046184770476D
:104FF0002DE9F0412C4E0446887800258846C1B240
:105000000129317006D941462046FFF719FC0320DB
:10501000BDE8F08194F89C02022702280CD00328F6
:105020001DD041462046FFF70BFC31782046FFF7A4
:10503000E9FB03252846EBE789B320466160FFF7CB
:10504000CDFF050004D041462046FFF7F9FB1DE0E7
:105050002046FFF727FC032084F89C02EAE7C1B151
:10506000606888421BD0C1B22046FFF7CBFB317885
:1050700020466160FFF7B2FF050010D04146204690
:10508000FFF7DEFB21792046FFF7BCFB84F89C721A
:10509000D0E7616084F89C722046FFF7B3FB20469E
:1050A000FFF700FCC6E70000FC000024FFF745BF47
:1050B0002DE9F0410A784FF0000512F060020CD0A3
:1050C000202A01D0402A7DD1D0F8D42200EB8202E0
:1050D000D2F8B8229268904731E04B78002201263E
:1050E0000A2B6FD2DFE803F041666E586E08056E3A
:1050F0002D29FFF7E2FB67E004468888D8B9C88805
:10510000C8B94888802816D294F89C2200F07F07FE
:10511000032A10D03946204684F89E72FFF7CBFE52
:105120002046FFF7BFFB1FB1022084F89C024BE032
:1051300084F89C6248E0204644E0FFF759FF0546AA
:1051400042E0CB88012B3DD190F89C32012B04D05A
:10515000022B02D0032B35D104E000F1080182605C
:10516000012216E00122011D13E090F89C22012A81
:1051700003D0022A01D0032A24D1CA88022A21D1CD
:10518000D0F8A412C66009B10321C160022200F167
:105190000C01FFF77AFB17E04A88012A02D0022AA5
:1051A00003D00FE0C0F8A46216E08988090A80F8ED
:1051B000A01211E090F89C32012B08D0022B06D0EF
:1051C000032B04D0FFF73CFB2846BDE8F08149885B
:1051D0000129F9D1C0F8A422FFF764FBF4E72DE917
:1051E000F0410A780E460979054612F060004FF04A
:1051F0000008CCB20BD0202801D040286AD121462B
:105200002846FFF709FBFF2800D0D8B396E0707856
:10521000C8B3012824D003285CD195F89C02022849
:1052200002D0032856D10CE0002C53D0802C51D052
:1052300021462846FFF778FE80212846FFF774FEB6
:105240007CE0708840B93CB1802C05D0F08818B95A
:1052500021462846FFF768FE2846FFF723FB6DE04E
:1052600095F89C020228DFD0032863D1708880BBA8
:10527000600603D021462846FFF787FC2846FFF743
:1052800011FBBCE700E00AE0C5F8D402D5F8B8028B
:105290008268F2B131462846904780464EE095F844
:1052A0009C020027022802D0032843D113E00CB14E
:1052B000802C3FD1200604F07F0000EB800005EB3E
:1052C000800101D5143101E001F5AA7102220F60BD
:1052D0002CE033E02EE0200604F00F0000EB80000D
:1052E00005EB800009D5808C20B304F07F0000EB33
:1052F000800005EB800614360AE0B0F86401C8B1FE
:1053000004F07F0000EB800005EB800606F5AA762E
:105310004CB1802C07D021462846FFF737FD10B14D
:105320000120306000E03760022231462846FFF756
:10533000ACFA03E031462846FFF782FA4046BDE862
:10534000F08170B5054608780E464FF0000410F065
:10535000600003D0202801D0402827D195F89C0276
:10536000012803D0022801D003281FD1B088C1B280
:1053700001291AD8C1B22846FFF750FAFF280CD0ED
:1053800058B9D5F8B8128A683AB1C5F8D402284697
:105390008A6831469047044600E00324F0882043A1
:1053A00007D12846FFF77EFA03E031462846FFF78B
:1053B00047FA204670BD7047004870473C230024E0
:1053C00070B54D7801230A78012D1C4C02F00F05B1
:1053D00003FA05F3D0F81C5817D000EB421245EA47
:1053E0000343C0F81C38D2F8000B00040BD40B891F
:1053F0000979D2F8000BC3F30A03184344EA814148
:105400000843C2F8000B002070BD9EB23543C0F8BF
:105410001C5800EB4213D3F800090004F3D40D89A3
:105420000979D3F80009C5F30A058904284341EA3C
:10543000825108432043C3F80009E4E700800010CC
:10544000D0F800196FF30A01C0F80019D0F8041859
:1054500041F48071C0F804180020704770B50D4603
:105460000446C2F307211E460498012922D0E068B1
:1054700040F04000E060204600F03CF8C6F3072111
:105480000029A16B2ED021F48031A163C5F307411F
:1054900001290ED1E16D154A89B2E165E16D114333
:1054A000E165A16841F00601A160A16841F0200119
:1054B000A16070BDA26BC3B20D49012B22F48030F4
:1054C000A063E06800EA0100E060E06820F44010BA
:1054D000E06003D1E06840F48010E060204600F016
:1054E00009F8D3E741F48031CFE700000000EE0374
:1054F000BFFFBDFF08B500214FF070620091009B17
:105500005B1C009393420CD80369002BF7DA0091DF
:10551000016941F0010101610099491C009191422A
:1055200001D9032008BD0169C907F5D1002008BDD4
:1055300070B50A7801234C78012C00EB42122CD074
:10554000D2F8004B002C0BDAD2F8004B44F0006488
:10555000C2F8004BD2F8004B44F08044C2F8004B34
:105560000C78D0F83C5804F00F0403FA04F425EA50
:105570000444C0F83C480978D0F81C4801F00F01F9
:105580008B401C4924EA0343C0F81C38D2F8000BB6
:105590000840C2F8000B002070BDD2F80049002C72
:1055A0000BDAD2F8004944F00064C2F80049D2F89E
:1055B000004944F08044C2F800490D78D0F83C48D6
:1055C00005F00F050C4E03FA05F5ADB2AC43C0F87B
:1055D0003C48D0F81C48097801F00F018B4099B283
:1055E0008C43C0F81C48D2F800093040C2F80009CA
:1055F000D1E700000078F3EF007833ECD0F8001E1C
:1056000021F00301C0F8001ED0F8041821F00201B7
:10561000C0F8041800207047D0F8001E21F00301E4
:10562000C0F8001ED0F8041841F00201C0F80418B8
:10563000002070472DE9F04F00250F4690460446A4
:105640002E46284604EB8001C1F80451401C0F2867
:10565000F8D3C3F307405FEA0009204610D0806BFF
:1056600040F40011C4F83810C8F30720C4F8005EF5
:105670000128204617D0D0F8001841F0030119E0A6
:10568000D0F8040840F00201C4F80418A06B20F41C
:105690000011A163206840F040012160206840F0C3
:1056A00080012160E0E7D4F80018380E204601D0D0
:1056B00041F00101C0F80018102100F08AFA00B191
:1056C0000126204600F069FA00B101264FF67F3A24
:1056D0004FF0006CC4F810584FF0904BC4F81458B9
:1056E000C4F81C580020FAB214E000BF04EB4011CB
:1056F000D1F80039002B06DA10B1C1F800B904E086
:10570000C4F800C901E0C1F80059C1F81059C1F846
:1057100008A9401C8242E9D8002013E004EB4011A4
:10572000D1F8003B002B06DA10B1C1F800BB04E051
:10573000C4F800CB01E0C1F8005BC1F8105BC1F810
:1057400008AB401C8242E9D8D4F81008C7F30742DE
:10575000002A6FF0804120F48072C4F81028A561FF
:10576000616103D1A06940F01000A061A069C8F395
:105770000741094A1043A06119B1A06940F008002F
:10578000A061B9F1010F03D1A06904490843A061E8
:105790003046BDE8F08F000000383C800400004037
:1057A000816821F0010181600020704710B5144C20
:1057B000036CA34203D9D0F8003B002B1EDB00236F
:1057C000C0F8103B0129D0F8101B41F40021C0F8AB
:1057D000101BD0F8101B41F01801C0F8101BD0F8B6
:1057E000101B41F0C041C0F8101B07D1C0F8142BAA
:1057F000D0F8001B41F08021C0F8001B002010BD34
:105800000A30544F0B784A78012A00EB43100BD032
:10581000D0F8002B22F40012C0F8002B09790329DC
:1058200014D0022912D017E0D0F8002922F4001277
:10583000C0F800290979032901D002290CD1D0F838
:10584000001941F08051C0F8001905E0D0F8001BA4
:1058500041F08051C0F8001B002070470A784B7857
:10586000D1B2012B00EB421012D0D0F8002B002A4D
:1058700006DB29B1D0F8001B21F08041C0F8001BE5
:10588000D0F8001B41F40011C0F8001B0020704745
:10589000D0F80029002A06DB29B1D0F8001921F040
:1058A0008041C0F80019D0F8001941F40011C0F887
:1058B0000019EBE7F8B50B786FF060464F788B4D29
:1058C000DCB2012F00EB43132DD0D3F8107B002C5A
:1058D0004FEAD7444FEAC444C3F8104BD3F8104BF7
:1058E00004EA0504C3F8104B7ED00D69002D7CD06E
:1058F0008C6825446D1EB5FBF4F5ADB26C430C62AB
:1059000006EAC545D3F8104B2C43C3F8104BD3F827
:10591000104B0D6AC5F3120554EA0504C3F8104B89
:10592000012A6ED0C9E00F6937B3D3F810796FF34D
:105930001207C3F81079D3F8107907EA0507C3F8FE
:1059400010794CB30F698D68D3F810C92F447F1EAE
:10595000B7FBF5F506EAC54545EA0C05C3F810594D
:105960000E69D3F81059C6F312063543C3F810591F
:105970000D79012D1CD027E0D3F810692E40C3F813
:105980001069D3F8105945F40025C3F81059D3F81D
:1059900010596FF3120515E00E698D68AE4200D9FB
:1059A0000D61D0F8106946F40026C0F81069D7E7F9
:1059B000D3F8105925F0C045C3F81059D3F8105941
:1059C00045F00055C3F81059012A1BD000EB4413D1
:1059D000D3F8004944F00444C3F800490C79012C81
:1059E00031D00A6972B301E042E055E00B78D0F89B
:1059F0003418012203F00F039A401143C0F8341801
:105A000071E056E0CA691AB100EB4413C3F81429D7
:105A1000097901290ED1D0F80818C90500EB441105
:105A2000D1F8002902D442F0005201E042F0805245
:105A3000C1F8002900EB4410D0F8001941F00441EE
:105A4000C0F800194FE0D0F80848E405D3F8004941
:105A500002D444F0005401E044F08054C3F80049FB
:105A600000920B8A0A78C9689BB200F0E1F93AE02B
:105A70000C690CB18C680C618C680C62C4F3120563
:105A8000D0F8104B2C43C0F8104BD0F8104B44F416
:105A90000024C0F8104B43E78D68D3F8104BC5F3D2
:105AA00012052C43C3F8104BD3F8104B44F40024D8
:105AB00034E7CA680AB1C3F8142B097901290CD15B
:105AC000D0F80808C005D3F8000B02D440F000500D
:105AD00001E040F08050C3F8000BD3F8000B40F019
