:020000040800F2
:10000000804800242D040008BF2E0008E72C0008BB
:10001000BD2E0008E7050008C133000800000000FD
:100020000000000000000000000000006D03000858
:10003000E905000800000000C90300084D31000870
:100040004704000847040008470400084704000864
:100050004704000847040008470400084704000854
:100060004704000847040008470400084704000844
:100070004704000847040008470400084704000834
:10008000470400084704000847040008F105000879
:1000900009060008FD0500081506000847040008C9
:1000A0004704000847040008470400084704000804
:1000B00047040008470400084704000847040008F4
:1000C00047040008470400084704000847040008E4
:1000D00047040008470400084704000847040008D4
:1000E0004704000847040008000000004704000817
:1000F00047040008470400084704000847040008B4
:1001000047040008470400084704000847040008A3
:100110004704000847040008470400084704000893
:100120004704000847040008470400084704000883
:100130004704000847040008470400084704000873
:1001400000000000000000000000000000000000AF
:100150004704000847040008470400084704000853
:100160004704000847040008470400084704000843
:100170004704000847040008470400080000000086
:100180004704000847040008470400084704000823
:100190004704000847040008470400084704000813
:1001A0004704000847040008470400080000000056
:1001B00047040008470400084704000847040008F3
:1001C0004704000847040008000000000000000089
:1001D00000000000000000004704000800000000CC
:1001E000000000000000000000000000000000000F
:1001F0000000000000000000470400084704000859
:1002000047040008470400080000000047040008F5
:100210004704000847040008470400084704000892
:100220004704000800000000470400080000000028
:1002300047040008470400080000000047040008C5
:100240004704000847040008470400084704000862
:100250004704000847040008470400084704000852
:100260004704000847040008470400084704000842
:100270004704000847040008470400080000000085
:100280004704000847040008470400084704000822
:1002900000000000470400084704000800000000B8
:1002A0000000000047040008470400084704000855
:1002B0004704000847040008470400082106000816
:1002C0002D060008D13200084704000800F002F8AB
:1002D00000F03CF80AA090E8000C82448344AAF1A4
:1002E0000107DA4501D100F031F8AFF2090EBAE8A2
:1002F0000F0013F0010F18BFFB1A43F0010318475A
:100300008C3E0000AC3E0000103A24BF78C878C193
:10031000FAD8520724BF30C830C144BF04680C600B
:10032000704700000023002400250026103A28BF53
:1003300078C1FBD8520728BF30C148BF0B60704757
:100340001FB503F0D3FE1FBD10B510BD00F014F9AA
:100350001146FFF7F5FF03F007F900F032F903B497
:10036000FFF7F2FF03BC00F037F900002C4B1968CF
:100370000868B0E8F04F80F30988BFF36F8F4FF043
:10038000000080F3118870470000000008480068F2
:10039000006880F308884FF0000080F3148862B68C
:1003A00061B6BFF34F8FBFF36F8F00DF00BF00BF99
:1003B00008ED00E0DFF80C00016841F47001016015
:1003C000704700BF88ED00E0EFF30980BFF36F8F47
:1003D000134B1A681EF0100F08BF20ED108A20E999
:1003E000F04F106009B44FF0500080F31188BFF354
:1003F0004F8FBFF36F8F03F0B1FC4FF0000080F31D
:10040000118809BC19680868B0E8F04F1EF0100F99
:1004100008BFB0EC108A80F30988BFF36F8F704774
:1004200044000024EFF3058070470000094880472E
:1004300009480047FEE7FEE7FEE7FEE7FEE7FEE7C6
:10044000FEE7FEE7FEE7FEE704480549054A064BDE
:100450007047000011320008CD02000880420024DD
:1004600080480024804400248044002410B5203AB1
:10047000C0F00B80B1E81850203AA0E81850B1E85D
:100480001850A0E81850BFF4F5AF5FEA027C24BF13
:10049000B1E81850A0E8185044BF18C918C0BDE80A
:1004A00010405FEA827C24BF51F8043B40F8043BD3
:1004B00008BF7047D20728BF31F8023B48BF11F888
:1004C000012B28BF20F8023B48BF00F8012B7047E2
:1004D00002F0FF0343EA032242EA024200F02CB892
:1004E0004FF0000200B5134694469646203922BFCD
:1004F000A0E80C50A0E80C50B1F12001BFF4F7AF18
:10050000090728BFA0E80C5048BF0CC05DF804EBF9
:10051000890028BF40F8042B08BF704748BF20F867
:10052000022B11F0804F18BF00F8012B7047704765
:10053000704770474FF000020429C0F0128010F09D
:10054000030C3FF4CFAFCCF1040CBCF1020F18BF89
:1005500000F8012BA8BF20F8022BA1EB0C01FFF73C
:10056000C1BF5FEAC17C24BF00F8012B00F8012B5A
:1005700048BF00F8012B7047754600F029F8AE46D9
:1005800005006946534620F00700854618B020B59F
:10059000FFF75AFFBDE820404FF000064FF000077C
:1005A0004FF000084FF0000B21F00701AC46ACE81B
:1005B000C009ACE8C009ACE8C009ACE8C0098D4688
:1005C00070470446AFF300802046FFF7C8FE0000E6
:1005D000004870471C42002401491820ABBEFEE7CA
:1005E000260002007047FEE7704772B6FEE7000083
:1005F000014800F003BB000000030024014800F0A4
:10060000FDBA000000030024014800F0F7BA000022
:10061000A0030024014800F0F1BA0000A003002468
:10062000014800F0EBBA000040040024014800F04B
:10063000E5BA000040040024F0B503684FF6FC71F1
:100640006D4C426BD3F884508D4345EA8205C3F864
:100650008450036853F8845F068F25F47F0545EACC
:1006600006451D60836B654D9F180268D2F888307F
:100670008B4343EA8703C2F88830026852F8883F08
:10068000868F23F4FE0343EA06431360066856F898
:10069000A03FC26B8B4307EB420243EA8203336005
:1006A000076857F8A03FB0F8406023F4FE0343EA20
:1006B00006433B60D0E9103603FB06220368D3F8FB
:1006C000B0608E4346EA8206C3F8B0600368B0F8B3
:1006D0004860D3F8B07027F4FE0747EA0646C3F82F
:1006E000B060D0E91267036806FB0722D3F8AC605C
:1006F0008E4346EA8206C3F8AC60D0E9146703680B
:1007000006FB0722D3F8F0608E4346EA8206C3F860
:10071000F0600368B0F85860D3F8F07027F47C17E5
:1007200047EA0646C3F8F0600368876D53F8C06F68
:1007300002EB47028E4346EA820119600168B0F875
:100740005C20D1F8C03023F47C1343EA0242C1F8A4
:10075000C020016890F86020D1F8C03023F07C53AD
:1007600043EA0262C1F8C020416B04EB8101C1661B
:10077000826B01EB82020267C36B02EBC30242672A
:10078000D0E91034634302EB83028267D0E912346C
:10079000634302EB8302C267D0E91434634302EB84
:1007A0008302C0F88020836D02EBC303C0F884305D
:1007B000C46D826E544303EB8403C0F88830046E2A
:1007C000544303EB8402C0F89020AA420AD9D0F81F
:1007D0009C20032142F02002C0F89C2080F8981051
:1007E0000120F0BD002200E004C1D0F890308B421F
:1007F000FAD80020F0BD000000AC0040FCD300405F
:10080000F0B58E680C69D1E9005744EA0604DFB1FF
:1008100045F080452C43866ED1E906C54F695E439D
:1008200091F8203045EA0C05B1F80CC0D0F884E00E
:10083000002047EA03630C4F1D430EEB860345EA95
:100840000C45E3E802450AE044EA8544E3E714186E
:10085000155C001DD4F8014045EA042410C3CC689F
:100860003C5D8442F3D8F0BD1441000810B590F807
:100870009830012B09D0022B07D0D0F89C1041F002
:100880000201C0F89C10012010BD03689C6D0C4251
:1008900003D1DC6D44F0010404E09C6D31EA0404F2
:1008A0001FD00324DC658B0505D50368D3F8E04031
:1008B0001443C3F8E0404B0505D50368D3F8E44082
:1008C0001443C3F8E4400068084A01EA0203446D97
:1008D000074A1C434465106840EA9170106000208C
:1008E00010BDDC6D44F00204DCE70000FFFFCF3FE9
:1008F00014A8004070B5044690F89800022804D06F
:10090000D4F89C0040F008000DE02068D0F8C0301A
:1009100013F07C5F0BD0D0F8C4309B020CD5D4F818
:100920009C0040F40070C4F89C00012070BDD4F815
:100930009C0040F02000F6E7D0F8C400C0F3044566
:1009400020462B46FFF75CFF21680120A840C1F834
:10095000D000C4F89400002070BD704790F8983023
:10096000012B07D0D0F89C1041F00401C0F89C1076
:100970000120704761B10068012913D0D0F8B01090
:1009800021F0FE4141EA0261C0F8B010002070473A
:100990000068D0F8F01021F07C5141EA0261C0F803
:1009A000F010F3E7D0F8A01021F0FE4141EA026117
:1009B000C0F8A010EAE770B590F89820012A09D095
:1009C000022A07D0D0F89C1041F00201C0F89C1018
:1009D000012070BD0B68CA6883B10B69072A43EA1E
:1009E000427325D00C7A4A6942EA84724968006FE2
:1009F00000EBC100C0E90032002070BD072A0DD015
:100A00000C7AD6060D8A4B6943EA847246EA05439E
:100A1000C06E49681A4340F82120EDE70B8A4FF079
:100A20006055D1E9062442EA034245EA0423EFE790
:100A30008A69DBE730B590F89850039C012D07D008
:100A4000D0F89C1041F00401C0F89C10012030BD8A
:100A50000D01016845EA820040EA43002043C1F8E5
:100A60008000002030BD704770470000F0B590F85E
:100A700098500024022D04D0D0F89C1041F00801B9
:100A800029E0402905D0412929D0056D8D4219D989
:100A900042E00568D5F8A06016F4FE0F12D0D5F834
:100AA000A460760613D0D5F8A460F60105D5D5F874
:100AB000A06016F0004F00D50124D5F8A470466F51
:100AC000456C24E0D0F89C1041F0200103E0D0F800
:100AD0009C1041F48071C0F89C100120F0BD0568A5
:100AE000D5F8B06016F4FE0FECD0D5F8B4607606F9
:100AF000EDD0D5F8B460F60105D5D5F8B06016F0A4
:100B0000004F00D50124D5F8B470866FC56CC7F3CB
:100B100005273C44654302E0456DC66F4D4306EB37
:100B200085052E6816F0804656602E6836D026F071
:100B300060461660D5F800C000262E4F0CF0005C11
:100B4000C2F808C0D5F800C00CF0004CC2F810C0C4
:100B5000B5F804C01FFA8CFCC2F81CC0D5F804C05C
:100B6000CCF3034CC2F80CC0D5F804C00CF4801CC4
:100B7000C2F814C0D5F804C00CF4001CC2F818C0A8
:100B8000D5F804C0CCF3066CC2F820C0D5F804C078
:100B900008354FEADC7CC2F824C008E0C6F38A4678
:100BA000C7E700BF15F806C003F806C0761CD2F8E8
:100BB0000CC017F80CC0B445F4D840290AD041291C
:100BC0000CD020294FF001020CD200688A40C0F8F6
:100BD00098200DE00068C0F8A84009E00068C0F85F
:100BE000B84005E0006801F01F018A40C0F89C2071
:100BF0000020F0BD14410008704700002DE9FF5FA0
:100C0000DFF80CB304460BF10401DBF800002568A3
:100C10000F68AA468007D5F85090696DD5F85080C6
:100C20006E6D2A6DD5F854C02B6D00EA8770009068
:100C300009F470496F6D286D01EA09010191DAF834
:100C40005410DAF85490DAF8505008F00F0806EA19
:100C50000806029602F0F00203F071536FEA0906EB
:100C60001F4000F060700CEA020CCDF80CC0F205D9
:100C700001EA00090CD4E843C00509D400214FF46F
:100C80008073CAF85030CBF800102046FFF7B4FF4D
:100C9000700512D4E84340050FD4206800234FF4B8
:100CA0008068D0F8DC20D0F8E410C0F85080CBF891
:100CB00000301140204600F075FBDFF858A2009884
:100CC00050B12268830F00EA0A001065CBF80030AB
:100CD00020460099FFF741FE019850B12268830F2A
:100CE00000EA0A001065CBF800302046019900F0B8
:100CF0005BFB029850B12268830F00EA0A0010657E
:100D0000CBF800302046029900F012FB039850B156
:100D10002268830F00EA0A001065CBF800302046F5
:100D2000039900F01FFB30050CD4E843000509D4FB
:100D3000236800204FF400621A65CBF800002046BB
:100D400000F033FBB00512D4E84380050FD42068CF
:100D500000234FF40078D0F8D820D0F8E010C0F885
:100D60005080CBF800301140204600F01CFB3003CF
:100D70000CD4E843000309D4236800204FF4002278
:100D80001A65CBF80000204600F0D0FAF0030CD42E
:100D9000E843C00309D4236800204FF480321A6569
:100DA000CBF80000204600F0FCFA70030CD4E843B6
:100DB000400309D4226800204FF480231365CBF848
:100DC0000000204600F0ECFAB0030FD4E8438003A3
:100DD0000CD4236800204FF400321A65CBF80000D1
:100DE000D4F89C0040F08000C4F89C00B9F1000FDA
:100DF0000BD022684FEA997309EA0A001065CBF814
:100E0000003049462046FFF72FFE5FB12268BB0F36
:100E100007EA0A001065CBF80030D4F89C0038438C
:100E2000C4F89C003C492068884268D160688146CB
:100E30008068800763D0D9F82060D9F82410D9F8E9
:100E40002080D9F82400D9F820C0D9F82470D9F826
:100E50002030D9F82450D9F8202003F4FC4306F0C0
:100E60000F0AD9F824601D40D9F824B008F03008E2
:100E70000CF4C07C02F4F02211EA0A0100EA08082E
:100E800007EA0C0706EA0206D9F820A004D0C9F840
:100E90002010204600F081FA5FEA080005D0616862
:100EA00008624146204600F07AFA6FEA0B004006DD
:100EB0000ED46FEA0A0040060AD460684021C36B72
:100EC000C26B01622046190C02F03F0200F066FA84
:100ED0002FB1606807623946204600F05DFA35B1EF
:100EE00060680562D4F89C002843C4F89C0036B1C1
:100EF00060680662D4F89C003043C4F89C00D4F8C3
:100F00009C00002802D02046FFF7ADFDBDE8FF9F02
:100F100010A80040FFFFCF3F00A000402DE9F041A6
:100F200094B08D494C2204466846FFF79FFA64B19D
:100F30008A4D2068A84202D100F58070606094F864
:100F400098004FF0000820B108E0012014B0BDE87F
:100F5000F081204684F8998000F002F920688169C8
:100F600021F01001816100F02FFB0327064604E009
:100F700000F02AFB801B0A2811D82068806900072E
:100F8000F6D42068816941F00101816100F01CFB09
:100F900006460DE000F018FB801B0A2808D9D4F89B
:100FA0009C0040F00100C4F89C0084F89870CCE7E5
:100FB00020688069C007EDD02068816941F0020196
:100FC0008161207C01282068816937D041F040018F
:100FD0008161607C01282068816932D021F48041E0
:100FE0008161A07C0128206881692DD041F4805165
:100FF00081612068A268816921F440711143816197
:101000002068816921F0A40181612068016921F0D3
:1010100010010161E068012819D010B302281BD02B
:101020002068816941F0800181612068016941F097
:1010300010010161E06803280ED012E021F04001A8
:10104000C6E741F48041CBE721F48051D0E7206826
:10105000816941F0040103E02068816941F02001C9
:101060008161207E6FF0FF02D4E90773A68A110226
:10107000400602EB0727A0F10070384327685B1E8B
:10108000184301EB06463043F861A068B0F5407F95
:1010900011D104F12800A68C6FF00F0C89C801EB68
:1010A0000641401E02EB0322104322680CEB07139B
:1010B00018430843D060206E30B12068626ED0F8CB
:1010C000C0101143C0F8C010D4E917126846D142CD
:1010D00009D02168A36E51F8C82F50F8233022F0B0
:1010E00007021A430A60216C49B12168626C51F809
:1010F000BC3F50F8226023F0070232430A60A16C23
:1011000051B12168E36C51F8BC2F50F8233022F024
:10111000700242EA03120A60216D51B12168626DCA
:1011200051F8BC3F50F8220023F4E06242EA00206C
:1011300008602068A84204D16068816821F003013A
:101140008160C4F894800121C4F89C8084F89810D0
:101150002046FFF771FAF9E62441000800A000409C
:101160002DE9F047B4B0814614212EA8FFF7B8F955
:10117000B8216846FFF7B4F9664C0026D9F800009C
:101180004FF08051644A0C3C614F4FF00208614DB2
:101190009042DFF888A14FF0090938D100201B9157
:1011A0004A13CDE90020684600F008FB08B1FFF7BC
:1011B0001CFA3868401C3860012807D1286840F4C0
:1011C00080702860286800F480703390206840F0B8
:1011D00008002060206803222E922EA900F008004B
:1011E000CDE92F863196CDE93290504600F0DEF8F9
:1011F00000220521132000F085FA132000F074FA74
:1012000000220521152000F07DFA15203BE0444A1C
:1012100090423DD100201B914FF40042CDE90020C7
:10122000684600F0CBFA08B1FFF7DFF93868401CD8
:101230003860012807D1286840F480702860286849
:1012400000F480703390206840F002002060206835
:1012500060222E922EA900F00200CDE92F86319651
:10126000CDE932902F4800F0A1F80022052114208A
:1012700000F048FA142000F037FA00220521162069
:1012800000F040FA162000F02FFA34B0BDE8F087E5
:10129000254A9042F9D100201B914FF40042CDE93C
:1012A0000020684600F08AFA08B1FFF79EF9386816
:1012B000401C3860012807D1286840F480702860FD
:1012C000286800F480703390206840F008002060A7
:1012D00020684FF440512E91052200F00800CDE91E
:1012E0002F862EA93196CDE93220504600F05EF8C7
:1012F000002205219F2000F005FA9F2000F0F4F95C
:1013000000220521A02000F0FDF9A020BBE700008D
:101310000C000024EC44025800A00040000C0258CD
:1013200000A400400004025800D4004070470000B0
:1013300010B504460848844201D102F097F80748E6
:10134000844201D102F09CF80548844203D1BDE8F3
:10135000104002F09FB810BD00030024A003002439
:1013600040040024704790F89810012907D0D0F865
:101370009C1041F00401C0F89C100120704702212C
:1013800080F89810002201688B6923F001038B61BB
:10139000C0F89C20104670477047704770477047F0
:1013A0007047704770477047704770472DE9F84F96
:1013B00003247A4D00234FF001094FF0B04B4FF05A
:1013C0000F0AE4E009FA03F6324078D00F7907F00B
:1013D0000307012F01D0022F1AD187684FEA430E6D
:1013E000D1F80CC004FA0EF827EA08070CFA0EFC34
:1013F0004CEA070CC0F808C0476891F804C0B7432E
:10140000CCF3001C0CFA03FC4CEA070CC0F804C037
:101410000E79F643B6070BD0C6684FEA43088F68CB
:1014200004FA08FC26EA0C0607FA08F73743C760F7
:101430000E7906F00306022E12D1DE080F694FEA7C
:10144000437C00EB8606B646366A4FEADC6C0AFA45
:101450000CF807FA0CF726EA08063743CEF8207096
:101460000F7906684FEA430807F0030704FA08FCFF
:1014700007FA08F726EA0C06374307604E6816F4A9
:10148000403F1CD0464E376847F002073760366849
:101490009F0706F00206009623F0030606F1B04609
:1014A000B6463F0FD6F80864DFF8F8800AFA07FC62
:1014B000404526EA0C0603D14FF0000C3AE065E007
:1014C000DFF8E4C0604502D14FF0010C32E0DFF8F4
:1014D000DCC0604502D14FF0020C2BE0DFF8D0C039
:1014E000604502D14FF0030C24E0DFF8C8C060452E
:1014F00002D14FF0040C1DE0DFF8BCC0604502D102
:101500004FF0050C16E0DFF8B4C0604502D14FF093
:10151000060C0FE0DFF8A8C0604502D14FF0070CC1
:1015200008E0DFF8A0C0604502D14FF0090C01E0EF
:101530004FF00A0C0CFA07FC4CEA060CCEF808C473
:101540004F68DBF80060FF0226EA020600D516436A
:101550005F46CBF80060D1F804C0DBF804605FEAB6
:101560008C2C26EA020600D516437E606E684F6812
:1015700026EA0206BF0300D516436E602E684F6848
:1015800026EA0206FF0300D516432E605B1C0A689C
:1015900032FA03F67FF416AFBDE8F88F80000058EA
:1015A000F44402580000025800040258000802588F
:1015B000000C02580010025800140258001802587B
:1015C000001C02580024025801488068704700003F
:1015D000100000240248816802781144816070473D
:1015E00010000024032010B500F0ACF800F014FF48
:1015F0000F4A104914681368C4F3032203F00F0361
:101600008A5CC95C02F01F0201F01F01D0400A4A47
:1016100020FA01F11160094908600F2000F010F86C
:1016200008B1012010BD00F04DF8002010BD0000F1
:101630001844025870410008200000241C000024B7
:1016400010B5102804468AB02AD200220146A120F3
:1016500000F058F8A12000F047F81548046015483C
:10166000016841F080710160006808A900F0807095
:101670000990684600F06EFE00F0BCFE0E49400086
:1016800000220E4CB0FBF1F10D4840F2E73304604C
:10169000C0E90332491EC0E9011201F0EFF910B1AF
:1016A00001200AB010BD064801F01AFAF9E700005F
:1016B00014000024EC44025840420F0000E00040B7
:1016C000E0040024074882B0016841F00201016093
:1016D000006800220F2100F002000090901E02B06E
:1016E00000F010B8F4440258002809DB410900F06A
:1016F0001F028900012001F1E0219040C1F80001A2
:10170000704700000E4BF0B41B680D46C3F3022374
:10171000C3F10706042E00D90426191D072901D29A
:10172000002300E0DB1E012404FA06F19C40491E60
:101730002940641E994014402143F0BC01F041BE91
:101740000CED00E0064900F0070210B54FF6FF046B
:101750000868044B204040EA02201843086010BD8E
:101760000CED00E00000FA05134970B50A68D24399
:10177000520705D5096801F00701814213D118E02D
:101780000A6822F0070202430A60FFF71DFF0A4DB4
:101790004FF47A760446083D07E000BFFFF714FFD8
:1017A000001BB04201D9012070BD2868C0438004ED
:1017B000F4D4002070BD00000C4802582DE9FE4F03
:1017C0000546DFF800A450F8081B0024FD4FC9436C
:1017D000019005F1280026460AF1240A009008012C
:1017E0001DD4686E50B1B0F5801F0CD0B0F5001F4D
:1017F0000ED0B0F5401F1ED001240FE0386840F431
:101800000030386017E00198022101F059FB03E035
:101810000098022101F0E4FB04000CD02646288841
:10182000C043C00523D4A86D05281ED2DFE800F010
:101830000C11161B1B006A6EDAF8001021F440111F
:101840001143CAF80010EAE7386840F40030386005
:1018500009E00198002101F033FB03E0009800212A
:1018600001F0BEFB0446C4B100E0012426462888EE
:10187000DFF85083C04308F12C0840052FD4D5F879
:10188000A400B0F5C00F28D010DCB8B1B0F5001F2F
:1018900019D0B0F5800F0FD11AE0AA6DDAF8001058
:1018A00021F007011143CAF80010E0E7B0F5000F7E
:1018B00013D0B0F5200F10D001240FE0386840F4A9
:1018C0000030386009E00198002101F0F9FA03E0E6
:1018D0000098002101F084FB044694B12646288834
:1018E000C043000530D4D5F8A800B0F1407F29D01E
:1018F00011DCC0B1B0F1807F1AD0B0F1007F10D1FF
:101900001BE0D5F8A420D8F8001021F460011143A1
:10191000C8F80010E3E7B0F1806F13D0B0F1A06F0A
:1019200010D001240FE0386840F40030386009E03E
:101930000198002101F0C4FA03E00098002101F0B1
:101940004FFB044694B126462868DFF878B2C043BE
:101950000BF1200B80011FD4E86CD8B110280FD0F8
:10196000202812D0302815D0012414E0D5F8A82062
:10197000D8F8001021F0E0611143C8F80010E3E747
:10198000386840F40030386004E00198022101F02A
:1019900097FA044674B126462888C043C0042BD465
:1019A000E86DB0F5005F20D00DDCA0B1B0F5805F30
:1019B0000FD115E0EA6CDBF8001021F03001114383
:1019C000CBF80010E8E7B0F5405F13D0B0F5804FDA
:1019D00010D001240FE0386840F40030386009E08E
:1019E0000198002101F06CFA03E00098002101F059
:1019F000F7FA04468CB126462888C043800429D4CF
:101A0000286EB0F5403F23D010DC08B3B0F5803F1E
:101A100014D0B0F5003F0FD115E0EA6DDAF80010F0
:101A200021F4E0411143CAF80010E5E7B0F5802F3A
:101A30000ED0B0F5A02F0BD001240AE001980121AF
:101A400001F03EFA03E00098012101F0C9FA0446D2
:101A500094B126462888C04340042AD4D5F8AC0067
:101A6000B0F1405F23D010DC08B3B0F1805F14D038
:101A7000B0F1005F0FD115E02A6EDAF8001021F402
:101A8000E0211143CAF80010E4E7B0F1804F0ED016
:101A9000B0F1A04F0BD001240AE00198012101F020
:101AA0000FFA03E00098012101F09AFA044674B19C
:101AB00026462888C04300041FD4E86ED8B1B0F190
:101AC000805F0ED0B0F1005F10D0012414E0D5F893
:101AD000AC20D8F8001021F0E0411143C8F8001004
:101AE000E7E7386840F40030386004E001980121ED
:101AF00001F0E6F9044674B126462868C043C001E7
:101B00001ED4A86CD0B101280ED0022811D0032811
:101B100014D0012413E0EA6EDAF8001021F04051ED
:101B20001143CAF80010E8E7386840F40030386024
:101B300004E00198022101F0C3F904466CB1264685
:101B40002868C043400255D41F48016841F48071A1
:101B50000160FFF739FD81460EE0AA6CDBF800104A
:101B600021F003011143CBF80010E9E7FFF72CFD4A
:101B7000A0EB090064283BD813480068C005F5D5E0
:101B8000BCBBDFF84090B5F8B01009F14409D9F8B2
:101B9000000001F4407100F44070884211D0D9F87F
:101BA0000010D9F8002021F4407142F48032C9F8C5
:101BB0000020D9F8002022F48032C9F80020C9F8AA
:101BC000001003E02C44025800480258D5F8B00039
:101BD000B0F5807F19D1FFF7F7FC029011E000BF4C
:101BE000FFF7F2FC0299411A41F28830814208D98C
:101BF000032426462878DFF81494C043C00721D078
:101C00003CE0D9F800008007EAD5D5F8B010C1F360
:101C100001200328FE480DD0016821F47C510160A9
:101C2000B5F8B020D9F80010C2F30B021143C9F87F
:101C30000010DFE7F74A036802EA111223F47C512F
:101C40001143ECE7A86F182816D005DCA0B10828CE
:101C500008D0102804D10AE020280DD028280BD065
:101C600001240AE00198012101F02AF903E000981B
:101C7000012101F0B5F9044664B126462878C04335
:101C800080071ED4686F062819D2DFE800F0160C12
:101C900011161616AA6FD9F8001021F03801114359
:101CA000C9F80010EAE70198012101F009F903E001
:101CB0000098012101F094F904467CB100E0012470
:101CC00026462878C04340071FD4D5F89000062840
:101CD00019D2DFE800F0160C111616166A6FD9F843
:101CE000001021F007011143C9F80010E9E701983D
:101CF000012101F0E5F803E00098012101F070F9FD
:101D00000446A4B100E0012426462878C04380069A
:101D10002BD4D5F88C00B0F1405F24D011DC10B387
:101D2000B0F1805F15D0B0F1005F10D116E0D5F8AA
:101D30009020D8F8001021F007011143C8F80010D6
:101D4000E3E7B0F1804F0ED0B0F1A04F0BD00124EB
:101D50000AE00198002101F0B3F803E000980221A5
:101D600001F03EF9044694B126462878C043400667
:101D70002BD4D5F89800B0F5406F24D011DC10B307
:101D8000B0F5806F15D0B0F5006F10D116E0D5F822
:101D90008C20D9F8001021F0E0411143C9F800105F
:101DA000E3E7B0F5805F0ED0B0F5A05F0BD0012463
:101DB0000AE00198002101F083F803E00098022175
:101DC00001F00EF9044694B126462878C043000677
:101DD0002BD4D5F89C00B0F5C04F24D011DC10B343
:101DE000B0F5005F15D0B0F5804F10D116E0D5F8F2
:101DF0009820D8F8001021F4E0511143C8F80010E1
:101E0000E3E7B0F5004F0ED0B0F5204F0BD0012422
:101E10000AE00198002101F053F803E00098022144
:101E200001F0DEF8044654B126462878C043000786
:101E30001ED4D5F88000B0F5805F0AD00FE0D5F849
:101E40009C20D8F8001021F460411143C8F800101C
:101E5000EBE70098022101F0C3F800B10126D5F8A4
:101E60008020D9F8001021F440511143C9F8001026
:101E70002878C043C00613D4D5F89400B0F5807F0D
:101E800005D10098022101F0ABF800B10126D5F888
:101E90009420D8F8001021F440711143C8F80010C4
:101EA0002868C043000316D4D5F8A00038B1B0F5B7
:101EB000803F09D0B0F5003F0BD001240AE0019823
:101EC000002100F0FDFF03E00098022101F088F8F6
:101ED00004468CB126462868C043400322D4D5F876
:101EE0008400B0F5801F11D0B0F5001F13D0B0F5FD
:101EF000401F15D0012414E0D5F8A020D8F8001018
:101F000021F440311143C8F80010E4E7386840F488
:101F10000030386004E00098012101F061F80446C7
:101F20005CB126462868C043C0031CD4286D70B13C
:101F3000B0F5803F10D0012414E0D5F88420D9F802
:101F4000001021F440111143C9F80010EAE7386885
:101F500040F40030386004E00198022100F0B0FF46
:101F60000446DCB126462868C043800005D40098AA
:101F7000022101F035F800B101262868C043800332
:101F80001BD4E86FB8B1B0F5807F10D0B0F5007FFA
:101F900011D0B0F5407F0ED001240DE02A6DDBF8A2
:101FA000001021F480311143CBF80010DBE73868D2
:101FB00040F4003038607CB326462868C043C00235
:101FC00007D42A6FDAF8001021F000411143CAF853
:101FD00000102868C043800207D4AA6EDAF8001007
:101FE00021F080711143CAF800102868C0434000F6
:101FF00009D40748016821F4004101600168D5F85F
:10200000B420114301602868C04306E054440258DC
:1020100010440258CFFFFF001DE007D46A6DDBF8C3
:10202000001021F040511143CBF800102868C04344
:10203000000208D4D5F88820D9F8001021F4400116
:102040001143C9F8001028790024C04300F00100B2
:10205000204309D00EE0EA6FD9F8001021F4407156
:102060001143C9F80010A8E70198002100F028FFEB
:1020700000B106462879C04300F00200204305D194
:102080000198012100F01CFF00B106462879C043E9
:1020900000F00400204305D10198022100F010FF58
:1020A00000B106462879C04300F00800204305D15E
:1020B0000098002100F094FF00B106462879C04343
:1020C00000F01000204305D10098012100F088FFA6
:1020D00000B106462879C04300F02000044304D133
:1020E0000098022100F07CFF00B916B10120BDE884
:1020F000FE8F0020FBE700002DE9F05F04000F4693
:102100007ED0DFF83882D8F8000000F00F00B84227
:102110000CD2D8F8001021F00F013943C8F8001094
:10212000D8F8000000F00F00B84269D12078844D43
:1021300040070AD52069296801F07001884204D956
:10214000296821F070010143296020787C4E361DFA
:1021500000070AD56069316801F07001884204D92E
:10216000316821F07001014331602078C0060AD542
:10217000A069316801F4E061884204D9316821F432
:10218000E061014331602078DFF8B4B180060BF1E3
:10219000080B0CD5E1695846DBF8002002F070020C
:1021A000914204D9026822F070020A43026020784A
:1021B00080070AD5E068296801F00F01884204D938
:1021C000296821F00F01014329602078C0073ED023
:1021D0005B49A2682868183920F4706010432860B1
:1021E0006068022818D0032819D00968012819D07E
:1021F000490700294ADADFF848A1AAF1080A00E0F5
:1022000044E0DAF8002022F007020243CAF8002076
:10221000FFF7DAF9814612E009688903E9E70968FE
:102220008901E6E7C905E4E7FFF7CEF9A0EB09016C
:1022300041F28830814202D90320BDE8F09F6168F5
:10224000DAF8000000F03800B0EBC10FECD12078D4
:1022500080070AD5E068296801F00F01884204D29E
:10226000296821F00F0101432960D8F80010404689
:1022700001F00F01B9420BD9016821F00F01394378
:102280000160006800F00F00B84201D00120D4E7DF
:10229000207840070AD52069296801F0700188423A
:1022A00004D2296821F070010143296020780007D9
:1022B0000AD56069316801F07001884204D2316842
:1022C00021F07001014331602078C0060AD5A06971
:1022D000316801F4E061884204D2316821F4E061A0
:1022E00001433160207880060CD5E1695846DBF85F
:1022F000002002F07002914204D2026822F07002C3
:102300000A43026000F088F80E492A682B68C2F37D
:10231000032203F00F038A5CC95C02F01F0201F084
:102320001F01D040084A20FA01F1116007490860F6
:1023300007480068BDE8F05FFFF782B9002000524F
:102340001844025870410008200000241C0000249A
:102350001400002470B5144C3F220260124A246815
:102360000832131D114D04F00704446016681C1D4B
:1023700006F470668660166806F00F06C66012687E
:1023800002F0700202611A6802F0700242611A687B
:1023900002F4E0628261226802F07002C261286881
:1023A00000F00F00086070BD104402580020005279
:1023B00030B500F031F80B4A0B490C4B1568146826
:1023C000C5F3032204F00F048A5C095D02F01F02CA
:1023D00001F01F01D040064A20FA01F11960106097
:1023E000084630BD184402587041000820000024FF
:1023F0001C00002400B5FFF7DBFF05490968054A0A
:10240000C1F30221515C01F01F01C84000BD000072
:102410001C44025870410008454970B54548096898
:10242000434B103B11F0380208D00111082A03D0A9
:10243000102A0BD0182A0BD0084670BD19688906DF
:10244000FBD51968C1F3C101C84070BD3A4870BDE1
:102450003749374D18310C1D24350A68096826683C
:102460002D6802F0030406F00102C1F30511C5F363
:10247000CC0515FB02F200EE102AB8EE400AE9B3D3
:102480002F4ADFED2E0AB7EE001A6CB1DFED2D1AE0
:10249000012C01D0022C43D002EE101A1068F8EE85
:1024A000422A81EEA22A1EE01C68A40611D51B68F0
:1024B00001EE901A1168C3F3C103F8EE612AD84007
:1024C00001EE900AC1F30800F8EE611A81EEA22A2B
:1024D0000BE001EE901ADFED1C2A00BFF8EE611A46
:1024E000106882EEA12AC0F3080001EE900AF8EE0F
:1024F000611A40EE201A31EE810A00E015E022EE6A
:10250000000A1068C0F34620401C00EE900AF8EE66
:10251000600A80EE201ABCEEC10A10EE100A70BDEF
:1025200001EE901ADFED092AD8E7002070BD000007
:10253000104402580090D00300366E0100000039AC
:10254000304402580024744A0024744C001BB74BDA
:102550002DE9F05F04007DD0FF4F2078FE4D183745
:10256000DFF8F483103DC00748D0D8F80000396880
:1025700000F03800102815D0182803D101F003000E
:1025800002280FD06068B0F5803F12D010B1B0F5CE
:10259000A02F18D0286820F480302860286820F404
:1025A000802009E02868800328D560680028D2D000
:1025B00024E0286840F480302860606888B1FFF724
:1025C00003F8064609E0286840F480202860F0E718
:1025D000FEF7FAFF801B64287ED828688003F7D5B1
:1025E0000CE0FEF7F1FF064605E000BFFEF7ECFF4A
:1025F000801B6428F0D828688003F7D420788007EF
:1026000056D5D8F80000DFF85093396810F038003C
:10261000A9F10C090ED0182801D188070AD0E0686A
:10262000A8B3296821F0190101432960FEF7CCFF06
:10263000064628E02868400702D5E06800288AD0CE
:10264000E168286820F0190008432860FEF7BCFF05
:10265000064606E0D2E000BFFEF7B6FF801B022868
:10266000BAD828684007F7D5217CD9F8002022F095
:10267000FE4242EA0161C9F8001019E0FEF7A4FF2A
:10268000801B0228A8D828684007F7D5ECE7FFE7A9
:10269000286820F001002860FEF796FF064604E057
:1026A000FEF792FF801B022896D828684007F7D4CF
:1026B0002078C00646D5D8F80000DFF89C9239682B
:1026C00000F03800A9F10409082812D0182805D113
:1026D00001F00300012800E0CEE00AD0E069002804
:1026E000286820D040F080002860FEF76DFF064685
:1026F00015E02868C00502D5E06980287ED194F8ED
:102700002010D9F8002022F07C5242EA0161C9F879
:10271000001017E0FEF758FF801B0228A0D8286899
:10272000C005F7D5EBE720F080002860FEF74CFFEE
:10273000064604E0FEF748FF801B022890D8286870
:10274000C005F7D42078000729D583486169643033
:1027500000298146016811D041F001010160FEF7B6
:1027600033FF064605E000BFFEF72EFF801B022860
:1027700088D8D9F800008007F6D510E021F00101D3
:102780000160FEF721FF064605E000BFFEF71CFFD3
:10279000801B022870D8D9F800008007F6D4207872
:1027A000800623D5A0690028286810D040F4805006
:1027B0002860FEF709FF064605E000BFFEF704FFAC
:1027C000801B022858D828688004F7D50EE020F432
:1027D00080502860FEF7F8FE064604E0FEF7F4FE9F
:1027E000801B022848D828688004F7D42078400746
:1027F00051D5DFF86891D9F8001000E015E141F4F7
:102800008071C9F80010FEF7DFFE064605E000BF44
:10281000FEF7DAFE801B64282ED8D9F80000C00528
:10282000F6D54D4EA068603601280AD008B10528BB
:1028300013D0306820F001003060306820F00400D0
:1028400002E0306840F001003060A06841F2883A50
:1028500098B1FEF7B9FE81460AE0306840F0040006
:102860003060EEE7FEF7B0FEA0EB0901514503D85A
:1028700030688007F6D50EE072E0FEF7A5FE8146CF
:1028800006E000BFFEF7A0FEA0EB0901514567D8A6
:1028900030688007F6D4606A00287CD0DFF8B8A0E2
:1028A000D8F800100AF1200A4FF6F87B0AF1040864
:1028B000C1F3C2010329AAF104096DD002282868D6
:1028C00020F08070286003D0FEF77EFE044681E091
:1028D000FEF77AFE064604E0FEF776FE801B02282D
:1028E00075D828688001F7D4E26A40F2F33138687D
:1028F00054F8283F884340EA021018433860217B8F
:102900004FF4FE0C22894FF0FE47208A4902267DB3
:10291000521E401EA1F5007189B2C2F30802114394
:10292000761E0CEA00400143484607EA066211435E
:10293000CAF80010D9F8001021F00101C9F8001000
:10294000D8F80030266A23EA0B0343EAC601C8F828
:102950000010D9F8001004E0104402580048025852
:1029600035E0A26921F00C011143C9F8001001689B
:10297000E26921F0020111430160016841F48031F4
:102980000160016841F400310160016841F4802177
:102990000160016801E06CE020E041F001010160AC
:1029A000286840F080702860FEF70EFE044604E0C0
:1029B000FEF70AFE001B022809D828688001F7D517
:1029C00057E000BFFEF700FE001B022802D90320DB
:1029D000BDE8F09F28688001F4D44AE039680128F6
:1029E000DAF8000021D0A26A01F0030393421CD15F
:1029F000E26AC1F305118A4217D1216BC0F30802C4
:102A0000491E8A4211D1616BC0F34622491E914290
:102A10000BD1A16BC0F30642491E914205D1E16B77
:102A2000C0F30660491E814201D00120D0E7A16CAD
:102A30004646D8F80000C0F3CC00814219D0D9F83E
:102A400000004D4620F00100C9F80000FEF7BCFD73
:102A50004FEA0007FEF7B8FDB842FBD0A26C306821
:102A600020EA0B0040EAC2003060286840F0010014
:102A700028600020ACE770477047704710B504002D
:102A800003D094F83D0010B107E0012010BD0020F4
:102A900084F83C00204600F022F8022084F83D0033
:102AA0002068211D00F01AFC012084F8480084F8F9
:102AB0003E0084F83F0084F8400084F8410084F828
:102AC000420084F8430084F8440084F8450084F808
:102AD000460084F8470084F83D00002010BD704790
:102AE00090F83D10012901D0012070471A4A0221B7
:102AF00080F83D100168CB6843F00103CB600068AB
:102B000090421AD0B0F1804F17D01449884214D0A7
:102B10001349884211D0134988420ED01249884285
:102B20000BD01249884208D01149884205D011497A
:102B3000884202D01049884207D181680F4A11406B
:102B4000062906D0B1F5803F03D0016841F00101AC
:102B500001600020704700000000014000040040B8
:102B600000080040000C0040000401400018004034
:102B70000040014000E0004000E400400700010088
:102B800070472DE9F041044600680027C6680569D2
:102B9000A90713D5B10711D5FA1E026101212177CA
:102BA000206880698007204602D0FFF7E9FF04E033
:102BB00000F08BF8204600F089F82777680716D5D3
:102BC000700714D5226802206FF00401116120778C
:102BD0002068806910F4407F204602D0FFF7D0FFC4
:102BE00004E000F072F8204600F070F8277728071C
:102BF00015D5300713D5226804206FF00801116144
:102C000020772068C0698007204602D0FFF7B8FF10
:102C100004E000F05AF8204600F058F82777E8065C
:102C200016D5F00614D5226808206FF01001116146
:102C300020772068C06910F4407F204602D0FFF75B
:102C40009FFF04E000F041F8204600F03FF82777AE
:102C5000E80708D0F00706D021686FF0010008618E
:102C6000204600F035F8280601D4A80408D530061F
:102C700006D521686FF4025008612046FFF7FCFE7C
:102C8000E80508D5300606D521686FF48070086124
:102C90002046FFF7F0FE680608D5700606D52168C5
:102CA0006FF040000861204600F01CF8A8060AD525
:102CB000B00608D521686FF0200008612046BDE805
:102CC000F041FFF7DABEBDE8F081704770470000C1
:102CD00000680349884201D1FEF77CBC70470000C0
:102CE00000E000407047FEE71B4800232DE9F0415B
:102CF000184F0124836000F1140807601426C36094
:102D00004FF03B0C0474022543740D278474042196
:102D100088E8501000F124080662082288E8B00014
:102D20000563C0E90D31C0E90F12C0E91112C0E915
:102D30001315C0E91512C2650266C0E91931FEF724
:102D4000EDF8002803D0BDE8F041FDF74EBCBDE82A
:102D5000F081000000A00040000300241C48012373
:102D60002DE9F041194D002484604FF0140C0560EA
:102D70003B25C46000F124080374022644740D2727
:102D80008374042143610822C0E906C5C0F820C04D
:102D900040F2064588E8C8008163C0E90C3503238A
:102DA000C0E90F12C0E91112C0E91313C0E91512EE
:102DB000C2650266C0E91941FEF7B0F8002803D0E9
:102DC000BDE8F041FDF711BCBDE8F08100A4004072
:102DD000A00300241B4800222DE9F041184F00F108
:102DE00014088260012507601426C2603B27027424
:102DF0000224427404218274082388E8E0000662F9
:102E000040F61206C0E90954C0E90D61C0E90F138C
:102E1000C0E911134FF00D0CC0E90BC4C0E9131445
:102E2000C0E91513C3650366C0E91921FEF776F8FA
:102E3000002803D0BDE8F041FDF7D7BBBDE8F08125
:102E400000D400404004002400B587B006491C228D
:102E50006846FDF70BFB0021684600F0ECFB0349D8
:102E6000086007B000BD0000F84000080000002422
:102E7000114808B5016841F080010160016801F066
:102E800080010091016841F008010160016801F0D2
:102E900008010091016841F001010160016801F041
:102EA00001010091016841F002010160006800F039
:102EB0000200009008BD0000E0440258FEE7FEE773
:102EC0002DE9F047454D044689464FF0000A286831
:102ED000C04380070AD0414E283E306820F0806011
:102EE0003060FEF771FB0746B04608E00120BDE800
:102EF000F08700BFFEF768FBC01B022867D8D8F830
:102F000000000001F6D4206829684FF4FE0721F480
:102F10007C313E0241EA00302860207AA389B4F86F
:102F200004C040022D4D2D495B1E227CACF1010CEA
:102F30001035091DA0F5007080B2521ECCF3080CAC
:102F400007EA034340EA0C00184306EA0262104312
:102F500028600868626920F0C000104308600A68B1
:102F6000A06922F0200202430A60281D0A6822F0AC
:102F700010020A6002684FF6F873E4699A4342EA65
:102F8000C40202600868B9F1000F40F010020A6044
:102F900011D00868B9F1010F11D040F40010086099
:102FA000D8F80000444640F08060C8F80000FEF702
:102FB0000BFB05460DE0086840F40020EFE740F405
:102FC0008010ECE7FEF700FB401B022801D903202C
:102FD0008DE720680001F5D5504688E7284402585F
:102FE0002DE9F047454D044689464FF0000A286810
:102FF000C04380070AD0414E283E306820F0805000
:103000003060FEF7E1FA0746B04608E00120BDE86F
:10301000F08700BFFEF7D8FAC01B022867D8D8F89F
:1030200000008000F6D4208829684FF4FE0721F0C4
:103030007C713E0241EA00502860207AA389B4F8EE
:1030400004C040022D4D2D495B1E227CACF1010CC9
:103050001835091DA0F5007080B2521ECCF3080C83
:1030600007EA034340EA0C00184306EA02621043F1
:1030700028600868626920F44060104308600A68AC
:10308000A06922F4007202430A60281D0A6822F433
:1030900080720A6002684FF6F873E4699A4342EA64
:1030A000C40202600868B9F1000F40F480720A603F
:1030B00011D00868B9F1010F11D040F0807008609C
:1030C000D8F80000444640F08050C8F80000FEF7F1
:1030D0007BFA05460DE0086840F48000EFE740F415
:1030E0000000ECE7FEF770FA401B022801D903202C
:1030F0008DE720688000F5D5504688E728440258BF
:103100004FF4A4640D4A0E480823214600F0F5F957
:10311000642000F084FA094A08230A48214600F096
:10312000ECF9642000F07BFA044A082306482146A3
:1031300000F0E3F9642000F072FAE3E704000024F1
:1031400000030024A003002440040024502010B5F4
:1031500080F31188BFF34F8FBFF36F8F00F0FEFE37
:1031600018B104494FF080500860002080F31188A6
:1031700010BD000004ED00E070B59CB04C21684625
:10318000FDF7AEF9202113A8FDF7AAF90220FEF7FA
:10319000EBFA1E48016821F44041016001680024F7
:1031A00001F440411B910168C9438904FBD402200A
:1031B0000A9028230990C20301210D910625CDE92B
:1031C0000012CDE90B030C261294CDE90E50CDE987
:1031D00010646846FFF7BCF908B172B6FEE74020FC
:1031E0001A9008230501CDE9163013ABCDE9180577
:1031F0003F21032283E8160013A81146FEF77CFF47
:10320000002801D072B6FEE71CB070BD1848025805
:103210002748F0B5274A016841F470010160106841
:1032200000F00F00072804D2106820F00F00C01D26
:10323000106021490020204C10340B681F4D43F0D2
:1032400001030B6020600B682B400B60136803F0D8
:103250000F03072B04D9136823F00F03DB1D136042
:10326000154C174A1834174B261D371D2060124C79
:10327000154D28343060261D3860371D23603B1DF6
:1032800035601C1D3A60251D2E1D1860331D2260FF
:103290002860326018600A6843F2D204064B0B4D76
:1032A00022F4802260330A6018602C60F0BD0000B8
:1032B00088ED00E000200052004402587FEDF6EA5D
:1032C00080020101000202020000FF0100400052E2
:1032D0000148FFF756BC0000E00400242DE9F04748
:1032E0002D4B4FF0804A2D4D026898422C4E2D4FA9
:1032F0002D4C09D0504507D0A84205D0B04203D08C
:10330000B84201D0A04205D1D1F804C022F0700229
:103310004CEA0202DFF894C0DFF894809842DFF8AC
:10332000949015D0504513D0A84211D0B0420FD080
:10333000B8420DD0A0420BD0604509D0404507D01F
:10334000484505D01C4DA84202D01C4DA84203D1CF
:10335000CD6822F440722A434D6922F080022A434C
:10336000026098428A68C2620A68826207D0A042FC
:1033700005D0604503D0404501D0484501D10969D9
:103380000163012141610169C90703D0016921F08D
:1033900001010161BDE8F087000001400004004028
:1033A00000080040000C00400004014000400140C3
:1033B000004401400048014000E0004000E40040BB
:1033C000FEE7090700284FEA116104DB00F1E02065
:1033D00080F80014704700F00F0000F1E02080F842
:1033E000141D704710B500F021F80D48FDF7BBFF24
:1033F0000C48FDF7B8FF0C48FDF7B5FF0848002260
:103400000121FDF733FA074800220121FDF72EFACA
:1034100000220548BDE810400121FDF727BA000051
:1034200000030024A00300244004002410B58AB047
:1034300002AA002002210190012482E813000590D5
:1034400001A906900848FDF7B6FA022206480123B2
:1034500011460094FDF7EEFA012203481146FDF7EC
:103460007DFA0AB010BD000000030024024A0348A0
:10347000911F00F019B800002A0000240003002466
:10348000024A0348A2F10C0100F00EB832000024F9
:10349000A0030024024A0348A2F1120100F004B87C
:1034A0003A0000244004002430B58BB00D46402182
:1034B00013466A46FDF7DAFA10B100200BB030BDB2
:1034C000009828800398082800D8C4B2092800D89A
:1034D0000C240A2800D810240B2800D814240C2807
:1034E00000D818240D2800D820240E2800D8302415
:1034F0000F2800D840242046E0E710B58AB0002409
:10350000082B0294CDE9001400D803930C2B0CD0A7
:10351000102B0CD0142B0CD0182B0CD0202B1CD023
:10352000302B1CD0402B1CD007E0092104E00A21DD
:1035300002E00B2100E00C2103914FF4801108946C
:103540004B00CDE90441CDE906346946FDF7D2F9D7
:10355000002800D001200AB010BD0D21ECE70E219B
:10356000EAE70F21E8E70000274B002019688903EC
:1035700011D4BFF34F8FBFF36F8F24490860BFF39F
:103580004F8FBFF36F8F196841F400311960BFF39B
:103590004F8FBFF36F8F1968C90322D41A49703156
:1035A0000860BFF34F8F081F43F6FF740068174D84
:1035B0001035C0F34E31C0F3C90204EA411610467B
:1035C00046EA80772F60401EFAD2491EF5D2BFF33B
:1035D0004F8F186840F480301860BFF34F8FBFF3EF
:1035E0006F8FFDF7FFFFFFF7C7FDFFF741FCFFF708
:1035F0007BFBFFF7B3FBFFF7EDFBFFF7F3FEFFF7F6
:1036000023FC00F013F8FEE714ED00E050EF00E0BB
:10361000842801464FF0000000D0C81C704710B548
:1036200000B9012000F036FB002010BD10B500F0FD
:1036300057FB002010BD7FB50D4641690446B0F927
:10364000080081B1A16971B1FFF7E2FFD4E9051269
:103650002B468DE807002269D4E9001000F053FCE6
:10366000039004B070BDFFF7D3FF03A92B46CDE94B
:103670000001228AD4E9001092B200F017FC012860
:1036800001D00020EDE70398EBE700002DE9F041C1
:10369000184C0F460546E6682068001D00F030FA19
:1036A00038B922680121206992F82C209140884382
:1036B0002061681C07D137B12168BDE8F0410E4890
:1036C000091D00F063BA20683544B54245602168A1
:1036D00005D2A06B091DBDE8F04100F03FBA606B58
:1036E000091D00F03BFAA06A854200D2A562BDE840
:1036F000F081000044000024080600242DE9F04178
:10370000054600F04FFA2E4C2E4FA068401CA060DA
:10371000206810B1606940B32DE02560A0680128E1
:1037200029D1002606EB860007EB800000F008FA9E
:10373000761C072EF6D323488C3000F001FA21487E
:10374000A03000F0FDF91F48B43000F0F9F91D4831
:10375000C83000F0F5F91B48DC3000F0F1F91948E9
:103760008C3060631430A06305E0E86A2168C96AA0
:10377000814200D825600120616A491C6162E96AC2
:10378000226988401043206101EB8100291D07EB6D
:10379000800000F0FBF900F025FA606900280CD0E9
:1037A0002068E96AC06A884207D207494FF0805012
:1037B0000860BFF34F8FBFF36F8FBDE8F08100004B
:1037C000440000242C05002404ED00E010B504465C
:1037D00090F8510058B101280CD002280FD0502089
:1037E00080F31188BFF34F8FBFF36F8FFEE7206B1D
:1037F00000F00CFA2046BDE8104000F007BA10BDFA
:1038000011484FF4705110B5420706D00E49C01D43
:1038100020F00700411AC1F570510C4C00230144FF
:103820000839A4F1180221F00701C4E900030C1AB9
:1038300011604B600B60C0E9001494604FF00041D0
:103840005460516110BD00001C0600249800002443
:10385000144E4FF08058144CDFF85090A6F1C80772
:1038600012E000BF00F09EF9F068C568281D00F066
:1038700047F9A068401EA0606068401E606000F0CC
:10388000B1F92846FFF7A2FF60680028EAD138683E
:103890000128F9D9C9F80080BFF34F8FBFF36F8FAC
:1038A000F2E70000F40500244400002404ED00E0E9
:1038B0002DE9F05F88469A4691001546DDE90B94A4
:1038C0000A9EA5228346206BFCF702FE206B6FF058
:1038D000030101EB8501084420F00707780707D0B2
:1038E000502080F31188BFF34F8FBFF36F8FFEE737
:1038F000B8F1000F4FF000050ED00020221818F884
:10390000001082F8341018F8001011B1401C102873
:10391000F4D384F8435001E084F83450072E00D3E8
:103920000626E662201DC4E9116500F014F904F1D1
:10393000180000F010F9E564C6F10700A06184F8F2
:1039400050505246246159463846646200F0C0F82F
:10395000B9F1000F206001D0C9F80040BDE8F09F28
:1039600030B5114900E011460A688242FBD34B682A
:103970005C18844203D14468084623444B60436882
:103980001D18954209D1084C183C2468A24209D060
:1039900052681A4442600A6812680260814200D08C
:1039A000086030BD0460F9E7980000240648416BC8
:1039B000096829B1416BC968C96849688162704763
:1039C0004FF0FF31FAE70000440000240848406847
:1039D000401C4FF0500080F3118804D0BFF34F8F8C
:1039E000BFF36F8FFEE7BFF34F8FBFF36F8FFEE71D
:1039F000A00000242DE9F0410027044600F0A6F9BC
:103A0000324E306808B9FFF7FBFE706904424ED1B0
:103A1000C4B3083460070ED004F00700C0F10800FA
:103A20000444600707D0502080F31188BFF34F8F04
:103A3000BFF36F8FFEE72CB37068844237D82348FA
:103A4000183001460D6801E028460D466968A1421C
:103A500002D229680029F7D131688D4227D0076842
:103A60002968016008376868011B10290FD92819D7
:103A7000420708D0502080F31188BFF34F8FBFF367
:103A80006F8FFEE713E041606C60FFF769FF6968C4
:103A90007068401A7060B268904200D2B060002036
:103AA00072691143C5E90001F068401CF06000F044
:103AB000BBFA780707D0502080F31188BFF34F8FEF
:103AC000BFF36F8FFEE73846BDE8F0818000002429
:103AD00070B5041F094E231F4FF0807521F00101BE
:103AE00025601C1F1960A0F120010B1F26604438BF
:103AF0000A606FF002051D6070BD0000CD3900083E
:103B0000D0E9013201699A60D0E901235A604A681C
:103B1000824201D182684A60002202610868401E28
:103B2000086008687047000010B5044C80230460EA
:103B300004F154000860136010BD0000AC000024C4
:103B40004FF0FF3300F108010022C0E901130260C9
:103B5000C1600161704700210161704730B50B6899
:103B60005A1C02D000F1080202E0026904E0224679
:103B7000546825689D42FAD953684B6099608A6001
:103B8000516008610168491C016030BD42684A60AB
:103B900093688B6093685960916008610168491C63
:103BA00001607047502080F31188BFF34F8FBFF33F
:103BB0006F8F0A494868401C486001280CD10848AA
:103BC000006810F0FF0F07D0502080F31188BFF37A
:103BD0004F8FBFF36F8FFEE770470000A0000024F7
:103BE00004ED00E00849486828B1401E486001D152
:103BF00080F311887047502080F31188BFF34F8FF6
:103C0000BFF36F8FFEE70000A000002470B500280E
:103C10002AD0164DA0F1080461686869014207D1F5
:103C2000502080F31188BFF34F8FBFF36F8FFEE7F3
:103C300022683AB1502080F31188BFF34F8FBFF351
:103C40006F8FFEE78143616000F080F8606869680B
:103C5000084468602046FFF783FE2869401C2861FD
:103C6000BDE8704000F0E0B970BD000080000024A5
:103C70004FF0E020002101614FF47A728161072347
:103C800003490968B1FBF2F1491E416103617047C4
:103C90001C000024020010B514D00F48006B38B18E
:103CA000502080F31188BFF34F8FBFF36F8FFEE773
:103CB00000F04CF800211046FFF7E8FC00F0B4F9E2
:103CC000002807D105494FF080500860BFF34F8F9F
:103CD000BFF36F8F10BD00004400002404ED00E02E
:103CE00010B586B0002405AA04A9039403A804947F
:103CF000FFF71AFFDDE9030100940023CDE901106D
:103D000010480EA1059A00F0FEF80F490028C8627D
:103D100011D0502080F31188BFF34F8FBFF36F8F06
:103D200001224FF0FF3088624A61CC6006B0BDE8E6
:103D3000104000F041B806B010BD000049444C45A9
:103D40000000000051380008440000240248016BC4
:103D5000491C016370470000440000241448016BB3
:103D600011B10121C16170470021C161114902698E
:103D7000B2FA82F2C2F11F0202EB820251F8223043
:103D80006BB101EB820101F108034A6852684A6095
:103D90009A4201D152684A60D16801607047502050
:103DA00080F31188BFF34F8FBFF36F8FFEE70000E2
:103DB000440000242C05002437481CB5374902680C
:103DC0008A4207D1502080F31188BFF34F8FBFF391
:103DD0006F8FFEE731490068491E884207D15020A5
:103DE00080F31188BFF34F8FBFF36F8FFEE72C492D
:103DF000FF200A780192087008788DF800009DF87D
:103E000000209DF8000002F0F002824207D050200E
:103E100080F31188BFF34F8FBFF36F8FFEE79DF8DC
:103E2000002007201F4C02F050022270A06005E025
:103E30009DF8002052008DF80020401E9DF80020C3
:103E40001206F5D40328A06007D0502080F3118813
:103E5000BFF34F8FBFF36F8FFEE74FF44070A0604A
:103E6000019808700C482030016841F4700101602D
:103E7000016841F070410160FFF7FAFE00206060C8
:103E8000FCF798FA0848016841F040410160FCF7EE
:103E90007DFA00201CBD000000ED00E071C20F4162
:103EA00000E400E0A000002434EF00E02DE9FF5F13
:103EB000994616468A4683469000DDE90E87FFF74D
:103EC00099FD05001CD05420FFF794FD040014D088
:103ED0000020256384F851004B46CDE90087CDE9E9
:103EE0000240324651465846FFF7E2FC2046FFF7B3
:103EF00005FC012004B0BDE8F09F2846FFF786FED0
:103F00004FF0FF30F6E7F0B585B0DDE90B740A9DA0
:103F1000A7B1DCB154262763022684F8516000273C
:103F200003970DF1100C0095CDE901C4FFF7C0FC1B
:103F30002046FFF7E3FB049805B0F0BD502080F366
:103F40001188BFF34F8FBFF36F8FFEE7502080F3D0
:103F50001188BFF34F8FBFF36F8FFEE72DE9F0415C
:103F60002F4C206B002728B1A069401CA061384667
:103F7000BDE8F081E668761CE66013D1606B0068EE
:103F800038B1502080F31188BFF34F8FBFF36F8F8C
:103F9000FEE7606BA16B6163A063206A401C206236
:103FA000FFF704FDDFF87C80A06A864209D3606BCE
:103FB0000068A0B1606BC068C5686868864211D2AD
:103FC000A0622068C06A00EB800158F82100012837
:103FD00000D90127E0690028C9D00127C7E74FF0C1
:103FE000FF30EDE7281DFFF78BFDA86A18B105F13A
:103FF0001800FFF785FDE96A012022698840104317
:10400000206101EB810108EB8100291DFFF7BEFD56
:104010002068E96AC06A8142C9D30127C7E7000066
:10402000440000242C0500242DE9F0472C4D286B7A
:104030000024264638B1FFF7B5FD286B401E2863E3
:10404000286B40B147E0502080F31188BFF34F8FB9
:10405000BFF36F8FFEE7234F0120A968D9B3A7F103
:10406000B40980463868E8B1F868C46804F11800FB
:10407000FFF746FD201DFFF743FDE16A2A6908FAB4
:1040800001F01043286101EB810109EB8100211D42
:10409000FFF77CFD2968E06AC96A8842E2D3C5F867
:1040A0001C80DFE70CB1FFF781FCAC6944B14746E7
:1040B000FFF754FF00B1EF61641EF9D10020A86141
:1040C000E86940B1084901264FF080500860BFF30D
:1040D0004F8FBFF36F8FFFF785FD3046BDE8F08748
:1040E00044000024E005002404ED00E04FF040709F
:1040F000E1EE100A7047000080410008013100081D
:10410000000000000000000080000000000000002F
:10411000000000000001020304050607080C10144B
:1041200018203040000000000000000000000000E7
:10413000000000000000000001000000020000007C
:104140000300000004000000000000000500000063
:104150000000000000000000000000000600000059
:104160000000000000000000000000000700000048
:10417000000000000102030401020304060708090D
:1041800064656661756C745461736B00AC410008C2
:1041900000000024AC00000008030008584200089A
:1041A000AC000024D44700002403000800000000F5
:1041B00000010203040506070000000001000000E2
:1041C00010000000000000000090D0030090D00319
:1041D00000000000000000000000000000000000DF
:1041E00000000000000000000000000000000000CF
:1041F00000000000000000000000000000000000BF
:1042000000000000000000000000000000000000AE
:10421000000000000000000000000000000000009E
:10422000000000000000000000000000000000008E
:10423000000000000000000000000000000000007E
:10424000000000000000000000000000000000006E
:08425000AAAAAAAA00000000BE
:04000005080002CD20
:00000001FF
